:020000040800F2
:1000000000000220754300087943000849430008B6
:100010007D4300088143000885430008000000007C
:1000200000000000000000000000000089430008FC
:100030008D4300080000000091430008954300082C
:10004000994300089D430008A1430008A543000808
:10005000A9430008AD430008B1430008B5430008B8
:10006000B9430008BD430008C1430008C543000868
:10007000C9430008CD430008D1430008D543000818
:10008000D9430008DD430008E1430008E5430008C8
:10009000E9430008ED430008F1430008F543000878
:1000A000F9430008FD430008014400080544000826
:1000B000094400080D4400081144000815440008D4
:1000C000194400081D440008214400082544000884
:1000D000294400082D440008314400083544000834
:1000E000394400083D4400084144000845440008E4
:1000F000494400084D440008514400085544000894
:10010000594400085D440008614400086544000843
:10011000694400086D4400087144000875440008F3
:10012000794400087D4400088144000885440008A3
:10013000894400088D440008914400089544000853
:10014000994400089D440008A1440008A544000803
:10015000A9440008AD440008B1440008B5440008B3
:10016000B9440008BD440008C1440008C544000863
:10017000C9440008CD440008D1440008D544000813
:10018000D9440008DD4400089D080008F008000874
:1001900007000000F82F0008B0080008DD0800087C
:1001A000080000009D0800089C010008F82F0008C6
:1001B000002F00089C010008F82F0008F008000834
:1001C000FDFFFFFF240F0008941D0008B008000881
:1001D0009D08000810070008000000000C01001036
:1001E000B00800089D080008AC0C0008EC0E0008E0
:1001F000041E000890190008C80C0008B008000888
:100200009D080008EC0E0008BC1D0008281C000812
:1002100020270008D0280008500A00081800000015
:10022000F008000862000000F82F0008DC1B00083E
:10023000B0080008F00800080A000000D0280008F4
:10024000500A000814000000F008000864000000D4
:10025000F82F0008B0080008F00800086800000047
:10026000F82F0008B00800089D080008D4250008F1
:10027000002700083825000800020008B008000820
:100280009D080008002700080027000838250008FE
:1002900000020008B00800089D080008AC0C000827
:1002A000281C0008EC0E0008041E0008F0080008D6
:1002B0000A000000D0280008500A000810000000C2
:1002C00068020008380A00080800000080020008E0
:1002D000002F0008C80C0008B0080008DD0800085E
:1002E00014010010DD08000818010010DD080008E6
:1002F0003C010010DD080008440100109D080008C2
:10030000F0080008863F0008F8160008A42F00082F
:10031000141800089D080008D80E0008941D000855
:10032000B00800089D080008EC0F0008680F0008DE
:10033000041E00084027000814030008B008000845
:100340009D080008140F0008BC1D00089C29000827
:10035000F00800084340000860120008B0080008D8
:100360009D080008140F0008BC1D0008F0080008D4
:100370005C40000860120008B00800089D080008F2
:10038000A8280008F00800081740000860120008BC
:10039000B00800089D080008C81A0008DC02000820
:1003A000BC1D0008FC1B000844290008F0080008D8
:1003B000FF3F000860120008B00800089D08000810
:1003C0002C1B0008281C0008D4160008A42F0008C5
:1003D000D416000880280008BC0F0008701B000815
:1003E000B00800089D080008540F0008F008000835
:1003F0005E000000981500081007000801000000CA
:1004000008010010B00800089D08000870260008C8
:10041000281C0008701B0008E01D0008EC0E0008F6
:10042000BC1D000890120008500A00085800000087
:10043000FC1B0008EC0E0008BC1D0008F40B0008B3
:10044000DC1B0008741A0008EC0E0008BC1D000834
:10045000F40B00089825000828250008BC1D00089A
:1004600070260008500A000810000000102700083D
:1004700028250008941D00082C1B0008380A0008D5
:100480008CFFFFFF2C1B0008B00800089D08000827
:10049000A40E000878130008680F00081011000867
:1004A000AC090008B00800089D0800082C1B0008D3
:1004B000281C0008B8260008701B0008BC1D000896
:1004C00024030008B00800089D080008701B0008FD
:1004D00000270008501B00081C0C00082C1B0008FB
:1004E000FC1B0008701B00081C0C00082C1B0008DB
:1004F000B00800089D080008C81A0008EC020008AF
:10050000041E0008B00800089D080008C81A00086A
:10051000EC020008BC1D0008A8280008F00800082C
:10052000FF3F000860120008B00800089D0800089E
:100530008C040008500A00083C000000140F00085A
:10054000BC1D000814290008500A0008140000000F
:100550004C11000824030008380A00080C000000B1
:100560004C110008500E000894030008380A0008D7
:10057000C0FFFFFF680F0008F013000828250008DF
:10058000BC1D000870260008500A0008100000007A
:10059000E81E0008380A00080C000000DC1B0008F8
:1005A000181F000894030008380A000884FFFFFFA2
:1005B0009D0800088C1E0008740C0008900C0008B0
:1005C000E40300082C050008140F0008BC1D0008F7
:1005D0009C290008500A000838000000F0080008B4
:1005E00034010010BC1D0008500A0008240000005F
:1005F000F008000834010010BC1D0008F8160008BF
:10060000A42F0008EC0E0008BC1D0008442D0008B3
:10061000F008000810000000F82F0008D43000088F
:10062000380A000898FFFFFF9D080008680F0008BF
:10063000A828000848100008B00800089D08000815
:10064000100700080000000028010010B008000892
:10065000DD080008280100109D080008C8290008CE
:10066000500A000808000000502A0008B0080008DE
:100670009D080008C8290008500A0008080000006A
:10068000F8240008B00800089D080008D4300008CD
:10069000F0080008700D0008F8160008A42F0008E4
:1006A000F0080008E60D0008F8160008A42F00085E
:1006B000F0080008F30D0008F8160008A42F000841
:1006C000D4300008B00800089D0800087008000831
:1006D00098340008B00800089D080008FC1B0008BA
:1006E000981B000880280008F00800087F00000020
:1006F000981B0008E01D000814290008500A000893
:10070000E0FFFFFFFC1B0008DC1B0008B00800082E
:100710001507000802CD04CD116055F8042B22F016
:10072000030252F8043B18472D07000855F8040B44
:10073000006847F8040D55F8042B22F0030252F824
:10074000043B18474907000855F8042B57F8040BD9
:10075000104347F8040D55F8042B22F0030252F819
:10076000043B18476907000855F8042B57F8040B99
:10077000104047F8040D55F8042B22F0030252F8FC
:10078000043B18478907000855F8043B57F8040B49
:10079000186055F8042B22F0030252F8043B184766
:1007A000A507000857F8043B57F8041B57F8040B3B
:1007B0001A6822EA010200EA010042EA00021A6015
:1007C00055F8042B22F0030252F8043B18470000AE
:1007D000D507000855F8043B55F8044B55F804CBF1
:1007E0001A6822EA04020CEA040C42EA0C021A60BB
:1007F00055F8042B22F0030252F8043B184700007E
:100800000508000846F8045D55F8042B22F00302A1
:1008100052F8043B184700001D08000857F8040B65
:1008200000280CBF3568361D55F8042B22F0030252
:1008300052F8043B184700000A00000001000000C5
:1008400000000000000000006805001058030010C0
:1008500070FA0020040000101000002000000000CA
:1008600000000000DC3E0008F50D0008000000005C
:1008700075080008074808490E2203680B60001D30
:10088000091D521EF9D155F8042B22F0030252F82B
:10089000043B1847380800080401001046F8045DBE
:1008A000154655F8042B22F0030252F8043B184772
:1008B000B508000856F8045B55F8042B22F0030233
:1008C00052F8043B1847000001CA47F8040D55F8D8
:1008D000042B22F0030252F8043B184701CA47F8E0
:1008E000040D55F8042B22F0030252F8043B18477C
:1008F000F508000855F8040B47F8040D55F8042BCB
:1009000022F0030252F8043B1847000011090008C6
:1009100055F8040B47F8040D55F8042B22F0030298
:1009200052F8043B184700002D09000857F8045BF3
:1009300055F8042B22F0030252F8043B184700003C
:1009400046F8045D4568083047F8040D55F8042B57
:1009500022F0030252F8043B184700006109000826
:10096000064807490968401A47F8040D55F8042B52
:1009700022F0030252F8043B1847000010FA00204E
:100980002401001089090008064807490968401A2F
:1009900047F8040D55F8042B22F0030252F8043BEB
:1009A000184700000401001020010010B1090008E0
:1009B00057F8043B57F8042B93465A461878844658
:1009C000117848403F2420401DD1521C5B1C1878F0
:1009D00011788842F9D08024001B884214D15B1C16
:1009E0001878FF28FBD0083347F8043D0120624601
:1009F00047F8042D47F8040D55F8042B22F00302A4
:100A000052F8043B18475B1C187880242042FAD027
:100A10001B1D084803401B68002B00D0CDE70020B9
:100A200047F8040D55F8042B22F0030252F8043B5A
:100A300018470000FCFFFFFF3D0A00082B68ED1877
:100A400055F8042B22F0030252F8043B184700002B
:100A5000550A000857F8040B00283FF4EFAF2D1D8E
:100A600055F8042B22F0030252F8043B184700000B
:100A7000750A0008012374683268944204D0D218C1
:100A80003260A41A7FF4DAAF08362D1D55F8042B16
:100A900022F0030252F8043B18470000A10A0008A4
:100AA00057F8043BFFF7E7BFAD0A000857F8040BFF
:100AB00057F8042B46F8042D46F8040D55F8042B7E
:100AC00022F0030252F8043B18470000D10A000844
:100AD00057F8040B00787F21084047F8040D55F8BB
:100AE000042B22F0030252F8043B1847F10A0008D5
:100AF00057F8041B0B4A92460B4B1C6812191078CE
:100B0000521C884201D00028F9D15446121B1A7099
:100B100047F8040D55F8042B22F0030252F8043B69
:100B20001847000070FA002008010010310B00087F
:100B300057F8041B57F8042B10784840107055F8EC
:100B4000042B22F0030252F8043B1847510B000813
:100B50000A21884205D157F8040B0D2047F8040DEF
:100B600002E00D21884203D100F080F900F086F9FF
:100B700055F8042B22F0030252F8043B18470000FA
:100B8000850B00083868017801290FD0022914D09C
:100B900001440A78622A1AD0252A18D0642A18D06B
:100BA000232A16D0682A16D0242A14D055F8042BEC
:100BB00022F0030252F8043B184782782E2AE7D12C
:100BC00055F8042B22F0030252F8043B1847022484
:100BD00002E00A2400E0102400220A70044A146093
:100BE00055F8042B22F0030252F8043B184700008A
:100BF00004010010F90B000857F8040B57F8041B08
:100C0000A0FB012047F8042D47F8040D55F8042BEC
:100C100022F0030252F8043B18470000210C0008A0
:100C200057F8040B57F8043B57F8042B002812D050
:100C300093F0000F0FD10146B2FBF0F000FB112240
:100C400047F8042D47F8040D55F8042B22F0030251
:100C500052F8043B18474040401E024647F8042D16
:100C600047F8040D55F8042B22F0030252F8043B18
:100C700018470000790C0008044A176855F8042B3F
:100C800022F0030252F8043B184700001401001040
:100C9000950C0008044A166855F8042B22F003024C
:100CA00052F8043B1847000018010010B10C00086E
:100CB000044A11688C4655F8042B22F0030252F8BE
:100CC000043B184704010010CD0C0008044A61469B
:100CD000116055F8042B22F0030252F8043B184728
:100CE0000401001009490A480A4C0160001DA04295
:100CF000FBD3094F094E0FF2280546F8045D55F85D
:100D0000042B22F0030252F8043B18471111111171
:100D100000000020000201206805001058030010A8
:100D200070080008C4400008802D0008D430000876
:100D3000F0080008FB000000F82F0008F008000889
:100D4000F7000000F82F0008D43000081019000840
:100D500008CA9F4603B502490868401C086003BDE5
:100D600000000010690D000856F8045BBDE83F9CC8
:100D7000464953482041524D2020313031302C31EA
:100D8000313030202D2045484F4E2F45484F4646A4
:100D90002044656275675372632053544D33324665
:100DA000343037564720444953434F20403136387A
:100DB0004D687A20524D2056312E372E322028434E
:100DC00029323031342D3230313820412D544541D3
:100DD0004D20464F525448203A20417072203139FC
:100DE0002032303138002061742031313A32383AC3
:100DF0003031001500206F6B2C20676F20666973FF
:100E00006820696E2042415345200000910D0A4739
:100E100050494F205265676973746572733A0D8A41
:100E200000000000844E4F4FD0FFFFFF0C0E000863
:100E3000350E000855F8042B22F0030252F8043B4B
:100E40001847000087455845435554C5240E0008EF
:100E5000550E000800F00AF800F010F857F8042BBF
:100E600022F0030252F8043B184700007246024C7D
:100E70002168090AFCD31047004800407246024925
:100E800013240C70104700000448004072460249C9
:100E900011240C7010470000044800408242CCFF2F
:100EA000440E0008DD080008200000008255D0FF35
:100EB0009C0E0008DD080008200100108546454E04
:100EC00043C5FFFFAC0E0008DD0800082C01001030
:100ED0008244D0FFBC0E0008DD0800082401001089
:100EE00084424153C5FFFFFFD00E0008DD08000813
:100EF000040100108743555252454ED4E00E0008BD
:100F0000DD080008300100108553544154C5FFFF2F
:100F1000F40E0008DD08000810010010834F55D4BE
:100F2000080F0008DD0800080C0100108249CEFF00
:100F30001C0F0008DD08000808010010835041C4A0
:100F40002C0F0008DD08000810FA0020835449C265
:100F50003C0F0008DD08000870FA00208448455264
:100F6000C5FFFFFF4C0F00089D080008D80E0008C1
:100F7000BC1D0008B008000885414C4C4FD4FFFF51
:100F80005C0F00089D0800085C090008981B000819
:100F9000A8280008C8290008500A00080800000016
:100FA000FC020008D80E0008941D0008B0080008D4
:100FB00087414C49474E45C4780F0008C10F0008CF
:100FC00057F8040BC01C0549084047F8040D55F8B4
:100FD000042B22F0030252F8043B1847FCFFFFFFEA
:100FE00085414C4947CEFFFFB00F00089D0800081F
:100FF000680F00083027000880280008281C000817
:10100000701B0008680F0008A80A0008F008000814
:10101000FF000000A81A0008281E0008700A000837
:10102000ECFFFFFF2C1B0008F0080008FCFFFFFF8F
:10103000E02A0008D80E0008041E0008B0080008C6
:1010400081ACFFFFE00F00089D0800085C09000864
:10105000C8290008500A000808000000FC02000827
:1010600024030008B00800088243ACFF40100008C9
:101070009D0800085C090008C8290008500A0008FB
:1010800008000000FC020008680F0008281E000885
:101090001027000814030008B008000888564152C1
:1010A000414C4C4FD4FFFFFF681000089D0800081A
:1010B00084090008402700080C280008981B000835
:1010C000A8280008C8290008500A000818000000D5
:1010D000F0080008A33F0008F8160008A42F000835
:1010E00014180008B40E0008BC1D0008FC1B000802
:1010F00040270008D0270008B40E0008941D0008FF
:10110000B0080008864C41544553D4FF9C10000899
:101110009D080008000F0008BC1D0008B00800086A
:10112000834C46C1041100082D11000857F8040B28
:10113000083847F8040D55F8042B22F0030252F842
:10114000043B1847834346C1201100085111000891
:1011500057F8040B001F47F8040D55F8042B22F034
:10116000030252F8043B1847834E46C1441100085D
:101170009D0800089C010008A82800081027000806
:10118000A8280008281C0008E01D0008F008000836
:10119000FF000000A8280008500A0008E0FFFFFF39
:1011A000F0080008FFFFFFFFD8060008B00800089D
:1011B000835046C1681100089D08000810270008E8
:1011C000D806000870260008281C0008E01D00084A
:1011D000F0080008FF000000A8280008500A0008D6
:1011E000E4FFFFFF9C01000880280008B008000809
:1011F000883F414C49474E45C4FFFFFFB0110008EE
:101200009D080008F008000803000000E02A00081C
:10121000500A00083C000000BC0300082E56414C58
:101220005545204D555354204245204556454E20A6
:101230004E4F54204F444420414E44204D554C5471
:1012400049504C45204F4620342120FF14180008F7
:10125000B0080008863F4552524FD2FFF0110008F7
:101260009D080008FC1B0008500A00081000000040
:10127000F0140008380A000808000000DC1B000811
:10128000B00800088544494749D4FFFF54120008BC
:101290009512000857F8042B57F8040B303813D474
:1012A000092802DDC01F0A280EDB90420CDA024634
:1012B000012047F8042D47F8040D55F8042B22F0BF
:1012C000030252F8043B1847002047F8040D55F874
:1012D000042B22F0030252F8043B184787454E4383
:1012E0004C4F53C584120008ED12000857F8040B48
:1012F00039680022521E491E491C521C0B78984224
:10130000FAD047F8042D002B0CD11846521C47F890
:10131000042D47F8040D55F8042B22F0030252F86F
:10132000043B1847491C521C0B78984201D0002BF3
:10133000F8D11046401C47F8042D47F8040D55F825
:10134000042B22F0030252F8043B1847C180FFFF30
:10135000DC1200085913000856F8045B55F8042BFA
:1013600022F0030252F8043B1847000084574F5202
:10137000C4FFFFFF4C1300089D080008540F00082D
:10138000340F0008BC1D000880280008FC1B000862
:10139000E8120008340F0008941D0008981B00088C
:1013A000A8280008701B0008501B0008680F0008E0
:1013B000281E000880280008680F00087026000812
:1013C000501B0008E81C000800270008680F0008F0
:1013D000702600082C1B000880280008281E000822
:1013E000B0080008864E554D4245D2FF6C130008E8
:1013F0009D080008AC0C0008800B000800270008BE
:1014000000270008741A0008281C0008702600082D
:10141000E01D0008F00800082D000000D02800089A
:1014200010270008E02A0008281C0008701B00088C
:1014300080280008F0080008FFFFFFFF28250008AB
:10144000041E000808040008281C0008E01D00080D
:1014500000270008A8280008500A00086C000000B7
:10146000281C0008E01D0008F00800082E000000FD
:10147000A8280008500A000844000000281C0008A2
:10148000E01D0008F00800082C000000D02800082B
:10149000500A000814000000F0080008FFFFFFFFDA
:1014A000380A000898FFFFFFC80C00081027000842
:1014B000F0080008E73F0008601200080027000855
:1014C000380A000878FFFFFFDC1B00082C1B00080F
:1014D000500A000808000000F8240008C80C0008A2
:1014E000B0080008854552524FD2FFFFE4130008B0
:1014F0009D080008680F0008D4160008A42F0008F3
:10150000F8160008A42F0008782E0008140F000811
:10151000BC1D0008500A00084000000050060008EA
:10152000BC1D0008500A00083000000050060008EA
:10153000BC1D0008B811000828110008BC1D0008D7
:10154000000F0008041E000850060008BC1D00081B
:10155000D80E0008041E00083C06000814180008F5
:10156000C1A7FFFFE41400089D0800088C040008D0
:101570009C290008F0080008D93F00086012000804
:10158000DC1B0008181F0008B008000886455850EA
:101590004543D4FF601500089D0800087026000828
:1015A000981B000880280008981B00087026000877
:1015B0009C2E0008A80A0008403000084C0B0008C8
:1015C000281C0008F008000809000000D0280008C6
:1015D000500A00080C000000DC1B0008A40E0008E4
:1015E000281C00089C010008D0280008981B00084F
:1015F000F00800087F000000D0280008082B000831
:10160000500A000850000000DC1B0008281C0008DD
:10161000A81A00084C260008D0280008281C00083A
:101620002C1B000820270008A82800088028000894
:10163000701B0008500A0008100000008801000814
:10164000380A000860000000A4010008380A0008F9
:1016500054000000281C0008F00800080D000000DD
:10166000D0280008500A00081C0000000C1B0008CD
:10167000DC1B0008A40E000800270008380A000838
:1016800008000000281C0008A81A0008281E0008EE
:1016900000270008A81A000870260008281E000865
:1016A000F82F0008700A000810FFFFFF782E0008CE
:1016B00070260008F8160008FC1B00084C260008DD
:1016C000281E0008B008000885434F554ED4FFFF80
:1016D0008C1500089D080008281C000870260008CA
:1016E000FC1B0008E01D0008B008000884244C45DD
:1016F000CEFFFFFFC8160008FD1600083A684040FC
:10170000115C094301D0401CFAE747F8040D55F875
:10171000042B22F0030252F8043B184786464F522E
:101720004745D4FFEC1600089D080008681500081E
:10173000281C0008F008000800000208142900080E
:10174000F00800084A3F000860120008281C000842
:10175000F00800080000100814290008F00800082C
:10176000673F000860120008281C000828110008C4
:10177000701B000810110008B8110008281100089B
:10178000281C0008BC1D0008000F0008041E0008EB
:10179000281C0008B8260008BC1D0008F008000836
:1017A000C9080008D0280008500A000814000000EA
:1017B000F0080008FCFFFFFFB40E0008941D0008AD
:1017C000501B0008D0280008500A0008A8FFFFFF9F
:1017D0002C1B0008BC1D0008000F0008041E000898
:1017E00070110008D80E0008041E00080C3A00080A
:1017F000DC390008B0080008834259C51C170008EE
:1018000005180008FFF76EBA8541424F52D4FFFF1A
:10181000F81700089D080008740C0008900C0008D8
:10182000D0010008F0080008FC3E00081011000874
:10183000AC090008500A000810000000DC1B00087A
:101840004C110008500E0008F00800083801001084
:10185000BC1D0008500A00086C000000F0080008D9
:10186000C8180008F8160008A42F000878300008EF
:10187000500A0008F8FFFFFF40300008F008000899
:1018800043000000D0280008500A0008E0FFFFFFD6
:1018900040300008F00800084F000000D028000881
:1018A000500A0008C8FFFFFF40300008F008000899
:1018B0000D000000D0280008500A0008B0FFFFFF0C
:1018C000D4300008B0050008204572726F722048BD
:1018D000616C74202845484F4E2F45484F46462995
:1018E000202D20546F20434F6E74696E756520540F
:1018F00079706520434F207468656E20456E74656D
:10190000723A200084434F4CC4FFFFFF08180008C0
:101910009D080008C806000888060008B0050008F1
:10192000900D0A464953482053797374656D3A0DFA
:101930008AFFFFFF04190008832E53C820190008EE
:101940009D080008F008000810000000E4010008ED
:10195000B0080008832E53C4381900089D080008F9
:10196000F00800080A000000E4010008B0080008C0
:10197000832E53C2541900089D0800082027000830
:10198000E4010008B0080008822ED3FF7019000897
:101990009D080008DC020008BC1D0008C81A0008E9
:1019A000B8260008D02800089C290008500A000822
:1019B00068000000BC03000805544F533E20FFFFA1
:1019C000DC020008BC1D0008C81A0008B826000880
:1019D000A80A0008A81A0008BC1D0008EC0E0008A0
:1019E000BC1D0008F00800080A000000D02800080C
:1019F000500A00081000000068020008380A0008B9
:101A00000800000080020008002F0008402700089E
:101A10009C0A0008C0FFFFFFB0080008843244554C
:101A2000D0FFFFFF881900082D1A000838687A686F
:101A300047F8042D47F8040D55F8042B22F0030253
:101A400052F8043B18470000842D4455D0FFFFFF97
:101A50001C1A00089D080008281C0008500A0008ED
:101A600008000000281C0008B008000883524FD46A
:101A7000481A0008791A000857F8042B57F8041B75
:101A800057F8040B47F8041D47F8042D47F8040DD8
:101A900055F8042B22F0030252F8043B18470000CB
:101AA00081C9FFFF6C1A0008AD1A0008306847F8BA
:101AB000040D55F8042B22F0030252F8043B18479A
:101AC000835350C0A01A0008CD1A0008384647F8C2
:101AD000040D55F8042B22F0030252F8043B18477A
:101AE000835250C0C01A0008ED1A0008304647F86B
:101AF000040D55F8042B22F0030252F8043B18475A
:101B0000854C454156C5FFFFE01A0008111B00082F
:101B10003268726055F8042B22F0030252F8043B3D
:101B2000184700008252BEFF001B0008311B00084E
:101B300056F8040B47F8040D55F8042B22F0030265
:101B400052F8043B1847000081D2FFFF241B000815
:101B5000551B0008306847F8040D55F8042B22F097
:101B6000030252F8043B1847823ED2FF481B00088C
:101B7000751B000857F8041B46F8041D55F8042B84
:101B800022F0030252F8043B18470000844F5645E8
:101B9000D2FFFFFF681B00089D1B000847F8042DBB
:101BA00047F8040D55F8042B22F0030252F8043BC9
:101BB000184757F8040B47F8040D47F8042D47F869
:101BC000040D55F8042B22F0030252F8043B184789
:101BD0008444524FD0FFFFFF8C1B0008E11B00081C
:101BE0003F1D55F8042B22F0030252F8043B18471E
:101BF00084535741D0FFFFFFD01B0008011C000891
:101C000057F8042B57F8040B47F8042D47F8040D38
:101C100055F8042B22F0030252F8043B1847000049
:101C2000834455D0F01B00082D1C0008386847F885
:101C3000040D55F8042B22F0030252F8043B184718
:101C4000900D0A537461636B2053747566663A0D88
:101C50008AFFFFFF201C000887414E44424954D3AD
:101C6000401C0008691C000857F8042B57F8041B97
:101C700008681040086055F8042B22F0030252F85F
:101C8000043B184787534554424954D3581C000815
:101C9000951C000857F8042B57F8041B08681043DC
:101CA000086055F8042B22F0030252F8043B184751
:101CB00087434C52424954D3841C0008C11C00087D
:101CC00057F8042B57F8041B08689043086055F830
:101CD000042B22F0030252F8043B184785434D4F72
:101CE00056C5FFFFB01C0008ED1C000857F8041B88
:101CF00057F8042B57F8043B002907D018781070C8
:101D0000491E002902D0521C5B1CF7D155F8042B48
:101D100022F0030252F8043B184700008446494C65
:101D2000CCFFFFFFDC1C00082D1D000857F8040B3A
:101D300057F8041B57F8042B002904D08B18107097
:101D4000521C9A42FBD155F8042B22F0030252F8A0
:101D5000043B18478545524153C5FFFF1C1D000831
:101D60009D08000800270008281D0008B00800088A
:101D700086424C414E4BD3FF541D00089D0800087D
:101D8000A40E0008281D0008B0080008822BA1FF3F
:101D9000701D0008991D000857F8041B57F8040B24
:101DA0000A688018086055F8042B22F0030252F8E4
:101DB000043B184781C0FFFF8C1D0008C11D0008AF
:101DC00057F8041B086847F8040D55F8042B22F057
:101DD000030252F8043B18478243C0FFB41D0008B9
:101DE000E51D000857F8041B087847F8040D55F85E
:101DF000042B22F0030252F8043B184781A1FFFF95
:101E0000D81D0008091E000857F8040B57F8041BDA
:101E1000016055F8042B22F0030252F8043B1847E6
:101E20008243A1FFFC1D00082D1E000857F8040B7B
:101E300057F8041B017055F8042B22F0030252F8E6
:101E4000043B18479F0D0A5265616420616E64204F
:101E50005772697465204D656D6F7279205769748A
:101E6000683A0D8A201E000881DDFFFF441E00082D
:101E70009D08000810070008C000000010010010B5
:101E8000B0080008C1DBFFFF681E00089D080008BD
:101E9000100700080000000010010010B008000842
:101EA000C95B434F4D50494C45DDFFFF841E000880
:101EB0009D0800088C0400089C290008F008000810
:101EC000FF3F000860120008DC1B00084C110008EE
:101ED00048100008B0080008C8444C495445524115
:101EE000CCFFFFFFA01E00089D080008140F00088B
:101EF000BC1D0008500A000810000000FC1B000870
:101F0000181F0008181F0008B0080008C74C4954E3
:101F1000455241CCD81E00089D080008140F000847
:101F2000BC1D0008500A000810000000A8040008AA
:101F3000F008000848100008B00800088223BEFF1F
:101F40000C1F00089D080008DC1B0008DC1B0008B3
:101F5000F4020008BC1D0008440F0008981B00088C
:101F6000A8280008B008000884484F4CC4FFFFFFB1
:101F70003C1F00089D080008F0080008FFFFFFFF55
:101F8000F4020008941D0008F4020008BC1D0008BB
:101F9000281E0008B008000884534947CEFFFFFF01
:101FA000681F00089D080008741A0008C829000866
:101FB000500A000810000000F00800082D00000082
:101FC000741F0008B00800088223D3FF981F000880
:101FD0009D080008FC1F0008981B0008981B0008BB
:101FE000082B00089C290008500A0008E8FFFFFFA2
:101FF000B008000881A3FFFFC81F00089D08000863
:10200000EC0E0008BC1D0008C8040008741A000883
:10201000F008000809000000981B000814290008B7
:10202000500A000810000000F00800080700000037
:1020300080280008F0080008300000008028000810
:10204000741F0008B0080008823CA3FFF41F0008BA
:102050009D0800081007000810FA00204401001035
:10206000B008000885444F4553BEFFFF48200008D4
:102070009D0800082C1B000810110008B81100086A
:10208000281C00084C110008F00800083F0900084F
:10209000FC1B0008041E0008041E0008B00800080D
:1020A000873C4255494C44D3642000089D080008F1
:1020B000EC220008B0080008C52B4C4F4FD0FFFFA2
:1020C000A02000089D080008302700087C030008B5
:1020D000A80400089C0A000828060008B0080008A8
:1020E000C44C4F4FD0FFFFFFB82000089D080008E8
:1020F000302700087C030008A8040008700A0008C4
:1021000028060008B0080008C244CFFFE0200008FD
:102110009D080008A8040008A80A0008680F000825
:1021200030270008B0080008C5454E4449C6FFFFE7
:10213000082100089D080008400300082027000827
:102140007C030008680F0008981B0008A8280008F6
:10215000FC1B0008041E0008B0080008C4544845D1
:10216000CEFFFFFF282100089D0800083421000849
:10217000B0080008C4454C53C5FFFFFF5C210008B0
:102180009D080008202700087C030008A804000818
:10219000380A0008680F00080027000848100008E7
:1021A000FC1B000820270008342100082027000815
:1021B000B0080008C249C6FF742100089D08000845
:1021C000A8040008500A0008680F0008002700084B
:1021D0004810000820270008B0080008C5554E54D4
:1021E00049CCFFFFB42100089D0800081027000813
:1021F0007C030008A8040008500A0008280600080C
:10220000B0080008C541474149CEFFFFDC21000866
:102210009D080008102700087C030008A804000897
:10222000380A000828060008B0080008C6524550C1
:102230004541D4FF042200089D080008701B0008D7
:10224000701B0008102200082C1B00082C1B000823
:1022500020270008A828000834210008B00800083A
:10226000C55748494CC5FFFF2C2200089D080008AF
:10227000BC21000894260008B0080008C542454764
:1022800049CEFFFF602200089D08000840030008B7
:10229000680F000810270008B0080008970D0A49C9
:1022A0006E7369646520436F6C6F6E20574F5244A4
:1022B000533A0D8A7C22000889494D4D45444941D5
:1022C00054C5FFFF9C2200089D080008101100085B
:1022D000F0080008400000002C0B0008B0080008BF
:1022E000864352454154C5FFB82200089D080008A6
:1022F0005C090008F00800080F000000A82800088A
:10230000C8290008500A000808000000FC02000864
:102310008C040008500A000824000000DC1B0008A0
:1023200070110008182F0008F0080008C33F0008CB
:10233000F8160008A42F000814180008680F0008F9
:10234000281C000850060008041E0008281C00086D
:10235000E01D0008F00800081F000000902A000897
:1023600014030008281C0008F00800088000000082
:102370002C0B0008680F0008F0080008800000001F
:102380002C0B000810270008D80E0008941D000828
:102390001011000848100008000F0008041E000873
:1023A000A8040008DD080008680F0008B826000827
:1023B00048100008B008000888434F4E5354414E5F
:1023C000D4FFFFFFE02200089D080008DC2300087E
:1023D000B008000883434FCEB82300089D080008CA
:1023E000EC220008F0080008FCFFFFFFD80E0008F0
:1023F000941D0008481000083C060008B0080008BA
:10240000885641524941424CC5FFFFFFD423000882
:102410009D08000824240008B0080008835641D213
:10242000002400089D080008EC220008F0080008BD
:10243000F8FFFFFFD80E0008941D0008A80400084C
:10244000C908000810270008AC1000084810000850
:102450003C060008B0080008C1BBFFFF1C240008B0
:102460009D08000808050008A8040008B008000836
:102470008C1E00083C060008B0080008C1BAFFFF27
:10248000582400089D08000860030008F4040008B0
:10249000EC220008701E0008F0080008F8FFFFFF9B
:1024A000D80E0008941D0008A80400089D08000824
:1024B000B0080008960D0A43524541544520574F35
:1024C00052445320576974683A0D8AFF7C240008EF
:1024D00084444142D3FFFFFFB42400089D08000854
:1024E000281C000870060008B008000887444E4504
:1024F000474154C5D0240008FD24000857F8040BB8
:1025000057F8042BC043D243521C47F8042D47F818
:10251000040D55F8042B22F0030252F8043B18472F
:10252000834450CCEC240008DD0800084001001072
:1025300083442ED2202500089D080008701B000847
:10254000FC1B0008981B0008DC2400085020000831
:10255000D01F0008A41F0008441F00082C1B0008FF
:10256000981B0008A8280008C42E0008A42F000803
:10257000B00800088244AEFF302500089D0800081E
:102580000027000838250008002F0008B0080008C0
:102590008244ABFF742500089D25000857F8040B02
:1025A00057F8041B57F8043B57F8042B52185841AE
:1025B00047F8042D47F8040D55F8042B22F00302C8
:1025C00052F8043B1847000084532D3EC4FFFFFF20
:1025D00090250008D925000857F8042B40401243E5
:1025E00000D5401E47F8042D47F8040D55F8042B7C
:1025F00022F0030252F8043B184700008232AAFF7F
:10260000C82500080926000857F8040B400047F8C1
:10261000040D55F8042B22F0030252F8043B18472E
:102620008232AFFFFC2500082D26000857F8040B66
:10263000401047F8040D55F8042B22F0030252F81D
:10264000043B18478231ADFF2026000851260008C0
:1026500057F8040B401E47F8040D55F8042B22F0E0
:10266000030252F8043B18478231ABFF44260008AE
:102670007526000857F8040B401C47F8040D55F860
:10268000042B22F0030252F8043B18478232ABFFBE
:10269000682600089926000857F8040B801C47F8A4
:1026A000040D55F8042B22F0030252F8043B18479E
:1026B0008234ABFF8C260008BD26000857F8040BB7
:1026C000001D47F8040D55F8042B22F0030252F8C0
:1026D000043B18478234ADFFB0260008E12600080D
:1026E00057F8040B001F47F8040D55F8042B22F08F
:1026F000030252F8043B184781B0FFFFD4260008BC
:10270000DD0800080000000081B1FFFFF826000886
:10271000DD0800080100000081B2FFFF0827000863
:10272000DD0800080200000081B3FFFF1827000841
:10273000DD0800080300000081B4FFFF282700081F
:10274000DD08000804000000824DAAFF38270008B9
:102750009D080008281A0008542B0008701B000868
:10276000782A0008FC1B0008782A0008F40B0008EF
:102770002C1B000870060008B0080008824DAFFF4F
:10278000482700089D080008981B0008701B0008D7
:10279000701B0008DC240008501B0008782A000881
:1027A0001C0C00082C1B0008501B0008542B0008B0
:1027B00058060008FC1B00082C1B000858060008DF
:1027C000FC1B0008B008000881AAFFFF7C27000856
:1027D0009D08000850270008DC1B0008B00800080E
:1027E000842F4D4FC4FFFFFFC82700089D08000835
:1027F000701B0008D42500082C1B00088427000843
:10280000B008000881AFFFFFE02700089D0800081E
:10281000EC270008FC1B0008DC1B0008B0080008BF
:10282000834D4FC4042800089D080008EC270008C9
:10283000DC1B0008B0080008852A2F4D4FC4FFFF9D
:10284000202800089D080008701B00085027000879
:102850002C1B000884270008B0080008822AAFFF5C
:10286000382800089D08000844280008FC1B0008C0
:10287000DC1B0008B008000881ABFFFF5C280008E3
:102880008528000857F8040B57F8041B401847F830
:10289000040D55F8042B22F0030252F8043B1847AC
:1028A00081ADFFFF78280008AD28000857F8040B19
:1028B00057F8041B081A47F8040D55F8042B22F0AA
:1028C000030252F8043B184781BDFFFFA02800080F
:1028D000D5280008404057F8040B57F8041B401A4D
:1028E00009D0404047F8040D55F8042B22F00302AC
:1028F00052F8043B1847013847F8040D55F8042BEB
:1029000022F0030252F8043B1847000081BCFFFF8D
:10291000C8280008192900084040013857F8041B4E
:1029200057F8042B914200DC404047F8040D55F85D
:10293000042B22F0030252F8043B18478255BCFFD7
:102940000C2900089D080008281A0008542B0008CC
:10295000C8290008500A000818000000DC1B000805
:10296000C82900089C290008380A00080C0000004B
:10297000A8280008C8290008B008000881BEFFFF89
:102980003C2900089D080008FC1B000814290008C9
:10299000B00800088230BDFF7C290008A12900088A
:1029A000404057F8041B002900D1401E47F8040D91
:1029B00055F8042B22F0030252F8043B184700009C
:1029C0008230BCFF94290008CD29000857F8041B69
:1029D00040400138094300D4404047F8040D55F801
:1029E000042B22F0030252F8043B1847834249CEDD
:1029F000C02900089D080008100700080200000018
:102A000004010010B0080008834845D8EC290008EC
:102A10009D080008100700081000000004010010C5
:102A2000B008000887444543494D41CC082A0008B6
:102A30009D080008100700080A00000004010010AB
:102A4000B0080008864E45474154C5FF242A0008B7
:102A5000552A000857F8040BC043401C47F8040DE2
:102A600055F8042B22F0030252F8043B18470000EB
:102A7000834142D3442A00089D080008281C00080E
:102A800058060008B0080008834D49CE702A000897
:102A90009D080008281A000884290008500A000828
:102AA00008000000FC1B0008DC1B0008B008000840
:102AB000834D41D8882A00089D080008281A00087C
:102AC00014290008500A000808000000FC1B000838
:102AD000DC1B0008B008000883414EC4B02A00087F
:102AE000E52A000857F8040B57F8041B084047F87C
:102AF000040D55F8042B22F0030252F8043B18474A
:102B0000824FD2FFD82A00080D2B000857F8040B7B
:102B100057F8041B084347F8040D55F8042B22F01E
:102B2000030252F8043B1847834E4FD4002B000891
:102B3000352B000857F8040BC04347F8040D55F82F
:102B4000042B22F0030252F8043B184783584FD25B
:102B5000282B0008592B000857F8040B57F8041BC2
:102B6000484047F8040D55F8042B22F0030252F8B0
:102B7000043B184784535854C8FFFFFF4C2B0008F0
:102B8000852B000857F8040B00B247F8040D55F8E0
:102B9000042B22F0030252F8043B18478453585484
:102BA000C2FFFFFF742B0008AD2B000857F8040B81
:102BB00040B247F8040D55F8042B22F0030252F8F6
:102BC000043B184784524556D7FFFFFF9C2B000853
:102BD000D52B000857F8040B00BA47F8040D55F838
:102BE000042B22F0030252F8043B1847834153D2CE
:102BF000C42B0008F92B000857F8042B57F8040BD6
:102C0000104147F8040D55F8042B22F0030252F846
:102C1000043B1847834C53D2EC2B0008212C0008AE
:102C200057F8042B57F8040BD04047F8040D55F81B
:102C3000042B22F0030252F8043B1847834C53CC78
:102C4000142C0008492C000857F8042B57F8040BE3
:102C5000904047F8040D55F8042B22F0030252F877
:102C6000043B1847822ED2FF3C2C00089D08000828
:102C7000701B0008D42500082C1B0008382500080C
:102C8000B0080008832E52D5642C00089D08000867
:102C9000701B00080027000850200008D01F000803
:102CA000441F0008281C00082C1B0008FC1B0008FF
:102CB000A8280008C42E0008A42F0008B0080008A7
:102CC0008255AEFF842C00089D08000800270008EC
:102CD0007C250008B008000881BFFFFFC02C000859
:102CE0009D080008BC1D0008F82C0008B00800086A
:102CF00081AEFFFFD82C00089D080008D4250008ED
:102D00007C250008B0080008822EC2FFF02C0008C5
:102D10009D0800082027000898020008B008000855
:102D2000822EC8FF082D00089D080008F008000842
:102D30001000000098020008B0080008822EC4FFAE
:102D4000202D00089D080008F00800080A00000077
:102D500098020008B0080008910D0A4E554D4245F2
:102D6000522053747566663A0D8AFFFF3C2D0008A9
:102D70008A55415254335F494E49D4FF582D0008BB
:102D80009D080008F008000800020120BC1D000892
:102D90009C290008500A00081C000000F0080008E8
:102DA00004020120BC1D0008701B0008380A00083E
:102DB00010000000F008000880250000701B0008CB
:102DC000F008000880DE80022C1B00080C28000898
:102DD000F008000808480040041E0008B008000879
:102DE000864D59424155C4FF702D00089D080008CA
:102DF000100700080000000000020120F008000891
:102E000004020120041E0008B00800088955415240
:102E100054335F4C53D2FFFFE02D0008212E0008F1
:102E20000549087847F8040D55F8042B22F00302F1
:102E300052F8043B184700000048004088554152B2
:102E400054335F52D8FFFFFF0C2E0008DD08000846
:102E5000044800408855415254335F54D8FFFFFF67
:102E60003C2E0008DD0800080448004084584F4606
:102E7000C6FFFFFF542E00087D2E0008FDF7F6FF69
:102E8000FDF7FCFF55F8042B22F0030252F8043B37
:102E90001847000083584FCE6C2E0008A12E000862
:102EA000FDF7E4FFFDF7F2FF55F8042B22F00302D3
:102EB00052F8043B18470000865350414345D3FF66
:102EC000942E00089D08000800270008B82A000872
:102ED000541A0008500A00081800000000270008D3
:102EE000A80A0008002F0008700A0008F8FFFFFF7A
:102EF000B00800088553504143C5FFFFB82E0008B5
:102F00009D080008A40E0008F82F0008B00800086B
:102F1000834944AEF42E00089D080008D41600082A
:102F2000F00800081F000000E02A0008A42F000895
:102F3000002F0008B0080008C22EA2FF102F0008C2
:102F40009D080008F008000822000000140F000887
:102F5000BC1D0008500A00082C000000A80400084E
:102F6000BC03000878130008680F0008E01D000883
:102F700070260008BC0F000814030008380A000877
:102F80001400000078130008680F0008D416000829
:102F9000A42F0008B008000884545950C5FFFFFF53
:102FA000382F00089D080008541A0008500A00082D
:102FB00034000000782E0008981B000880280008C4
:102FC000FC1B0008A80A0008A81A0008CC0A000880
:102FD000F82F0008700A0008F0FFFFFF380A000809
:102FE00008000000DC1B0008B008000884454D49BB
:102FF000D4FFFFFF982F0008FD2F000857F8040B9F
:10300000FDF734FF0649087006490868401C08604F
:1030100055F8042B22F0030252F8043B1847000035
:10302000044800400C010010834B45D9EC2F0008E8
:103030009D0800089C2E000840300008B0080008D9
:1030400045300008074A084B19688909FCD3106805
:1030500047F8040D55F8042B22F0030252F8043B04
:10306000184700000448004000480040843F4B459A
:10307000D9FFFFFF283000087D300008FDF7F6FE7D
:10308000FDF704FF4040074B1968890900D3013858
:1030900047F8040D55F8042B22F0030252F8043BC4
:1030A0001847000000480040834352D36C300008AA
:1030B0009D08000800270008A80A0008D43000086E
:1030C000700A0008F8FFFFFFB00800088243D2FF33
:1030D000A83000089D080008D0010008BC030008C3
:1030E000020D0AFFB00800088C0D0A46495348201B
:1030F000494F3A0D8AFFFFFFCC3000088B495251EF
:10310000535F524553554DC5E83000081131000852
:1031100001F018F955F8042B22F0030252F8043B91
:10312000184700008C495251535F53555350454E38
:10313000C4FFFFFFFC3000083D31000801F000F93A
:1031400055F8042B22F0030252F8043B1847000004
:103150008F5359535449434B5F4952515F4F46C6B1
:10316000243100086931000804490520086055F839
:10317000042B22F0030252F8043B184710E000E051
:103180008E5359535449434B5F4952515F4FCEFFC1
:10319000503100089931000804490720086055F8AB
:1031A000042B22F0030252F8043B184710E000E021
:1031B0008F0D0A494E54455252555054533A0D8A78
:1031C000803100088A464C4153485F534156C5FF41
:1031D000B03100089D08000810110008EC3A000802
:1031E00014290008500A000820000000D43000080C
:1031F000BC0300080F4E4F5448494E4720544F20FF
:1032000053415645B0080008D4320008BC1D0008E0
:10321000F008000800001008D0280008500A000834
:1032200028000000D4300008BC030008144C4153AF
:103230005420464C41534820415641494C20555357
:103240004544FFFFB0080008EC0F0008B40E00086A
:10325000BC1D0008E4320008041E0008101100081C
:10326000EC320008DC320008041E000810110008CF
:10327000EC3A0008D0280008500A00084800000076
:1032800088370008EC3A0008D80E0008041E000831
:10329000E4320008BC1D0008B40E0008041E00083B
:1032A000DC320008BC1D0008000F0008041E0008E6
:1032B00098340008D43000080C3A0008DC390008C3
:1032C000B00800081011000818330008380A000878
:1032D0009CFFFFFFDD08000804000020DD08000857
:1032E00008000020DD0800080C000020F132000872
:1032F00057F8040B064A1040064A1268801847F82F
:10330000040D55F8042B22F0030252F8043B184731
:10331000FFFF0F00040000209D080008B8110008FE
:10332000281C0008701B00084C110008281C00080D
:10333000BC1D0008F00800083F090008D02800085C
:10334000500A000828000000B8260008281C0008C1
:10335000281C0008BC1D0008EC320008FC1B0008FB
:10336000041E0008380A000800010000281C00089C
:10337000BC1D0008F0080008DD080008D02800087F
:10338000981B0008BC1D0008F0080008C9080008C8
:10339000D0280008082B0008500A00081000000080
:1033A000DC1B0008380A0008C4000000B82600082A
:1033B000281C0008BC1D0008F0080008F0080008E0
:1033C000D0280008500A000810000000B8260008A5
:1033D000380A0008D8FFFFFF281C0008BC1D0008A1
:1033E000F0080008BC030008D0280008500A0008B4
:1033F00020000000281C0008B8260008E01D000876
:1034000080280008BC0F0008380A0008A0FFFFFF52
:10341000281C0008BC1D0008F0080008B0080008BF
:10342000D02800089C290008500A00083C00000031
:10343000281C0008BC1D0008EC3A0008842900087C
:10344000500A000868FFFFFF281C0008281C00081D
:10345000BC1D0008EC320008FC1B0008041E00081C
:10346000380A000848FFFFFFDC1B00082C1B00087F
:1034700028110008281C0008BC1D0008281C000892
:10348000000F0008041E0008EC320008FC1B0008B6
:10349000041E0008B00800089D080008F008000895
:1034A00000000208281C0008F008000804000020A2
:1034B000041E0008281C0008701B0008BC1D000822
:1034C000D43B0008A8280008500A0008100000009B
:1034D0002C1B0008DC1B0008B0080008501B00086B
:1034E000D4320008041E0008501B0008F008000831
:1034F0000800000080280008281C0008BC1D0008E7
:10350000000F0008041E0008B8260008BC1D0008B3
:10351000B40E0008041E0008D4300008BC030008E4
:1035200017414444454420574F5244532046524F7C
:103530004D204144445220FF501B0008282D000814
:103540002C1B0008B8260008BC1D0008380A00081B
:1035500054FFFFFF9D080008281C00088028000871
:10356000701B0008281C0008BC1D000870260008FD
:10357000500A000838000000D4300008BC030008DE
:10358000174552415345442042414420464C415343
:103590004820504147452020282D0008DC1B00080A
:1035A0002C1B0008DC1B0008B0080008B826000827
:1035B000281C0008281C0008501B0008FC1B0008E1
:1035C000A8280008500A00080C000000380A00086B
:1035D00098FFFFFFD4300008BC0300080E464C41A2
:1035E00053482050414745204F4B20FFA828000852
:1035F000282D00082C1B0008DC1B0008B008000860
:103600008C464C4153485F464F524745D4FFFFFF1D
:10361000C43100089D080008BC0300081754414B42
:1036200045532041424F55542036205345434F4E79
:1036300044532120383100080C390008EC380008C8
:10364000100700082A020100103C0240EC38000874
:103650001007000832020100103C0240EC3800085C
:10366000100700083A020100103C0240EC38000844
:103670001007000842020100103C0240EC3800082C
:10368000100700084A020100103C0240EC38000814
:103690001007000852020100103C0240EC380008FC
:1036A000100700085A020100103C0240EC380008E4
:1036B0002C3900080C310008003B000810110008EC
:1036C00084290008500A000810000000743E000819
:1036D000380A00081C000000F0080008DC3E000862
:1036E000EC3A0008B811000828110008041E000870
:1036F000100700080000020804000020F00800087D
:1037000011111111281C0008DC320008041E0008E9
:10371000E4320008041E000898340008D430000881
:103720000C3A0008DC390008B008000831370008FE
:1037300057F8040B57F8041B064A50F8044B42F89C
:10374000044B8842F9D155F8042B22F0030252F8B9
:10375000043B1847D0FE0020F0080008D0FE0020EF
:10376000500E0008B00800089D080008F008000886
:1037700040390008F0080008943800082C37000889
:1037800058370008B00800089D08000838310008C4
:103790000C390008EC38000810070008010200008E
:1037A000103C0240D4320008BC1D0008701B000809
:1037B000F008000810000000D4320008941D000832
:1037C000680F0008701B0008EC3A0008281C00086D
:1037D000BC1D0008D4320008BC1D0008041E0008EF
:1037E000EC38000840270008D4320008941D000877
:1037F000B8260008281C0008501B0008A82800084C
:10380000500A00080C000000380A0008C0FFFFFF43
:103810002C1B0008DC1B0008DC1B0008F00800085B
:1038200000000020BC1D0008501B0008041E0008FA
:10383000EC380008D4320008BC1D0008501B0008FA
:10384000B8260008041E0008EC380008DC32000826
:10385000BC1D0008501B00089C01000880280008BF
:10386000041E0008EC380008E4320008BC1D000803
:103870002C1B0008F00800080C000000802800083D
:10388000041E0008EC3800082C3900080C31000830
:10389000B00800089D0800081436000838310008F8
:1038A0000C390008EC38000810070008010200007D
:1038B000103C02401007000800000208040000202D
:1038C000F008000810000000D80E0008941D000841
:1038D000300E000888370008300E00081436000843
:1038E0002C3900080C310008B0080008F138000835
:1038F000054908680004FCD255F8042B22F00302A5
:1039000052F8043B184700000C3C02409D08000898
:103910001007000823016745043C02401007000817
:10392000AB89EFCD043C0240B00800089D080008B8
:103930001007000800000080103C0240B00800089A
:1039400084504F46C6FFFFFF003600089D08000860
:10395000100700080000000034010010B008000843
:1039600083504FCE403900089D080008100700081A
:10397000F50D000834010010B008000881D0FFFFE9
:1039800060390008DD080008340100108545484F03
:1039900046C6FFFF7C3900089D0800080027000884
:1039A000F008000838010010041E0008B0080008E4
:1039B0008445484FCEFFFFFF8C3900089D08000862
:1039C00010270008F008000838010010041E000845
:1039D000B0080008832E44D3B03900089D080008C1
:1039E0005C090008AC0C0008442D0008C80C000855
:1039F000F0080008183F0008F8160008A42F000877
:103A0000B0080008832E56D3D43900089D0800085A
:103A100084090008AC0C0008402700080C280008A6
:103A2000442D0008C80C0008F00800080D3F0008ED
:103A3000F8160008A42F0008B00800088444554D6B
:103A4000D0FFFFFF043A00089D080008981B0008FB
:103A500000120008AC0C0008102A0008002700081B
:103A6000A80A0008D4300008281C0008F008000844
:103A70000A0000008C2C00084027000800270008DE
:103A8000A80A0008281C0008BC1D0008F00800084F
:103A90000E0000008C2C0008B8260008700A0008F0
:103AA000E4FFFFFF78300008500A0008080000001B
:103AB0000C1B0008700A0008ACFFFFFFDC1B0008AD
:103AC000D4300008C80C0008B008000885564241F0
:103AD00053C5FFFF3C3A0008DD0800080400001051
:103AE0008544424153C5FFFFCC3A0008DD08000879
:103AF000100000208552424153C5FFFFE03A000804
:103B0000DD0800080000002083434CD3F43A00088D
:103B10009D080008BC030008041B5B324AFFFFFF3E
:103B2000BC030008041B5B3B48FFFFFFD4300008C8
:103B3000B0080008C1A8FFFF083B00089D08000866
:103B4000F008000829000000EC0A00089C29000881
:103B5000500A000834000000D4300008F0080008C3
:103B600010000000F82F0008E4030008F008000827
:103B700071FA0020E01D0008500A00081000000043
:103B8000380A0008BCFFFFFFB0080008F008000872
:103B90002A3F0008F8160008A42F0008B008000803
:103BA000C1DCFFFF343B00089D0800080027000827
:103BB000540F0008340F0008BC1D000880280008BE
:103BC000281E0008B008000886535953434CCBFF09
:103BD000A03B0008D93B00080549086847F8040DD8
:103BE00055F8042B22F0030252F8043B184700005A
:103BF000000000208553544354D2FFFFC83B000807
:103C0000DD080008000000108544454C41D9FFFF45
:103C1000F43B0008193C000857F8041B57F8040B44
:103C20000C4CC043401C20600B4A11600B4A1160D1
:103C3000002806D00A4A106807211160216800296F
:103C4000FCD1106055F8042B22F0030252F8043B1B
:103C5000184700000000001014E000E018E000E049
:103C600010E000E0824DD3FF083C00089D080008EA
:103C7000F00800083F900200143C0008B00800085B
:103C800087574F52444341D4643C00089D080008C4
:103C9000680F0008701B000800270008701000085B
:103CA000F00800080D00000070100008680F000800
:103CB000F00800080D00000078130008281C000818
:103CC000E01D0008F00800080A000000741A00084F
:103CD000281E0008281C000870260008840F000811
:103CE000F00800088400000080280008501B00082D
:103CF000281E0008F00800080D00000070100008E1
:103D0000F00800088A00000070100008EC0F00089E
:103D100010110008481000082C1B0008F0080008CB
:103D200030010010041E0008B008000885574F52EB
:103D300044D3FFFF803C00089D080008302700089E
:103D4000C42E000810110008782E00080027000873
:103D5000981B000870260008E01D0008F008000805
:103D60000D000000D02800089C290008500A000817
:103D70001C000000DC1B0008281C0008B81100080B
:103D800028110008981B0008A8280008240F000824
:103D9000BC1D000880280008F00800084A00000048
:103DA00084290008500A000810000000D4300008E0
:103DB00030270008C42E0008281C0008C80E000880
:103DC000BC1D000814290008500A00080C0000005F
:103DD000380A000854000000281C0008182F0008AA
:103DE00020270008C42E0008281C000870260008A0
:103DF000E01D0008F00800080D000000D0280008B1
:103E0000500A000808000000D0010008B81100089E
:103E100028110008BC1D0008281C00089C29000867
:103E2000500A000828FFFFFFDC1B0008D430000800
:103E3000B0080008874D59574F5244D32C3D000815
:103E40009D08000810070008000002082C0100105F
:103E5000383D000810070008000000002C01001089
:103E6000B008000889464953485F4F4E4CD9FFFFC0
:103E7000343E0008793E000809490A4C21600A4C8A
:103E800021600A490A4C21600A4C21600A490B4C06
:103E9000216055F8042B22F0030252F8043B184726
:103EA000DC3E000830010010080000200400001073
:103EB000200100100C000020100000202401001040
:103EC00084464953C8FFFFFF643E00089D08000870
:103ED0009834000888060008B0080008990D0A46C2
:103EE000495348205265666572656E6365204D6F63
:103EF00064656C3A0D8AFFFFC03E00080352554EC0
:103F00002000203F2000203C43523E2000564152DA
:103F10002043454C4C53200044494354494F4E41A3
:103F20005259204259544553200020434F4D4D458E
:103F30004E54204C494E452043414E4E4F54204252
:103F40004520454D5054592015002043414E5420E2
:103F5000464F52474554204649534820494E204633
:103F60004C41534820150020494E20464C415348AF
:103F7000202D2053454520464C4153485F464F5223
:103F80004745542015002044494354494F4E41525F
:103F9000592046554C4C202D20534545202E445346
:103FA0002015002052414D2056415220535041438C
:103FB000452046554C4C202D20534545202E565328
:103FC00020150020495320414C524541445920447A
:103FD0004546494E4544201500203F204E4F542071
:103FE000574F5244201500203F204E4F5420574F2A
:103FF0005244204F52204E554D424552201500202C
:10400000434155534544204120535441434B20459F
:1040100052524F5220150020535441434B204552D9
:10402000524F52205748494C452045584543555416
:10403000494E47204F5220434F4D50494C494E471F
:10404000201500204552524F52202D204E4F542013
:10405000434F4D50494C494E472015002045525280
:104060004F52202D2045584543555445442057482C
:10407000494C4520434F4D50494C494E472015006F
:104080009D0800081007000805070000003C0240DA
:10409000B00800089940000840F20004C2F2010490
:1040A0004FF000034FF0800C53F8042B44F8042B1E
:1040B000BCF1010CF8D155F8042B22F0030252F8A0
:1040C000043B18479D0800089440000810070008AA
:1040D0000000012008ED00E0280700080038024039
:1040E000440700080100000084070008003802406F
:1040F00010070008000000000838024028070008E8
:104100000038024064070008FFFFF6FE840700083D
:104110000038024010070008103000240438024024
:10412000280700080038024064070008FFFFFBFF73
:104130008407000800380240100700080000000053
:104140000C380240280700080038024044070008E5
:104150000000010084070008003802400008000841
:104160002807000800380240640700080000020029
:1041700018080008280700084038024044070008D3
:10418000000000108407000840380240280700089B
:104190000070004044070008004000008407000849
:1041A00000700040F008000808380240F0080008DD
:1041B00000000000901C0008F008000808380240C9
:1041C000F008000800800000901C0008F0080008BB
:1041D00008380240F008000800140000901C000895
:1041E0001007000808544007043802402807000858
:1041F000003802404407000800000001840700085E
:104200000038024000080008280700080038024073
:104210006407000800000002180800088040000839
:10422000280700080838024064070008FCFFFFFF69
:1042300084070008083802402807000808380240B0
:104240004407000802000000840700080838024004
:104250000008000828070008083802406407000822
:104260000C000000F008000808000000D02800083A
:104270001808000810070008003000508438024079
:104280002807000800380240440700080000000426
:1042900084070008003802400008000828070008CA
:1042A00000380240640700080000000818080008F1
:1042B00010070008007A030A00000020F008000838
:1042C00030380240F008000887000000901C000809
:1042D000F008000840380240F00800080000040020
:1042E000901C000810070008007700002408024016
:1042F000D0070008000802400300F0000100A00001
:10430000100700080C2000000C48004010070008AF
:104310000700000010E000E0B0080008BFF34F8F76
:104320000548016811F4E061044801430248016056
:10433000BFF34F8FFEE700000CED00E00400FA052C
:1043400072B6704762B6704780B5FFF7E7FF01BDF0
:104350004EF68851CEF20001086840F47000086003
:10436000BFF34F8FBFF36F8F4FF00070E1EE100A75
:1043700070470000FCF7B6BCFFF7FEBFFFF7FEBFBB
:10438000FFF7FEBFFFF7FEBFFFF7FEBFFFF7FEBF61
:10439000FFF7FEBFFCF7DEBCFFF7FEBFFFF7FEBF77
:1043A000FFF7FEBFFFF7FEBFFFF7FEBFFFF7FEBF41
:1043B000FFF7FEBFFFF7FEBFFFF7FEBFFFF7FEBF31
:1043C000FFF7FEBFFFF7FEBFFFF7FEBFFFF7FEBF21
:1043D000FFF7FEBFFFF7FEBFFFF7FEBFFFF7FEBF11
:1043E000FFF7FEBFFFF7FEBFFFF7FEBFFFF7FEBF01
:1043F000FFF7FEBFFFF7FEBFFFF7FEBFFFF7FEBFF1
:10440000FFF7FEBFFFF7FEBFFFF7FEBFFFF7FEBFE0
:10441000FFF7FEBFFFF7FEBFFFF7FEBFFFF7FEBFD0
:10442000FFF7FEBFFFF7FEBFFFF7FEBFFFF7FEBFC0
:10443000FFF7FEBFFFF7FEBFFFF7FEBFFFF7FEBFB0
:10444000FFF7FEBFFFF7FEBFFFF7FEBFFFF7FEBFA0
:10445000FFF7FEBFFFF7FEBFFFF7FEBFFFF7FEBF90
:10446000FFF7FEBFFFF7FEBFFFF7FEBFFFF7FEBF80
:10447000FFF7FEBFFFF7FEBFFFF7FEBFFFF7FEBF70
:10448000FFF7FEBFFFF7FEBFFFF7FEBFFFF7FEBF60
:10449000FFF7FEBFFFF7FEBFFFF7FEBFFFF7FEBF50
:1044A000FFF7FEBFFFF7FEBFFFF7FEBFFFF7FEBF40
:1044B000FFF7FEBFFFF7FEBFFFF7FEBFFFF7FEBF30
:1044C000FFF7FEBFFFF7FEBFFFF7FEBFFFF7FEBF20
:1044D000FFF7FEBFFFF7FEBFFFF7FEBFFFF7FEBF10
:0400000500000000F7
:00000001FF
