:020000040800F2
:1000000000000220B9430008BD4300088D430008EA
:10001000C1430008C5430008C943000800000000B0
:10002000000000000000000000000000CD430008B8
:10003000D143000800000000D5430008D943000860
:10004000DD430008E1430008E5430008E9430008F8
:10005000ED430008F1430008F5430008F9430008A8
:10006000FD43000801440008054400080944000855
:100070000D44000811440008154400081944000804
:100080001D440008214400082544000829440008B4
:100090002D44000831440008354400083944000864
:1000A0003D44000841440008454400084944000814
:1000B0004D440008514400085544000859440008C4
:1000C0005D44000861440008654400086944000874
:1000D0006D44000871440008754400087944000824
:1000E0007D440008814400088544000889440008D4
:1000F0008D44000891440008954400089944000884
:100100009D440008A1440008A5440008A944000833
:10011000AD440008B1440008B5440008B9440008E3
:10012000BD440008C1440008C5440008C944000893
:10013000CD440008D1440008D5440008D944000843
:10014000DD440008E1440008E5440008E9440008F3
:10015000ED440008F1440008F5440008F9440008A3
:10016000FD44000801450008054500080945000850
:100170000D450008114500081545000819450008FF
:100180001D45000821450008DD0800083009000869
:10019000070000003C300008F00800081D090008B6
:1001A00008000000DD0800089C0100083C30000841
:1001B000442F00089C0100083C3000086C1C00081B
:1001C000740F0008001E0008C42800084427000817
:1001D000401C00086C1E000830090008FCFFFFFFEF
:1001E000640F0008D81D000830090008FFFFFFFF5A
:1001F000740F0008D81D0008F0080008DD0800088A
:10020000500700080000000008010010F008000876
:10021000DD08000850070008000000000C01001075
:10022000F0080008DD080008EC0C00082C0F00089E
:10023000481E0008E4190008080D0008F00800082E
:10024000DD0800082C0F0008001E00086C1C0008C8
:100250006427000814290008900A0008180000000C
:1002600030090008620000003C300008201C000833
:10027000F0080008300900080A00000014290008EE
:10028000900A000814000000300900086400000013
:100290003C300008F0080008300900086800000041
:1002A0003C300008F0080008DD08000818260008A7
:1002B000442700087C25000840020008F0080008D8
:1002C000DD08000844270008442700087C250008B2
:1002D00040020008F0080008DD080008EC0C0008E7
:1002E0006C1C00082C0F0008481E0008300900088C
:1002F0000A00000014290008900A000810000000FD
:10030000A8020008780A000808000000C0020008DF
:10031000442F0008080D0008F00800081D09000817
:10032000140100101D090008180100101D09000823
:100330003C0100101D09000844010010DD08000800
:1003400030090008CA3F00084C170008E82F0008D1
:1003500068180008DD080008180F0008D81D0008FC
:10036000F0080008DD0800082C100008A80F00089D
:10037000481E00088427000854030008F0080008FD
:10038000DD080008540F0008001E0008E0290008DE
:100390003009000887400008A0120008F008000893
:1003A000DD080008540F0008001E0008300900088E
:1003B000A0400008A0120008F0080008DD080008AE
:1003C000EC280008300900085B400008A012000873
:1003D000F0080008DD0800081C1B00081C030008CA
:1003E000001E0008401C0008882900083009000889
:1003F00043400008A0120008F0080008DD080008CB
:10040000801B00086C1C000828170008E82F000853
:1004100028170008C4280008FC0F0008C41B0008A7
:10042000F0080008DD080008940F000830090008F3
:100430005E000000D8150008500700080100000009
:1004400008010010F0080008DD080008B4260008C4
:100450006C1C0008C41B0008241E00082C0F000898
:10046000001E0008D0120008900A00085800000082
:10047000401C00082C0F0008001E0008340C000867
:10048000201C0008C81A00082C0F0008001E0008D5
:10049000340C0008DC2500086C250008001E00084C
:1004A000B4260008900A0008100000005427000835
:1004B0006C250008D81D0008801B0008780A000879
:1004C0008CFFFFFF801B0008F0080008DD08000813
:1004D000E40E0008B8130008A80F00085011000827
:1004E000EC090008F0080008DD080008801B00087F
:1004F0006C1C0008FC260008C41B0008001E000835
:1005000064030008F0080008DD080008C41B0008A8
:1005100044270008A41B00085C0C0008801B00088E
:10052000401C0008C41B00085C0C0008801B00086D
:10053000F0080008DD0800081C1B00082C03000858
:10054000481E0008F0080008DD0800081C1B000811
:100550002C030008001E0008EC28000830090008E1
:1005600043400008A0120008F0080008DD08000859
:10057000CC040008900A00083C000000540F00085A
:10058000001E000858290008900A00081400000006
:100590008C11000864030008780A00080C000000B1
:1005A0008C110008900E0008D4030008780A000897
:1005B000C0FFFFFFA80F0008301400086C250008DA
:1005C000001E0008B4260008900A00081000000071
:1005D0002C1F0008780A00080C000000201C0008EE
:1005E0005C1F0008D4030008780A000884FFFFFF9E
:1005F000DD080008D01E0008B40C0008D00C00086C
:10060000240400086C050008540F0008001E0008B0
:10061000E0290008900A00083800000030090008AE
:1006200034010010001E0008900A00082400000099
:100630003009000834010010001E00084C170008A3
:10064000E82F00082C0F0008001E0008882D000865
:1006500030090008100000003C3000081831000884
:10066000780A000898FFFFFFDD080008A80F0008BF
:10067000EC28000888100008F0080008DD080008D1
:10068000500700080000000028010010F0080008D2
:100690001D09000828010010DD0800080C2A0008C8
:1006A000900A000808000000942A0008F0080008DA
:1006B000DD0800080C2A0008900A00080800000065
:1006C0003C250008F0080008DD0800081831000883
:1006D00030090008B00D00084C170008E82F00088A
:1006E00030090008260E00084C170008E82F000803
:1006F00030090008330E00084C170008E82F0008E6
:1007000018310008F0080008DD080008B0080008EB
:10071000DC340008F0080008DD080008401C000870
:10072000EC1B0008C4280008300900087F00000006
:10073000EC1B0008241E000858290008900A000835
:10074000E0FFFFFF401C0008201C0008F008000824
:100750005507000802CD04CD116055F8042B22F096
:10076000030252F8043B18476D07000855F8040BC4
:10077000006847F8040D55F8042B22F0030252F8E4
:10078000043B18478907000855F8042B57F8040B59
:10079000104347F8040D55F8042B22F0030252F8D9
:1007A000043B1847A907000855F8042B57F8040B19
:1007B000104047F8040D55F8042B22F0030252F8BC
:1007C000043B1847C907000855F8043B57F8040BC9
:1007D000186055F8042B22F0030252F8043B184726
:1007E000E507000857F8043B57F8041B57F8040BBB
:1007F0001A6822EA010200EA010042EA00021A60D5
:1008000055F8042B22F0030252F8043B184700006D
:100810001508000855F8043B55F8044B55F804CB6F
:100820001A6822EA04020CEA040C42EA0C021A607A
:1008300055F8042B22F0030252F8043B184700003D
:100840004508000846F8045D55F8042B22F0030221
:1008500052F8043B184700005D08000857F8040BE5
:1008600000280CBF3568361D55F8042B22F0030212
:1008700052F8043B184700000A0000000000000086
:100880000000000000000000680500105803001080
:1008900070FA00200400001010000020000000008A
:1008A00000000000203F0008350E00080000000096
:1008B000B5080008074808490E2203680B60001DB0
:1008C000091D521EF9D155F8042B22F0030252F8EB
:1008D000043B1847780800080401001046F8045D3E
:1008E000154655F8042B22F0030252F8043B184732
:1008F000F508000856F8045B55F8042B22F00302B3
:1009000052F8043B1847000001CA47F8040D55F897
:10091000042B22F0030252F8043B184701CA47F89F
:10092000040D55F8042B22F0030252F8043B18473B
:100930003509000855F8040B47F8040D55F8042B49
:1009400022F0030252F8043B184700005109000846
:1009500055F8040B47F8040D55F8042B22F0030258
:1009600052F8043B184700006D09000857F8045B73
:1009700055F8042B22F0030252F8043B18470000FC
:1009800046F8045D4568083047F8040D55F8042B17
:1009900022F0030252F8043B18470000A1090008A6
:1009A000064807490968401A47F8040D55F8042B12
:1009B00022F0030252F8043B1847000010FA00200E
:1009C00024010010C9090008064807490968401AAF
:1009D00047F8040D55F8042B22F0030252F8043BAB
:1009E000184700000401001020010010F109000860
:1009F00057F8043B57F8042B93465A461878844618
:100A0000117848403F2420401DD1521C5B1C1878AF
:100A100011788842F9D08024001B884214D15B1CD5
:100A20001878FF28FBD0083347F8043D01206246C0
:100A300047F8042D47F8040D55F8042B22F0030263
:100A400052F8043B18475B1C187880242042FAD0E7
:100A50001B1D084803401B68002B00D0CDE7002079
:100A600047F8040D55F8042B22F0030252F8043B1A
:100A700018470000FCFFFFFF7D0A00082B68ED18F7
:100A800055F8042B22F0030252F8043B18470000EB
:100A9000950A000857F8040B00283FF4EFAF2D1D0E
:100AA00055F8042B22F0030252F8043B18470000CB
:100AB000B50A0008012374683268944204D0D21841
:100AC0003260A41A7FF4DAAF08362D1D55F8042BD6
:100AD00022F0030252F8043B18470000E10A000824
:100AE00057F8043BFFF7E7BFED0A000857F8040B7F
:100AF00057F8042B46F8042D46F8040D55F8042B3E
:100B000022F0030252F8043B18470000110B0008C2
:100B100057F8040B00787F21084047F8040D55F87A
:100B2000042B22F0030252F8043B1847310B000853
:100B300057F8041B0B4A92460B4B1C68121910788D
:100B4000521C884201D00028F9D15446121B1A7059
:100B500047F8040D55F8042B22F0030252F8043B29
:100B60001847000070FA002008010010710B0008FF
:100B700057F8041B57F8042B10784840107055F8AC
:100B8000042B22F0030252F8043B1847910B000893
:100B90000A21884205D157F8040B0D2047F8040DAF
:100BA00002E00D21884203D100F080F900F086F9BF
:100BB00055F8042B22F0030252F8043B18470000BA
:100BC000C50B00083868017801290FD0022914D01C
:100BD00001440A78622A1AD0252A18D0642A18D02B
:100BE000232A16D0682A16D0242A14D055F8042BAC
:100BF00022F0030252F8043B184782782E2AE7D1EC
:100C000055F8042B22F0030252F8043B1847022443
:100C100002E00A2400E0102400220A70044A146052
:100C200055F8042B22F0030252F8043B1847000049
:100C300004010010390C000857F8040B57F8041B86
:100C4000A0FB012047F8042D47F8040D55F8042BAC
:100C500022F0030252F8043B18470000610C000820
:100C600057F8040B57F8043B57F8042B002812D010
:100C700093F0000F0FD10146B2FBF0F000FB112200
:100C800047F8042D47F8040D55F8042B22F0030211
:100C900052F8043B18474040401E024647F8042DD6
:100CA00047F8040D55F8042B22F0030252F8043BD8
:100CB00018470000B90C0008044A176855F8042BBF
:100CC00022F0030252F8043B184700001401001000
:100CD000D50C0008044A166855F8042B22F00302CC
:100CE00052F8043B1847000018010010F10C0008EE
:100CF000044A11688C4655F8042B22F0030252F87E
:100D0000043B1847040100100D0D0008044A614619
:100D1000116055F8042B22F0030252F8043B1847E7
:100D20000401001009490A480A4C0160001DA04254
:100D3000FBD3094F094E0FF2280546F8045D55F81C
:100D4000042B22F0030252F8043B18471111111131
:100D50000000002000020120680500105803001068
:100D6000B008000808410008C42D00081831000828
:100D700030090008FB0000003C3000083009000882
:100D8000F70000003C300008183100086419000822
:100D900008CA9F4603B502490868401C086003BDA5
:100DA00000000010A90D000856F8045BBDE83F9C48
:100DB000464953482041524D2020313031302C31AA
:100DC000313030202D2045484F4E2F45484F464664
:100DD0002044656275675372632053544D33324625
:100DE000343037564720444953434F20403136383A
:100DF0004D687A20524D2056312E372E322028430E
:100E000029323031342D3230313820412D54454192
:100E10004D20464F525448203A20417072203234BF
:100E20002032303138002061742031353A33323A83
:100E30003430001500206F6B2C20676F20666973BB
:100E40006820696E2042415345200000910D0A47F9
:100E500050494F205265676973746572733A0D8A01
:100E600000000000844E4F4FD0FFFFFF4C0E0008E3
:100E7000750E000855F8042B22F0030252F8043BCB
:100E80001847000087455845435554C5640E00086F
:100E9000950E000800F00AF800F010F857F8042B3F
:100EA00022F0030252F8043B184700007246024C3D
:100EB0002168090AFCD310470048004072460249E5
:100EC00013240C7010470000044800407246024989
:100ED00011240C7010470000044800408242CCFFEF
:100EE000840E00081D090008200000008255D0FF74
:100EF000DC0E00081D090008200100108546454E43
:100F000043C5FFFFEC0E00081D0900082C0100106E
:100F10008244D0FFFC0E00081D09000824010010C7
:100F200084424153C5FFFFFF100F00081D09000850
:100F3000040100108743555252454ED4200F00083B
:100F40001D090008300100108553544154C5FFFFAE
:100F5000340F00081D09000810010010834F55D4FC
:100F6000480F00081D0900080C0100108249CEFF3F
:100F70005C0F00081D09000808010010835041C4DF
:100F80006C0F00081D09000810FA0020835449C2A4
:100F90007C0F00081D09000870FA002084484552A3
:100FA000C5FFFFFF8C0F0008DD080008180F0008C0
:100FB000001E0008F008000885414C4C4FD4FFFF8C
:100FC0009C0F0008DD0800089C090008EC1B0008C5
:100FD000EC2800080C2A0008900A0008080000000D
:100FE0003C030008180F0008D81D0008F00800088E
:100FF00087414C49474E45C4B80F0008011000080E
:1010000057F8040BC01C0549084047F8040D55F873
:10101000042B22F0030252F8043B1847FCFFFFFFA9
:1010200085414C4947CEFFFFF00F0008DD0800085E
:10103000A80F000874270008C42800086C1C0008CA
:10104000C41B0008A80F0008E80A000830090008BF
:10105000FF000000FC1A00086C1E0008B00A00081F
:10106000ECFFFFFF801B000830090008FCFFFFFFBA
:10107000242B0008180F0008481E0008F00800087C
:1010800081ACFFFF20100008DD0800089C09000863
:101090000C2A0008900A0008080000003C03000821
:1010A00064030008F00800088243ACFF80100008C9
:1010B000DD0800089C0900080C2A0008900A0008B6
:1010C000080000003C030008A80F00086C1E000880
:1010D0005427000854030008F008000888564152BD
:1010E000414C4C4FD4FFFFFFA8100008DD0800085A
:1010F000C40900088427000850280008EC1B0008D9
:10110000EC2800080C2A0008900A000818000000CB
:1011100030090008E73F00084C170008E82F0008D6
:1011200068180008F40E0008001E0008401C0008A3
:101130008427000814280008F40E0008D81D0008B1
:10114000F0080008864C41544553D4FFDC100008D9
:10115000DD080008400F0008001E0008F008000825
:10116000834C46C1441100086D11000857F8040B68
:10117000083847F8040D55F8042B22F0030252F802
:10118000043B1847834346C16011000891110008D1
:1011900057F8040B001F47F8040D55F8042B22F0F4
:1011A000030252F8043B1847834E46C184110008DD
:1011B000DD0800089C010008EC28000854270008FE
:1011C000EC2800086C1C0008241E000830090008E8
:1011D000FF000000EC280008900A0008E0FFFFFF75
:1011E00030090008FFFFFFFF18070008F00800089B
:1011F000835046C1A8110008DD08000854270008E4
:1012000018070008B42600086C1C0008241E0008FB
:1012100030090008FF000000EC280008900A0008D0
:10122000E4FFFFFF9C010008C4280008F008000844
:10123000883F414C49474E45C4FFFFFFF01100086D
:10124000DD0800083009000803000000242B000816
:10125000900A00083C000000FC0300082E56414C98
:101260005545204D555354204245204556454E2066
:101270004E4F54204F444420414E44204D554C5431
:1012800049504C45204F4620342120FF6818000863
:10129000F0080008863F4552524FD2FF3012000836
:1012A000DD080008401C0008900A0008100000003B
:1012B00030150008780A000808000000201C00080B
:1012C000F00800088544494749D4FFFF94120008FC
:1012D000D512000857F8042B57F8040B303813D4F4
:1012E000092802DDC01F0A280EDB90420CDA0246F4
:1012F000012047F8042D47F8040D55F8042B22F07F
:10130000030252F8043B1847002047F8040D55F833
:10131000042B22F0030252F8043B184787454E4342
:101320004C4F53C5C41200082D13000857F8040B86
:1013300039680022521E491E491C521C0B789842E3
:10134000FAD047F8042D002B0CD11846521C47F850
:10135000042D47F8040D55F8042B22F0030252F82F
:10136000043B1847491C521C0B78984201D0002BB3
:10137000F8D11046401C47F8042D47F8040D55F8E5
:10138000042B22F0030252F8043B1847C180FFFFF0
:101390001C1300089913000856F8045B55F8042B39
:1013A00022F0030252F8043B1847000084574F52C2
:1013B000C4FFFFFF8C130008DD080008940F00082D
:1013C000740F0008001E0008C4280008401C000814
:1013D00028130008740F0008D81D0008EC1B000833
:1013E000EC280008C41B0008A41B0008A80F000874
:1013F0006C1E0008C4280008A80F0008B4260008C6
:10140000A41B00082C1D000844270008A80F000892
:10141000B4260008801B0008C42800086C1E0008C1
:10142000F0080008864E554D4245D2FFAC13000827
:10143000DD080008EC0C0008C00B00084427000879
:1014400044270008C81A00086C1C0008B4260008CD
:10145000241E0008300900082D000000142900088F
:1014600054270008242B00086C1C0008C41B00082B
:10147000C428000830090008FFFFFFFF6C250008A2
:10148000481E0008480400086C1C0008241E0008C0
:1014900044270008EC280008900A00086C000000AF
:1014A0006C1C0008241E0008300900082E000000F3
:1014B000EC280008900A0008440000006C1C00089A
:1014C000241E0008300900082C0000001429000820
:1014D000900A00081400000030090008FFFFFFFF19
:1014E000780A000898FFFFFF080D0008542700083D
:1014F000300900082B400008A0120008442700080B
:10150000780A000878FFFFFF201C0008801B0008F5
:10151000900A0008080000003C250008080D00089B
:10152000F0080008854552524FD2FFFF24140008EE
:10153000DD080008A80F000828170008E82F000899
:101540004C170008E82F0008BC2E0008540F0008B4
:10155000001E0008900A00084000000090060008E5
:10156000001E0008900A00083000000090060008E5
:10157000001E0008F811000868110008001E00088D
:10158000400F0008481E000890060008001E0008D2
:10159000180F0008481E00087C060008681800089C
:1015A000C1A7FFFF24150008DD080008CC040008CF
:1015B000E0290008300900081D400008A0120008BA
:1015C000201C00085C1F0008F008000886455850E1
:1015D0004543D4FFA0150008DD08000810020008EC
:1015E000FC010008B4260008EC1B0008C428000811
:1015F000EC1B0008B4260008E02E0008E80A0008EA
:10160000843000088C0B00086C1C000830090008AE
:101610000900000014290008900A00080C000000CE
:10162000201C0008E40E00086C1C00089C01000847
:1016300014290008EC1B0008300900087F00000096
:10164000142900084C2B0008900A000850000000E4
:10165000201C00086C1C0008FC1A000890260008DA
:10166000142900086C1C0008801B0008642700086F
:10167000EC280008C4280008C41B0008900A0008D1
:101680001000000088010008780A00086C000000C3
:10169000A4010008780A0008600000006C1C000823
:1016A000300900080D00000014290008900A000805
:1016B0001C000000601B0008201C0008E40E00084D
:1016C00044270008780A0008080000006C1C000885
:1016D000FC1A00086C1E000854270008740F00084C
:1016E000D81D000844270008FC1A0008B42600088A
:1016F0006C1E00083C300008B00A000804FFFFFF21
:10170000BC2E0008B42600084C170008401C000836
:10171000902600086C1E0008F008000885434F550D
:101720004ED4FFFFCC150008DD0800086C1C000833
:10173000B4260008401C0008241E0008F008000819
:1017400084244C45CEFFFFFF1C17000851170008EA
:101750003A684040115C094301D0401CFAE747F861
:10176000040D55F8042B22F0030252F8043B1847ED
:1017700086464F524745D4FF40170008DD08000851
:10178000A81500086C1C00083009000800000208B9
:1017900058290008300900088E3F0008A0120008F0
:1017A0006C1C0008300900080000100858290008C7
:1017B00030090008AB3F0008A01200086C1C0008AC
:1017C00068110008C41B000850110008F811000837
:1017D000681100086C1C0008001E0008400F00087B
:1017E000481E00086C1C0008FC260008001E0008AB
:1017F000300900080909000814290008900A0008A7
:101800001400000030090008FCFFFFFFF40E000880
:10181000D81D0008A41B000814290008900A00081D
:10182000A8FFFFFF801B0008001E0008400F0008F3
:10183000481E0008B0110008180F0008481E0008D4
:10184000503A0008203A0008F0080008834259C5C1
:101850007017000859180008FFF764BA8541424F15
:1018600052D4FFFF4C180008DD080008B40C000833
:10187000D00C00081002000830090008403F0008A2
:1018800050110008EC090008900A00081000000040
:10189000201C00088C110008900E00083009000878
:1018A00038010010001E0008900A00086C000000BB
:1018B000300900081C1900084C170008E82F000820
:1018C000BC300008900A0008F8FFFFFF84300008D1
:1018D000300900084300000014290008900A00089D
:1018E000E0FFFFFF84300008300900084F000000CF
:1018F00014290008900A0008C8FFFFFF8430000880
:10190000300900080D00000014290008900A0008A2
:10191000B0FFFFFF18310008F00500082045727283
:101920006F722048616C74202845484F4E2F4548FF
:101930004F464629202D20546F20434F6E74696E08
:101940007565205479706520434F207468656E205A
:10195000456E7465723A200084434F4CC4FFFFFF0C
:101960005C180008DD08000808070008C806000821
:10197000F0050008900D0A464953482053797374C6
:10198000656D3A0D8AFFFFFF58190008832E53C872
:1019900074190008DD080008300900081000000074
:1019A00024020008F0080008832E53C48C19000894
:1019B000DD080008300900080A00000024020008C1
:1019C000F0080008832E53C2A8190008DD0800089B
:1019D0006427000824020008F0080008822ED3FFC4
:1019E000C4190008DD0800081C030008001E0008D8
:1019F0001C1B0008FC26000814290008E029000828
:101A0000900A000868000000FC03000805544F53CA
:101A10003E20FFFF1C030008001E00081C1B0008DE
:101A2000FC260008E80A0008FC1A0008001E00084E
:101A30002C0F0008001E0008300900080A000000F2
:101A400014290008900A000810000000A8020008ED
:101A5000780A000808000000C0020008442F0008AF
:101A600084270008DC0A0008C0FFFFFFF008000818
:101A700084324455D0FFFFFFDC190008811A0008AA
:101A800038687A6847F8042D47F8040D55F8042B98
:101A900022F0030252F8043B18470000842D4455FD
:101AA000D0FFFFFF701A0008DD0800086C1C00085A
:101AB000900A0008080000006C1C0008F0080008EC
:101AC00083524FD49C1A0008CD1A000857F8042BF3
:101AD00057F8041B57F8040B47F8041D47F8042D6A
:101AE00047F8040D55F8042B22F0030252F8043B8A
:101AF0001847000081C9FFFFC01A0008011B000839
:101B0000306847F8040D55F8042B22F0030252F810
:101B1000043B1847835350C0F41A0008211B0008E7
:101B2000384647F8040D55F8042B22F0030252F80A
:101B3000043B1847835250C0141B0008411B000887
:101B4000304647F8040D55F8042B22F0030252F8F2
:101B5000043B1847854C454156C5FFFF341B000820
:101B6000651B00083268726055F8042B22F00302EE
:101B700052F8043B184700008252BEFF541B000875
:101B8000851B000856F8040B47F8040D55F8042B84
:101B900022F0030252F8043B1847000081D2FFFFF5
:101BA000781B0008A91B0008306847F8040D55F899
:101BB000042B22F0030252F8043B1847823ED2FF66
:101BC0009C1B0008C91B000857F8041B46F8041D9D
:101BD00055F8042B22F0030252F8043B184700008A
:101BE000844F5645D2FFFFFFBC1B0008F11B0008C5
:101BF00057F8042B57F8040B47F8040D47F8042D49
:101C000047F8040D55F8042B22F0030252F8043B68
:101C1000184700008444524FD0FFFFFFE01B00082C
:101C2000251C00083F1D55F8042B22F0030252F832
:101C3000043B184784535741D0FFFFFF141C000892
:101C4000451C000857F8042B57F8040B47F8042DDF
:101C500047F8040D55F8042B22F0030252F8043B18
:101C600018470000834455D0341C0008711C00083C
:101C7000386847F8040D55F8042B22F0030252F897
:101C8000043B1847900D0A537461636B20537475BD
:101C900066663A0D8AFFFFFF641C000887414E44C8
:101CA000424954D3841C0008AD1C000857F8042B8B
:101CB00057F8041B08681040086055F8042B22F000
:101CC000030252F8043B184787534554424954D302
:101CD0009C1C0008D91C000857F8042B57F8041B5B
:101CE00008681043086055F8042B22F0030252F8EC
:101CF000043B184787434C52424954D3C81C000840
:101D0000051D000857F8042B57F8041B086890437A
:101D1000086055F8042B22F0030252F8043B1847E0
:101D200085434D4F56C5FFFFF41C0008311D0008C8
:101D300057F8041B57F8042B57F8043B002907D029
:101D400018781070491E002902D0521C5B1CF7D174
:101D500055F8042B22F0030252F8043B1847000008
:101D60008446494CCCFFFFFF201D0008711D000870
:101D700057F8040B57F8041B57F8042B002904D01C
:101D80008B181070521C9A42FBD155F8042B22F08C
:101D9000030252F8043B18478545524153C5FFFFE3
:101DA000601D0008DD080008442700086C1D0008BD
:101DB000F008000886424C414E4BD3FF981D0008A6
:101DC000DD080008E40E00086C1D0008F00800089B
:101DD000822BA1FFB41D0008DD1D000857F8041B6D
:101DE00057F8040B0A688018086055F8042B22F095
:101DF000030252F8043B184781C0FFFFD01D0008C2
:101E0000051E000857F8041B086847F8040D55F82C
:101E1000042B22F0030252F8043B18478243C0FF10
:101E2000F81D0008291E000857F8041B087847F819
:101E3000040D55F8042B22F0030252F8043B184716
:101E400081A1FFFF1C1E00084D1E000857F8040B5F
:101E500057F8041B016055F8042B22F0030252F8D6
:101E6000043B18478243A1FF401E0008711E000872
:101E700057F8040B57F8041B017055F8042B22F097
:101E8000030252F8043B18479F0D0A526561642013
:101E9000616E64205772697465204D656D6F72794B
:101EA00020576974683A0D8A641E000881DDFFFFBF
:101EB000881E0008DD08000850070008C000000068
:101EC00010010010F0080008C1DBFFFFAC1E000885
:101ED000DD08000850070008000000001001001095
:101EE000F0080008C95B434F4D50494C45DDFFFFEA
:101EF000C81E0008DD080008CC040008E02900081E
:101F00003009000843400008A0120008201C000807
:101F10008C11000888100008F0080008C8444C49DB
:101F200054455241CCFFFFFFE41E0008DD080008C5
:101F3000540F0008001E0008900A0008100000005E
:101F4000401C00085C1F00085C1F0008F008000827
:101F5000C74C4954455241CC1C1F0008DD080008FD
:101F6000540F0008001E0008900A0008100000002E
:101F7000E80400083009000888100008F00800088C
:101F80008223BEFF501F0008DD080008201C000847
:101F9000201C000834030008001E0008840F0008FD
:101FA000EC1B0008EC280008F008000884484F4C9F
:101FB000C4FFFFFF801F0008DD080008300900088B
:101FC000FFFFFFFF34030008D81D0008340300089A
:101FD000001E00086C1E0008F008000884534947E2
:101FE000CEFFFFFFAC1F0008DD080008C81A00087C
:101FF0000C2A0008900A00081000000030090008B0
:102000002D000000B81F0008F00800088223D3FF4D
:10201000DC1F0008DD08000840200008EC1B000859
:10202000EC1B00084C2B0008E0290008900A00086F
:10203000E8FFFFFFF008000881A3FFFF0C20000865
:10204000DD0800082C0F0008001E00080805000825
:10205000C81A00083009000809000000EC1B00083D
:1020600058290008900A00081000000030090008F4
:1020700007000000C42800083009000830000000F4
:10208000C4280008B81F0008F0080008823CA3FF1D
:1020900038200008DD0800085007000810FA00206A
:1020A00044010010F008000885444F4553BEFFFF6F
:1020B0008C200008DD080008801B00085011000873
:1020C000F81100086C1C00088C1100083009000889
:1020D0007F090008401C0008481E0008481E000830
:1020E000F0080008873C4255494C44D3A82000081A
:1020F000DD08000830230008F0080008C52B4C4F0D
:102100004FD0FFFFE4200008DD0800087427000816
:10211000BC030008E8040008DC0A000868060008A0
:10212000F0080008C44C4F4FD0FFFFFFFC20000810
:10213000DD08000874270008BC030008E804000854
:10214000B00A000868060008F0080008C244CFFF83
:1021500024210008DD080008E8040008E80A000857
:10216000A80F000874270008F0080008C5454E4471
:1021700049C6FFFF4C210008DD0800088003000865
:1021800064270008BC030008A80F0008EC1B000827
:10219000EC280008401C0008481E0008F008000851
:1021A000C4544845CEFFFFFF6C210008DD0800083D
:1021B00078210008F0080008C4454C53C5FFFFFF14
:1021C000A0210008DD08000864270008BC030008FF
:1021D000E8040008780A0008A80F0008442700084F
:1021E00088100008401C00086427000878210008B7
:1021F00064270008F0080008C249C6FFB82100089B
:10220000DD080008E8040008900A0008A80F00088C
:10221000442700088810000864270008F008000818
:10222000C5554E5449CCFFFFF8210008DD080008D1
:1022300054270008BC030008E8040008900A0008BE
:1022400068060008F0080008C541474149CEFFFF75
:1022500020220008DD08000854270008BC030008FD
:10226000E8040008780A000868060008F00800087A
:10227000C65245504541D4FF48220008DD080008F9
:10228000C41B0008C41B000854220008801B00085F
:10229000801B000864270008EC280008782100084B
:1022A000F0080008C55748494CC5FFFF70220008D8
:1022B000DD08000800220008D8260008F008000801
:1022C000C542454749CEFFFFA4220008DD080008AB
:1022D00080030008A80F000854270008F008000831
:1022E000970D0A496E7369646520436F6C6F6E20A9
:1022F000574F5244533A0D8AC022000889494D4D28
:102300004544494154C5FFFFE0220008DD080008AC
:102310005011000830090008400000006C0B000854
:10232000F0080008864352454154C5FFFC220008CE
:10233000DD0800089C090008300900080F000000B3
:10234000EC2800080C2A0008900A00080800000089
:102350003C030008CC040008900A00082400000098
:10236000201C0008B01100085C2F0008300900088C
:10237000074000084C170008E82F000868180008FC
:10238000A80F00086C1C000890060008481E0008F2
:102390006C1C0008241E0008300900081F00000003
:1023A000D42A0008540300086C1C000830090008F7
:1023B000800000006C0B0008A80F0008300900081E
:1023C000800000006C0B000854270008180F00085C
:1023D000D81D00085011000888100008400F0008A0
:1023E000481E0008E80400081D090008A80F00089E
:1023F000FC26000888100008F008000888434F4EAB
:102400005354414ED4FFFFFF24230008DD08000889
:1024100020240008F008000883434FCEFC23000866
:10242000DD0800083023000830090008FCFFFFFF2A
:10243000180F0008D81D0008881000087C06000846
:10244000F0080008885641524941424CC5FFFFFF41
:1024500018240008DD08000868240008F0080008B7
:10246000835641D244240008DD08000830230008C8
:1024700030090008F8FFFFFF180F0008D81D0008FA
:10248000E80400080909000854270008EC100008B7
:10249000881000087C060008F0080008C1BBFFFF98
:1024A00060240008DD08000848050008E80400086A
:1024B000F0080008D01E00087C060008F00800089C
:1024C000C1BAFFFF9C240008DD080008A003000833
:1024D0003405000830230008B41E00083009000845
:1024E000F8FFFFFF180F0008D81D0008E8040008D7
:1024F000DD080008F0080008960D0A4352454154D3
:102500004520574F52445320576974683A0D8AFF4B
:10251000C024000884444142D3FFFFFFF824000890
:10252000DD0800086C1C0008B0060008F008000870
:1025300087444E45474154C51425000841250008ED
:1025400057F8040B57F8042BC043D243521C47F8EA
:10255000042D47F8040D55F8042B22F0030252F81D
:10256000043B1847834450CC302500081D0900085F
:102570004001001083442ED264250008DD080008C5
:10258000C41B0008401C0008EC1B000820250008A4
:102590009420000814200008E81F0008881F000885
:1025A000801B0008EC1B0008EC280008082F00081E
:1025B000E82F0008F00800088244AEFF74250008E8
:1025C000DD080008442700087C250008442F000887
:1025D000F00800088244ABFFB8250008E125000898
:1025E00057F8040B57F8041B57F8043B57F8042B13
:1025F0005218584147F8042D47F8040D55F8042B9C
:1026000022F0030252F8043B1847000084532D3E89
:10261000C4FFFFFFD42500081D26000857F8042B2F
:102620004040124300D5401E47F8042D47F8040DE2
:1026300055F8042B22F0030252F8043B184700001F
:102640008232AAFF0C2600084D26000857F8040B1A
:10265000400047F8040D55F8042B22F0030252F80D
:10266000043B18478232AFFF40260008712600085D
:1026700057F8040B401047F8040D55F8042B22F0CE
:10268000030252F8043B18478231ADFF642600086C
:102690009526000857F8040B401E47F8040D55F81E
:1026A000042B22F0030252F8043B18478231ABFF9F
:1026B00088260008B926000857F8040B401C47F884
:1026C000040D55F8042B22F0030252F8043B18477E
:1026D0008232ABFFAC260008DD26000857F8040B59
:1026E000801C47F8040D55F8042B22F0030252F821
:1026F000043B18478234ABFFD026000801270008AE
:1027000057F8040B001D47F8040D55F8042B22F070
:10271000030252F8043B18478234ADFFF426000848
:102720002527000857F8040B001F47F8040D55F83B
:10273000042B22F0030252F8043B184781B0FFFF3C
:10274000182700081D0900080000000081B1FFFFE4
:102750003C2700081D0900080100000081B2FFFFAE
:102760004C2700081D0900080200000081B3FFFF8C
:102770005C2700081D0900080300000081B4FFFF6A
:102780006C2700081D09000804000000824DAAFF04
:102790007C270008DD0800087C1A0008982B000838
:1027A000C41B0008BC2A0008401C0008BC2A000802
:1027B000340C0008801B0008B0060008F008000870
:1027C000824DAFFF8C270008DD080008EC1B0008D5
:1027D000C41B0008C41B000820250008A41B000817
:1027E000BC2A00085C0C0008801B0008A41B000821
:1027F000982B000898060008401C0008801B000861
:1028000098060008401C0008F008000881AAFFFF95
:10281000C0270008DD08000894270008201C0008D5
:10282000F0080008842F4D4FC4FFFFFF0C2800085C
:10283000DD080008C41B000818260008801B0008DB
:10284000C8270008F008000881AFFFFF242800080F
:10285000DD08000830280008401C0008201C000883
:10286000F0080008834D4FC448280008DD08000820
:1028700030280008201C0008F0080008852A2F4D89
:102880004FC4FFFF64280008DD080008C41B0008CF
:1028900094270008801B0008C8270008F0080008DB
:1028A000822AAFFF7C280008DD080008882800087D
:1028B000401C0008201C0008F008000881ABFFFF46
:1028C000A0280008C928000857F8040B57F8041B73
:1028D000401847F8040D55F8042B22F0030252F873
:1028E000043B184781ADFFFFBC280008F128000811
:1028F00057F8040B57F8041B081A47F8040D55F84D
:10290000042B22F0030252F8043B184781BDFFFF5D
:10291000E428000819290008404057F8040B57F82C
:10292000041B401A09D0404047F8040D55F8042B09
:1029300022F0030252F8043B1847013847F8040D0F
:1029400055F8042B22F0030252F8043B184700000C
:1029500081BCFFFF0C2900085D29000840400138B8
:1029600057F8041B57F8042B914200DC404047F80D
:10297000040D55F8042B22F0030252F8043B1847CB
:102980008255BCFF50290008DD0800087C1A0008A9
:10299000982B00080C2A0008900A00081800000074
:1029A000201C00080C2A0008E0290008780A00080A
:1029B0000C000000EC2800080C2A0008F0080008B1
:1029C00081BEFFFF80290008DD080008401C0008C8
:1029D00058290008F00800088230BDFFC02900080F
:1029E000E5290008404057F8041B002900D1401E8B
:1029F00047F8040D55F8042B22F0030252F8043B6B
:102A0000184700008230BCFFD8290008112A0008AE
:102A100057F8041B40400138094300D4404047F8B0
:102A2000040D55F8042B22F0030252F8043B18471A
:102A3000834249CE042A0008DD0800085007000838
:102A40000200000004010010F0080008834845D887
:102A5000302A0008DD0800085007000810000000B8
:102A600004010010F008000887444543494D41CC5B
:102A70004C2A0008DD080008500700080A00000082
:102A800004010010F0080008864E45474154C5FF78
:102A9000682A0008992A000857F8040BC043401C14
:102AA00047F8040D55F8042B22F0030252F8043BBA
:102AB00018470000834142D3882A0008DD08000837
:102AC0006C1C000898060008F0080008834D49CEE9
:102AD000B42A0008DD0800087C1A0008C82900088C
:102AE000900A000808000000401C0008201C000894
:102AF000F0080008834D41D8CC2A0008DD08000802
:102B00007C1A000858290008900A000808000000F4
:102B1000401C0008201C0008F008000883414EC437
:102B2000F42A0008292B000857F8040B57F8041B57
:102B3000084047F8040D55F8042B22F0030252F820
:102B4000043B1847824FD2FF1C2B0008512B000872
:102B500057F8040B57F8041B084347F8040D55F8C1
:102B6000042B22F0030252F8043B1847834E4FD443
:102B7000442B0008792B000857F8040BC04347F892
:102B8000040D55F8042B22F0030252F8043B1847B9
:102B900083584FD26C2B00089D2B000857F8040B6C
:102BA00057F8041B484047F8040D55F8042B22F051
:102BB000030252F8043B184784535854C8FFFFFFE0
:102BC000902B0008C92B000857F8040B00B247F8F7
:102BD000040D55F8042B22F0030252F8043B184769
:102BE00084535854C2FFFFFFB82B0008F12B000894
:102BF00057F8040B40B247F8040D55F8042B22F0A7
:102C0000030252F8043B184784524556D7FFFFFF92
:102C1000E02B0008192C000857F8040B00BA47F8FD
:102C2000040D55F8042B22F0030252F8043B184718
:102C3000834153D2082C00083D2C000857F8042B80
:102C400057F8040B104147F8040D55F8042B22F0F7
:102C5000030252F8043B1847834C53D2302C00082F
:102C6000652C000857F8042B57F8040BD04047F8A0
:102C7000040D55F8042B22F0030252F8043B1847C8
:102C8000834C53CC582C00088D2C000857F8042B8B
:102C900057F8040B904047F8040D55F8042B22F028
:102CA000030252F8043B1847822ED2FF802C000802
:102CB000DD080008C41B000818260008801B000857
:102CC0007C250008F0080008832E52D5A82C0008A7
:102CD000DD080008C41B00084427000894200008F1
:102CE00014200008881F00086C1C0008801B0008C6
:102CF000401C0008EC280008082F0008E82F0008F6
:102D0000F00800088255AEFFC82C0008DD08000856
:102D100044270008C0250008F008000881BFFFFF15
:102D2000042D0008DD080008001E00083C2D0008E6
:102D3000F008000881AEFFFF1C2D0008DD08000828
:102D400018260008C0250008F0080008822EC2FFDF
:102D5000342D0008DD08000864270008D8020008A8
:102D6000F0080008822EC8FF4C2D0008DD0800087E
:102D70003009000810000000D8020008F008000820
:102D8000822EC4FF642D0008DD0800083009000809
:102D90000A000000D8020008F0080008910D0A4E51
:102DA000554D4245522053747566663A0D8AFFFFB1
:102DB000802D00088A55415254335F494E49D4FF53
:102DC0009C2D0008DD0800083009000800020120E1
:102DD000001E0008E0290008900A00081C000000FE
:102DE0003009000804020120001E0008C41B00086E
:102DF000780A000810000000300900088025000053
:102E0000C41B00083009000880DE8002801B000817
:102E1000502800083009000808480040481E0008F3
:102E2000F0080008864D59424155C4FFB42D0008F2
:102E3000DD08000850070008000000000002012023
:102E40003009000804020120481E0008F0080008AC
:102E50008955415254335F4C53D2FFFF242E000852
:102E6000652E00080549087847F8040D55F8042B2D
:102E700022F0030252F8043B1847000000480040CB
:102E80008855415254335F52D8FFFFFF502E00083F
:102E90001D090008044800408855415254335F54CE
:102EA000D8FFFFFF802E00081D09000804480040DD
:102EB00084584F46C6FFFFFF982E0008C12E000819
:102EC000FDF7F4FFFDF7FAFF55F8042B22F003029B
:102ED00052F8043B1847000083584FCEB02E00082C
:102EE000E52E0008FDF7E2FFFDF7F0FF55F8042B93
:102EF00022F0030252F8043B184700008653504169
:102F00004345D3FFD82E0008DD08000844270008F9
:102F1000FC2A0008A81A0008900A000818000000FF
:102F200044270008E80A0008442F0008B00A0008F7
:102F3000F8FFFFFFF00800088553504143C5FFFF2D
:102F4000FC2E0008DD080008E40E00083C300008F4
:102F5000F0080008834944AE382F0008DD08000857
:102F600028170008300900081F000000242B000863
:102F7000E82F0008442F0008F0080008C22EA2FF26
:102F8000542F0008DD080008300900082200000066
:102F9000540F0008001E0008900A00082C000000D2
:102FA000E8040008FC030008B8130008A80F000894
:102FB000241E0008B4260008FC0F00085403000873
:102FC000780A000814000000B8130008A80F0008D1
:102FD00028170008E82F0008F0080008845459500A
:102FE000C5FFFFFF7C2F0008DD080008A81A0008B5
:102FF000900A000834000000BC2E0008EC1B0008FA
:10300000C4280008401C0008E80A0008FC1A000850
:103010000C0B00083C300008B00A0008F0FFFFFF6E
:10302000780A000808000000201C0008F0080008CA
:1030300084454D49D4FFFFFFDC2F000841300008D4
:1030400057F8040BFDF732FF064908700649086877
:10305000401C086055F8042B22F0030252F8043B90
:1030600018470000044800400C010010834B45D96C
:1030700030300008DD080008E02E00088430000829
:10308000F008000889300008074A084B19688909C8
:10309000FCD3106847F8040D55F8042B22F0030206
:1030A00052F8043B18470000044800400048004024
:1030B000843F4B45D9FFFFFF6C300008C13000084A
:1030C000FDF7F4FEFDF702FF4040074B1968890940
:1030D00000D3013847F8040D55F8042B22F0030201
:1030E00052F8043B1847000000480040834352D385
:1030F000B0300008DD08000844270008E80A00088E
:1031000018310008B00A0008F8FFFFFFF0080008B7
:103110008243D2FFEC300008DD08000810020008EE
:10312000FC030008020D0AFFF00800088C0D0A4697
:1031300049534820494F3A0D8AFFFFFF10310008DC
:103140008B495251535F524553554DC52C310008A0
:103150005531000801F018F955F8042B22F003024C
:1031600052F8043B184700008C495251535F5355A5
:103170005350454EC4FFFFFF403100088131000825
:1031800001F000F955F8042B22F0030252F8043B39
:10319000184700008F5359535449434B5F495251CC
:1031A0005F4F46C668310008AD310008044905206C
:1031B000086055F8042B22F0030252F8043B18472C
:1031C00010E000E08E5359535449434B5F4952512C
:1031D0005F4FCEFF94310008DD310008044907201D
:1031E000086055F8042B22F0030252F8043B1847FC
:1031F00010E000E08F0D0A494E544552525550548C
:10320000533A0D8AC43100088A464C4153485F53F3
:103210004156C5FFF4310008DD08000850110008D0
:10322000303B000858290008900A000820000000E0
:1032300018310008FC0300080F4E4F5448494E4710
:1032400020544F2053415645F00800081833000819
:10325000001E0008300900080000100814290008AA
:10326000900A00082800000018310008FC0300083C
:10327000144C41535420464C415348204156414937
:103280004C2055534544FFFFF00800082C1000085F
:10329000F40E0008001E000828330008481E00082D
:1032A000501100083033000820330008481E000881
:1032B00050110008303B000814290008900A00084B
:1032C00048000000CC370008303B0008180F000809
:1032D000481E000828330008001E0008F40E0008ED
:1032E000481E000820330008001E0008400F000898
:1032F000481E0008DC34000818310008503A000865
:10330000203A0008F0080008501100085C3300085B
:10331000780A00089CFFFFFF1D0900080400002038
:103320001D090008080000201D0900080C000020ED
:103330003533000857F8040B064A1040064A126855
:10334000801847F8040D55F8042B22F0030252F8B8
:10335000043B1847FFFF0F0004000020DD080008B1
:10336000F81100086C1C0008C41B00088C11000830
:103370006C1C0008001E0008300900087F090008C6
:1033800014290008900A000828000000FC26000804
:103390006C1C00086C1C0008001E0008303300087C
:1033A000401C0008481E0008780A000800010000C0
:1033B0006C1C0008001E0008300900081D090008E8
:1033C00014290008EC1B0008001E00083009000842
:1033D00009090008142900084C2B0008900A00086D
:1033E00010000000201C0008780A0008C40000003B
:1033F000FC2600086C1C0008001E000830090008AC
:103400003009000814290008900A00081000000084
:10341000FC260008780A0008D8FFFFFF6C1C000893
:10342000001E000830090008FC03000814290008E9
:10343000900A0008200000006C1C0008FC26000810
:10344000241E0008C4280008FC0F0008780A0008A1
:10345000A0FFFFFF6C1C0008001E000830090008D8
:10346000F008000814290008E0290008900A000864
:103470003C0000006C1C0008001E0008303B0008E7
:10348000C8290008900A000868FFFFFF6C1C0008AC
:103490006C1C0008001E000830330008401C0008A7
:1034A000481E0008780A000848FFFFFF201C00089B
:1034B000801B0008681100086C1C0008001E000832
:1034C0006C1C0008400F0008481E0008303300083C
:1034D000401C0008481E0008F0080008DD0800082D
:1034E00030090008000002086C1C000830090008C0
:1034F00004000020481E00086C1C0008C41B0008C3
:10350000001E0008183C0008EC280008900A00087B
:1035100010000000801B0008201C0008F0080008B4
:10352000A41B000818330008481E0008A41B00084C
:103530003009000808000000C42800086C1C0008BE
:10354000001E0008400F0008481E0008FC26000866
:10355000001E0008F40E0008481E0008183100087C
:10356000FC03000817414444454420574F5244533C
:103570002046524F4D204144445220FFA41B0008D6
:103580006C2D0008801B0008FC260008001E0008A7
:10359000780A000854FFFFFFDD0800086C1C0008D3
:1035A000C4280008C41B00086C1C0008001E00088A
:1035B000B4260008900A00083800000018310008FE
:1035C000FC03000817455241534544204241442022
:1035D000464C415348205041474520206C2D00085F
:1035E000201C0008801B0008201C0008F0080008B0
:1035F000FC2600086C1C00086C1C0008A41B0008BA
:10360000401C0008EC280008900A00080C0000008C
:10361000780A000898FFFFFF18310008FC03000833
:103620000E464C4153482050414745204F4B20FF08
:10363000EC2800086C2D0008801B0008201C0008E6
:10364000F00800088C464C4153485F464F524745AE
:10365000D4FFFFFF08320008DD080008FC03000863
:103660001754414B45532041424F55542036205367
:1036700045434F4E445321207C3100085039000807
:1036800030390008500700082A020100103C0240AF
:10369000303900085007000832020100103C024097
:1036A00030390008500700083A020100103C02407F
:1036B000303900085007000842020100103C024067
:1036C00030390008500700084A020100103C02404F
:1036D000303900085007000852020100103C024037
:1036E00030390008500700085A020100103C02401F
:1036F000303900087039000850310008443B000898
:1037000050110008C8290008900A000810000000A5
:10371000B83E0008780A00081C00000030090008C4
:10372000203F0008303B0008F8110008681100082D
:10373000481E00085007000800000208040000208E
:1037400030090008111111116C1C00082033000809
:10375000481E000828330008481E0008DC34000812
:1037600018310008503A0008203A0008F008000814
:103770007537000857F8040B57F8041B064A50F831
:10378000044B42F8044B8842F9D155F8042B22F03F
:10379000030252F8043B1847D0FE0020300900080D
:1037A000D0FE0020900E0008F0080008DD08000898
:1037B000300900088439000830090008D8380008AA
:1037C000703700089C370008F0080008DD08000882
:1037D0007C310008503900083039000850070008D3
:1037E00001020000103C024018330008001E0008CF
:1037F000C41B00083009000810000000183300083E
:10380000D81D0008A80F0008C41B0008303B0008A2
:103810006C1C0008001E000818330008001E000879
:10382000481E0008303900088427000818330008B3
:10383000D81D0008FC2600086C1C0008A41B00080A
:10384000EC280008900A00080C000000780A000824
:10385000C0FFFFFF801B0008201C0008201C000880
:103860003009000800000020001E0008A41B00080A
:10387000481E00083039000818330008001E0008F0
:10388000A41B0008FC260008481E00083039000868
:1038900020330008001E0008A41B00089C0100083B
:1038A000C4280008481E00083039000828330008E2
:1038B000001E0008801B0008300900080C000000F2
:1038C000C4280008481E0008303900087039000874
:1038D00050310008F0080008DD08000858360008DC
:1038E0007C310008503900083039000850070008C2
:1038F00001020000103C02405007000800000208CE
:10390000040000203009000810000000180F000813
:10391000D81D0008700E0008CC370008700E000893
:10392000583600087039000850310008F0080008C7
:1039300035390008054908680004FCD255F8042B05
:1039400022F0030252F8043B184700000C3C0240EE
:10395000DD0800085007000823016745043C0240C9
:1039600050070008AB89EFCD043C0240F008000886
:10397000DD0800085007000800000080103C0240ED
:10398000F008000884504F46C6FFFFFF4436000889
:10399000DD08000850070008000000003401001096
:1039A000F008000883504FCE84390008DD08000875
:1039B00050070008350E000834010010F008000818
:1039C00081D0FFFFA43900081D0900083401001050
:1039D0008545484F46C6FFFFC0390008DD0800088E
:1039E000442700083009000838010010481E00086C
:1039F000F00800088445484FCEFFFFFFD03900088B
:103A0000DD080008542700083009000838010010BC
:103A1000481E0008F0080008832E44D3F43900083B
:103A2000DD0800089C090008EC0C0008882D00083F
:103A3000080D0008300900085C3F00084C1700081A
:103A4000E82F0008F0080008832E56D3183A000823
:103A5000DD080008C4090008EC0C000884270008F1
:103A600050280008882D0008080D000830090008BB
:103A7000513F00084C170008E82F0008F008000824
:103A80008444554DD0FFFFFF483A0008DD08000888
:103A9000EC1B000840120008EC0C0008542A000837
:103AA00044270008E80A0008183100086C1C0008C8
:103AB000300900080A000000D02C00088427000804
:103AC00044270008E80A00086C1C0008001E0008D3
:103AD000300900080E000000D02C0008FC26000869
:103AE000B00A0008E4FFFFFFBC300008900A00089D
:103AF00008000000601B0008B00A0008ACFFFFFFD0
:103B0000201C000818310008080D0008F008000803
:103B10008556424153C5FFFF803A00081D09000841
:103B2000040000108544424153C5FFFF103B0008CC
:103B30001D090008100000208552424153C5FFFFB7
:103B4000243B00081D0900080000002083434CD3DB
:103B5000383B0008DD080008FC030008041B5B324A
:103B60004AFFFFFFFC030008041B5B3B48FFFFFF0D
:103B700018310008F0080008C1A8FFFF4C3B0008FE
:103B8000DD08000830090008290000002C0B00089F
:103B9000E0290008900A00083400000018310008ED
:103BA00030090008100000003C3000082404000820
:103BB0003009000871FA0020241E0008900A00084D
:103BC00010000000780A0008BCFFFFFFF0080008A2
:103BD000300900086E3F00084C170008E82F000865
:103BE000F0080008C1DCFFFF783B0008DD08000892
:103BF00044270008940F0008740F0008001E0008F6
:103C0000C42800086C1E0008F008000886535953A9
:103C1000434CCBFFE43B00081D3C00080549086805
:103C200047F8040D55F8042B22F0030252F8043B28
:103C300018470000000000208553544354D2FFFF72
:103C40000C3C00081D090008000000108544454C8C
:103C500041D9FFFF383C00085D3C000857F8041BC1
:103C600057F8040B0C4CC043401C20600B4A1160F9
:103C70000B4A1160002806D00A4A1068072111601B
:103C800021680029FCD1106055F8042B22F00302B2
:103C900052F8043B184700000000001014E000E058
:103CA00018E000E010E000E0824DD3FF4C3C00083B
:103CB000DD080008300900083F900200583C000869
:103CC000F008000887574F52444341D4A83C0008ED
:103CD000DD080008A80F0008C41B000844270008DE
:103CE000B0100008300900080D000000B0100008F6
:103CF000A80F0008300900080D000000B8130008E4
:103D00006C1C0008241E0008300900080A0000008E
:103D1000C81A00086C1E00086C1C0008B4260008B5
:103D2000C40F00083009000884000000C4280008FF
:103D3000A41B00086C1E0008300900080D000000DC
:103D4000B0100008300900088A000000B010000818
:103D50002C1000085011000888100008801B000873
:103D60003009000830010010481E0008F008000863
:103D700085574F5244D3FFFFC43C0008DD080008BC
:103D800074270008082F000850110008BC2E0008F6
:103D900044270008EC1B0008B4260008241E000875
:103DA000300900080D00000014290008E02900086F
:103DB000900A00081C000000201C00086C1C000871
:103DC000F811000868110008EC1B0008EC28000836
:103DD000640F0008001E0008C4280008300900080D
:103DE0004A000000C8290008900A000810000000DE
:103DF0001831000874270008082F00086C1C000800
:103E0000080F0008001E000858290008900A000842
:103E10000C000000780A0008540000006C1C000828
:103E20005C2F000864270008082F00086C1C00089D
:103E3000B4260008241E0008300900080D00000008
:103E400014290008900A0008080000001002000869
:103E5000F811000868110008001E00086C1C00081A
:103E6000E0290008900A000828FFFFFF201C000836
:103E700018310008F0080008874D59574F5244D3B5
:103E8000703D0008DD080008500700080000020827
:103E90002C0100107C3D00085007000800000000C5
:103EA0002C010010F008000889464953485F4F4E26
:103EB0004CD9FFFF783E0008BD3E000809490A4C76
:103EC00021600A4C21600A490A4C21600A4C216099
:103ED0000A490B4C216055F8042B22F0030252F8DA
:103EE000043B1847203F0008300100100800002064
:103EF00004000010200100100C0000201000002021
:103F00002401001084464953C8FFFFFFA83E000863
:103F1000DD080008DC340008C8060008F0080008C6
:103F2000990D0A46495348205265666572656E636D
:103F300065204D6F64656C3A0D8AFFFF043F0008F1
:103F40000352554E2000203F2000203C43523E208B
:103F5000005641522043454C4C53200044494354A1
:103F6000494F4E4152592042595445532000204355
:103F70004F4D4D454E54204C494E452043414E4EE9
:103F80004F5420424520454D5054592015002043A0
:103F9000414E5420464F52474554204649534820ED
:103FA000494E20464C41534820150020494E20469A
:103FB0004C415348202D2053454520464C41534801
:103FC0005F464F5247455420150020444943544909
:103FD0004F4E4152592046554C4C202D20534545BB
:103FE000202E44532015002052414D20564152208E
:103FF00053504143452046554C4C202D20534545B8
:10400000202E565320150020495320414C52454143
:10401000445920444546494E4544201500203F2040
:104020004E4F5420574F5244201500203F204E4FF2
:104030005420574F5244204F52204E554D42455226
:1040400020150020434155534544204120535441FD
:10405000434B204552524F522015002053544143A8
:104060004B204552524F52205748494C4520455805
:1040700045435554494E47204F5220434F4D5049D8
:104080004C494E47201500204552524F52202D20BA
:104090004E4F5420434F4D50494C494E4720150038
:1040A000204552524F52202D2045584543555445E6
:1040B00044205748494C4520434F4D50494C494EA8
:1040C00047201500DD08000850070008050700001C
:1040D000003C0240F0080008DD40000840F2000407
:1040E000C2F201044FF000034FF0800C53F8042B90
:1040F00044F8042BBCF1010CF8D155F8042B22F044
:10410000030252F8043B1847DD080008D8400008B5
:10411000500700080000012008ED00E068070008D3
:10412000003802408407000801000000C4070008AE
:104130000038024050070008000000000838024024
:104140006807000800380240A4070008FFFFF6FED9
:10415000C40700080038024050070008103000244F
:10416000043802406807000800380240A40700082D
:10417000FFFFFBFFC407000800380240500700089B
:10418000000000000C3802406807000800380240B8
:104190008407000800000100C4070008003802403E
:1041A000400800086807000800380240A40700081B
:1041B0000000020058080008680700084038024064
:1041C0008407000800000010C407000840380240BF
:1041D00068070008007000408407000800400000E5
:1041E000C407000800700040300900080838024089
:1041F0003009000800000000D41C00083009000845
:10420000083802403009000800800000D41C000873
:104210003009000808380240300900080014000086
:10422000D41C000850070008085440070438024016
:1042300068070008003802408407000800000001F9
:10424000C40700080038024040080008680700085A
:1042500000380240A40700080000000258080008C7
:10426000C44000086807000808380240A407000896
:10427000FCFFFFFFC4070008083802406807000879
:10428000083802408407000802000000C407000844
:104290000838024040080008680700080838024053
:1042A000A40700080C000000300900080800000006
:1042B0001429000858080008500700080030005072
:1042C000843802406807000800380240840700086C
:1042D00000000004C407000800380240400800083D
:1042E0006807000800380240A40700080000000822
:1042F0005808000850070008007A030A0000002050
:1043000030090008303802403009000887000000FA
:10431000D41C000830090008403802403009000869
:1043200000000400D41C00085007000800770000BB
:104330002408024010080008000802400300F000B2
:104340000100A000500700080C2000000C480040AD
:10435000500700080700000010E000E0F008000827
:10436000BFF34F8F0548016811F4E0610448014331
:1043700002480160BFF34F8FFEE700000CED00E044
:104380000400FA0572B6704762B6704780B5FFF751
:10439000E7FF01BD4EF68851CEF20001086840F4F7
:1043A00070000860BFF34F8FBFF36F8F4FF0007046
:1043B000E1EE100A70470000FCF7B4BCFFF7FEBF47
:1043C000FFF7FEBFFFF7FEBFFFF7FEBFFFF7FEBF21
:1043D000FFF7FEBFFFF7FEBFFCF7DCBCFFF7FEBF39
:1043E000FFF7FEBFFFF7FEBFFFF7FEBFFFF7FEBF01
:1043F000FFF7FEBFFFF7FEBFFFF7FEBFFFF7FEBFF1
:10440000FFF7FEBFFFF7FEBFFFF7FEBFFFF7FEBFE0
:10441000FFF7FEBFFFF7FEBFFFF7FEBFFFF7FEBFD0
:10442000FFF7FEBFFFF7FEBFFFF7FEBFFFF7FEBFC0
:10443000FFF7FEBFFFF7FEBFFFF7FEBFFFF7FEBFB0
:10444000FFF7FEBFFFF7FEBFFFF7FEBFFFF7FEBFA0
:10445000FFF7FEBFFFF7FEBFFFF7FEBFFFF7FEBF90
:10446000FFF7FEBFFFF7FEBFFFF7FEBFFFF7FEBF80
:10447000FFF7FEBFFFF7FEBFFFF7FEBFFFF7FEBF70
:10448000FFF7FEBFFFF7FEBFFFF7FEBFFFF7FEBF60
:10449000FFF7FEBFFFF7FEBFFFF7FEBFFFF7FEBF50
:1044A000FFF7FEBFFFF7FEBFFFF7FEBFFFF7FEBF40
:1044B000FFF7FEBFFFF7FEBFFFF7FEBFFFF7FEBF30
:1044C000FFF7FEBFFFF7FEBFFFF7FEBFFFF7FEBF20
:1044D000FFF7FEBFFFF7FEBFFFF7FEBFFFF7FEBF10
:1044E000FFF7FEBFFFF7FEBFFFF7FEBFFFF7FEBF00
:1044F000FFF7FEBFFFF7FEBFFFF7FEBFFFF7FEBFF0
:10450000FFF7FEBFFFF7FEBFFFF7FEBFFFF7FEBFDF
:10451000FFF7FEBFFFF7FEBFFFF7FEBFFFF7FEBFCF
:04452000FFF7FEBFE4
:0400000500000000F7
:00000001FF
