:020000040800F2
:1000000000000220B5430008B943000889430008F6
:10001000BD430008C1430008C543000800000000BC
:10002000000000000000000000000000C9430008BC
:10003000CD43000800000000D1430008D54300086C
:10004000D9430008DD430008E1430008E543000808
:10005000E9430008ED430008F1430008F5430008B8
:10006000F9430008FD430008014400080544000866
:10007000094400080D440008114400081544000814
:10008000194400081D4400082144000825440008C4
:10009000294400082D440008314400083544000874
:1000A000394400083D440008414400084544000824
:1000B000494400084D4400085144000855440008D4
:1000C000594400085D440008614400086544000884
:1000D000694400086D440008714400087544000834
:1000E000794400087D4400088144000885440008E4
:1000F000894400088D440008914400089544000894
:10010000994400089D440008A1440008A544000843
:10011000A9440008AD440008B1440008B5440008F3
:10012000B9440008BD440008C1440008C5440008A3
:10013000C9440008CD440008D1440008D544000853
:10014000D9440008DD440008E1440008E544000803
:10015000E9440008ED440008F1440008F5440008B3
:10016000F9440008FD440008014500080545000861
:10017000094500080D45000811450008154500080F
:10018000194500081D450008D90800082C09000879
:100190000700000038300008EC08000819090008C2
:1001A00008000000D90800089C0100083830000849
:1001B000402F00089C01000838300008900F00080C
:1001C000700F0008FC1D0008C02800084027000828
:1001D000681E00082C090008FCFFFFFF600F0008E4
:1001E000D41D00082C090008FFFFFFFF700F000856
:1001F000D41D0008EC080008D90800084C070008C6
:100200000000000008010010EC080008D9080008F0
:100210004C070008000000000C010010EC0800086A
:10022000D9080008E80C0008280F0008441E000840
:10023000E0190008040D0008EC080008D9080008BF
:10024000280F0008FC1D0008681C00086027000833
:10025000102900088C0A0008180000002C0900086A
:1002600062000000383000081C1C0008EC08000880
:100270002C0900080A000000102900088C0A000858
:10028000140000002C090008640000003830000849
:10029000EC0800082C09000868000000383000084D
:1002A000EC080008D90800081426000840270008B8
:1002B000782500083C020008EC080008D90800086E
:1002C0004027000840270008782500083C02000865
:1002D000EC080008D9080008E80C0008681C0008B1
:1002E000280F0008441E00082C0900080A0000001E
:1002F000102900088C0A000810000000A402000861
:10030000740A000808000000BC020008402F000822
:10031000040D0008EC080008190900081401001079
:100320001909000818010010190900083C01001003
:100330001909000844010010D90800082C09000818
:10034000C63F000848170008E42F0008641800089A
:10035000D9080008140F0008D41D0008EC08000894
:10036000D908000828100008A40F0008441E00083F
:100370008027000850030008EC080008D90800088E
:10038000500F0008FC1D0008DC2900082C0900089B
:10039000834000089C120008EC080008D9080008F7
:1003A000500F0008FC1D00082C0900089C400008A4
:1003B0009C120008EC080008D9080008E82800088A
:1003C0002C090008574000089C120008EC0800089F
:1003D000D9080008181B000818030008FC1D0008B5
:1003E0003C1C0008842900082C0900083F40000834
:1003F0009C120008EC080008D90800087C1B0008C3
:10040000681C000824170008E42F000824170008BF
:10041000C0280008F80F0008C01B0008EC080008FE
:10042000D9080008900F00082C0900085E000000A1
:10043000D41500084C070008010000000801001056
:10044000EC080008D9080008B0260008681C00085D
:10045000C01B0008201E0008280F0008FC1D000813
:10046000CC1200088C0A0008580000003C1C000850
:10047000280F0008FC1D0008300C00081C1C000898
:10048000C41A0008280F0008FC1D0008300C0008E2
:10049000D825000868250008FC1D0008B0260008C3
:1004A0008C0A00081000000050270008682500088A
:1004B000D41D00087C1B0008740A00088CFFFFFF95
:1004C0007C1B0008EC080008D9080008E00E0008B2
:1004D000B4130008A40F00084C110008E809000834
:1004E000EC080008D90800087C1B0008681C0008FC
:1004F000F8260008C01B0008FC1D00086003000867
:10050000EC080008D9080008C01B000840270008B4
:10051000A01B0008580C00087C1B00083C1C0008AD
:10052000C01B0008580C00087C1B0008EC080008E1
:10053000D9080008181B000828030008441E0008FA
:10054000EC080008D9080008181B00082803000858
:10055000FC1D0008E82800082C0900083F4000089E
:100560009C120008EC080008D9080008C80400081C
:100570008C0A00083C000000500F0008FC1D000819
:10058000542900088C0A0008140000008811000893
:1005900060030008740A00080C00000088110008BD
:1005A0008C0E0008D0030008740A0008C0FFFFFF8B
:1005B000A40F00082C14000868250008FC1D000882
:1005C000B02600088C0A000810000000281F000850
:1005D000740A00080C0000001C1C0008581F0008CA
:1005E000D0030008740A000884FFFFFFD908000840
:1005F000CC1E0008B00C0008CC0C00082004000839
:1006000068050008500F0008FC1D0008DC290008E0
:100610008C0A0008380000002C0900083401001082
:10062000FC1D00088C0A0008240000002C090008AA
:1006300034010010FC1D000848170008E42F0008D2
:10064000280F0008FC1D0008842D00082C09000854
:10065000100000003830000814310008740A000847
:1006600098FFFFFFD9080008A40F0008E828000839
:1006700084100008EC080008D90800084C0700089E
:100680000000000028010010EC080008190900080B
:1006900028010010D9080008082A00088C0A000860
:1006A00008000000902A0008EC080008D90800089B
:1006B000082A00088C0A00080800000038250008F5
:1006C000EC080008D9080008143100082C090008BB
:1006D000AC0D000848170008E42F00082C0900089A
:1006E000220E000848170008E42F00082C09000813
:1006F0002F0E000848170008E42F000814310008E6
:10070000EC080008D9080008AC080008D834000834
:10071000EC080008D90800083C1C0008E81B000889
:10072000C02800082C0900087F000000E81B000812
:10073000201E0008542900088C0A0008E0FFFFFF73
:100740003C1C00081C1C0008EC08000851070008AD
:1007500002CD04CD116055F8042B22F0030252F8AB
:10076000043B18476907000855F8040B006847F870
:10077000040D55F8042B22F0030252F8043B1847ED
:100780008507000855F8042B57F8040B104347F869
:10079000040D55F8042B22F0030252F8043B1847CD
:1007A000A507000855F8042B57F8040B104047F82C
:1007B000040D55F8042B22F0030252F8043B1847AD
:1007C000C507000855F8043B57F8040B186055F8A6
:1007D000042B22F0030252F8043B1847E1070008FB
:1007E00057F8043B57F8041B57F8040B1A6822EA21
:1007F000010200EA010042EA00021A6055F8042BE7
:1008000022F0030252F8043B1847000011080008C8
:1008100055F8043B55F8044B55F804CB1A6822EA06
:1008200004020CEA040C42EA0C021A6055F8042B8C
:1008300022F0030252F8043B184700004108000868
:1008400046F8045D55F8042B22F0030252F8043BED
:10085000184700005908000857F8040B00280CBF7F
:100860003568361D55F8042B22F0030252F8043B7C
:10087000184700000A00000000000000000000000F
:1008800000000000680500105803001070FA0020F6
:100890000400001010000020000000000000000014
:1008A0001C3F0008310E000800000000B1080008DD
:1008B000074808490E2203680B60001D091D521EDF
:1008C000F9D155F8042B22F0030252F8043B1847E3
:1008D000740800080401001046F8045D154655F838
:1008E000042B22F0030252F8043B1847F1080008D9
:1008F00056F8045B55F8042B22F0030252F8043B2F
:100900001847000001CA47F8040D55F8042B22F0DF
:10091000030252F8043B184701CA47F8040D55F882
:10092000042B22F0030252F8043B18473109000857
:1009300055F8040B47F8040D55F8042B22F0030278
:1009400052F8043B184700004D09000855F8040B05
:1009500047F8040D55F8042B22F0030252F8043B2B
:10096000184700006909000857F8045B55F8042B84
:1009700022F0030252F8043B1847000046F8045DD9
:100980004568083047F8040D55F8042B22F003029F
:1009900052F8043B184700009D0900080648074923
:1009A0000968401A47F8040D55F8042B22F0030299
:1009B00052F8043B1847000010FA002024010010F0
:1009C000C5090008064807490968401A47F8040D98
:1009D00055F8042B22F0030252F8043B184700009C
:1009E0000401001020010010ED09000857F8043B35
:1009F00057F8042B93465A46187884461178484095
:100A00003F2420401DD1521C5B1C1878117888426D
:100A1000F9D08024001B884214D15B1C1878FF2871
:100A2000FBD0083347F8043D0120624647F8042D07
:100A300047F8040D55F8042B22F0030252F8043B4A
:100A400018475B1C187880242042FAD01B1D0848E8
:100A500003401B68002B00D0CDE7002047F8040DB1
:100A600055F8042B22F0030252F8043B184700000B
:100A7000FCFFFFFF790A00082B68ED1855F8042BDE
:100A800022F0030252F8043B18470000910A0008C4
:100A900057F8040B00283FF4EFAF2D1D55F8042B39
:100AA00022F0030252F8043B18470000B10A000884
:100AB000012374683268944204D0D2183260A41AB8
:100AC0007FF4DAAF08362D1D55F8042B22F003020F
:100AD00052F8043B18470000DD0A000857F8043BB1
:100AE000FFF7E7BFE90A000857F8040B57F8042B93
:100AF00046F8042D46F8040D55F8042B22F00302A5
:100B000052F8043B184700000D0B000857F8040B7F
:100B100000787F21084047F8040D55F8042B22F097
:100B2000030252F8043B18472D0B000857F8041B2A
:100B30000B4A92460B4B1C6812191078521C8842C3
:100B400001D00028F9D15446121B1A7047F8040D41
:100B500055F8042B22F0030252F8043B184700001A
:100B600070FA0020080100106D0B000857F8041BF4
:100B700057F8042B10784840107055F8042B22F0D9
:100B8000030252F8043B18478D0B00080A218842E3
:100B900005D157F8040B0D2047F8040D02E00D2194
:100BA000884203D100F080F900F086F955F8042B53
:100BB00022F0030252F8043B18470000C10B000862
:100BC0003868017801290FD0022914D001440A782D
:100BD000622A1AD0252A18D0642A18D0232A16D0BF
:100BE000682A16D0242A14D055F8042B22F00302C8
:100BF00052F8043B184782782E2AE7D155F8042B87
:100C000022F0030252F8043B1847022402E00A24AF
:100C100000E0102400220A70044A146055F8042BE6
:100C200022F0030252F8043B1847000004010010B0
:100C3000350C000857F8040B57F8041BA0FB0120E3
:100C400047F8042D47F8040D55F8042B22F0030251
:100C500052F8043B184700005D0C000857F8040BDD
:100C600057F8043B57F8042B002812D093F0000FDC
:100C70000FD10146B2FBF0F000FB112247F8042D22
:100C800047F8040D55F8042B22F0030252F8043BF8
:100C900018474040401E024647F8042D47F8040D0F
:100CA00055F8042B22F0030252F8043B18470000C9
:100CB000B50C0008044A176855F8042B22F003020B
:100CC00052F8043B1847000014010010D10C000832
:100CD000044A166855F8042B22F0030252F8043B2C
:100CE0001847000018010010ED0C0008044A1168B4
:100CF0008C4655F8042B22F0030252F8043B1847A7
:100D000004010010090D0008044A6146116055F8FD
:100D1000042B22F0030252F8043B18470401001090
:100D200009490A480A4C0160001DA042FBD3094F43
:100D3000094E0FF2280546F8045D55F8042B22F001
:100D4000030252F8043B1847111111110000002052
:100D5000000201206805001058030010AC080008CC
:100D600004410008C02D0008143100082C090008B7
:100D7000FB000000383000082C090008F7000000D4
:100D800038300008143100086019000808CA9F466E
:100D900003B502490868401C086003BD000000104C
:100DA000A50D000856F8045BBDE83F9C4649534832
:100DB0002041524D2020313031302C313130302023
:100DC0002D2045484F4E2F45484F464620446562EA
:100DD00075675372632053544D333246343037565F
:100DE0004720444953434F20403136384D687A20DC
:100DF000524D2056312E372E3220284329323031A1
:100E0000342D3230313820412D5445414D20464F4C
:100E1000525448203A20417072203234203230310E
:100E200038002061742031353A30303A32340015C0
:100E300000206F6B2C20676F206669736820696ED5
:100E40002042415345200000910D0A4750494F2050
:100E50005265676973746572733A0D8A0000000009
:100E6000844E4F4FD0FFFFFF480E0008710E000860
:100E700055F8042B22F0030252F8043B18470000F7
:100E800087455845435554C5600E0008910E00082B
:100E900000F00AF800F010F857F8042B22F00302D3
:100EA00052F8043B184700007246024C2168090AB8
:100EB000FCD31047004800407246024913240C70CE
:100EC00010470000044800407246024911240C708B
:100ED00010470000044800408242CCFF800E00080A
:100EE00019090008200000008255D0FFD80E000824
:100EF00019090008200100108546454E43C5FFFF33
:100F0000E80E0008190900082C0100108244D0FFE7
:100F1000F80E00081909000824010010844241530A
:100F2000C5FFFFFF0C0F000819090008040100109D
:100F30008743555252454ED41C0F0008190900082A
:100F4000300100108553544154C5FFFF300F000895
:100F50001909000810010010834F55D4440F0008F0
:100F6000190900080C0100108249CEFF580F000833
:100F70001909000808010010835041C4680F0008D7
:100F80001909000810FA0020835449C2780F00089C
:100F90001909000870FA002084484552C5FFFFFF78
:100FA000880F0008D9080008140F0008FC1D00086D
:100FB000EC08000885414C4C4FD4FFFF980F000807
:100FC000D908000898090008E81B0008E82800086C
:100FD000082A00088C0A00080800000038030008EE
:100FE000140F0008D41D0008EC08000887414C4984
:100FF000474E45C4B40F0008FD0F000857F8040B16
:10100000C01C0549084047F8040D55F8042B22F090
:10101000030252F8043B1847FCFFFFFF85414C498F
:1010200047CEFFFFEC0F0008D9080008A40F000806
:1010300070270008C0280008681C0008C01B0008B2
:10104000A40F0008E40A00082C090008FF000000B3
:10105000F81A0008681E0008AC0A0008ECFFFFFF41
:101060007C1B00082C090008FCFFFFFF202B000858
:10107000140F0008441E0008EC08000881ACFFFFB4
:101080001C100008D908000898090008082A000860
:101090008C0A0008080000003803000860030008FC
:1010A000EC0800088243ACFF7C100008D908000857
:1010B00098090008082A00088C0A000808000000A7
:1010C00038030008A40F0008681E00085027000815
:1010D00050030008EC08000888564152414C4C4F20
:1010E000D4FFFFFFA4100008D9080008C0090008B9
:1010F000802700084C280008E81B0008E8280008A2
:10110000082A00088C0A0008180000002C090008B2
:10111000E33F000848170008E42F0008641800089F
:10112000F00E0008FC1D00083C1C00088027000889
:1011300010280008F00E0008D41D0008EC08000874
:10114000864C41544553D4FFD8100008D9080008F4
:101150003C0F0008FC1D0008EC080008834C46C149
:10116000401100086911000857F8040B083847F8C7
:10117000040D55F8042B22F0030252F8043B1847E3
:10118000834346C15C1100088D11000857F8040B19
:10119000001F47F8040D55F8042B22F0030252F803
:1011A000043B1847834E46C180110008D908000847
:1011B0009C010008E828000850270008E8280008DB
:1011C000681C0008201E00082C090008FF00000011
:1011D000E82800088C0A0008E0FFFFFF2C0900083F
:1011E000FFFFFFFF14070008EC080008835046C10A
:1011F000A4110008D90800085027000814070008A7
:10120000B0260008681C0008201E00082C090008F1
:10121000FF000000E82800088C0A0008E4FFFFFF38
:101220009C010008C0280008EC080008883F414CD9
:1012300049474E45C4FFFFFFEC110008D9080008DC
:101240002C09000803000000202B00088C0A00086D
:101250003C000000F80300082E56414C5545204D37
:10126000555354204245204556454E204E4F54205C
:101270004F444420414E44204D554C5449504C4518
:10128000204F4620342120FF64180008EC08000895
:10129000863F4552524FD2FF2C120008D908000851
:1012A0003C1C00088C0A0008100000002C150008E7
:1012B000740A0008080000001C1C0008EC08000864
:1012C0008544494749D4FFFF90120008D112000815
:1012D00057F8042B57F8040B303813D4092802DDD3
:1012E000C01F0A280EDB90420CDA0246012047F8A4
:1012F000042D47F8040D55F8042B22F0030252F890
:10130000043B1847002047F8040D55F8042B22F041
:10131000030252F8043B184787454E434C4F53C5D0
:10132000C01200082913000857F8040B396800227E
:10133000521E491E491C521C0B789842FAD047F89D
:10134000042D002B0CD11846521C47F8042D47F8E9
:10135000040D55F8042B22F0030252F8043B184701
:10136000491C521C0B78984201D0002BF8D1104632
:10137000401C47F8042D47F8040D55F8042B22F0C3
:10138000030252F8043B1847C180FFFF18130008FE
:101390009513000856F8045B55F8042B22F003025D
:1013A00052F8043B1847000084574F52C4FFFFFF18
:1013B00088130008D9080008900F0008700F000873
:1013C000FC1D0008C02800083C1C0008241300086D
:1013D000700F0008D41D0008E81B0008E82800086A
:1013E000C01B0008A01B0008A40F0008681E00080E
:1013F000C0280008A40F0008B0260008A01B0008A1
:10140000281D000840270008A40F0008B026000887
:101410007C1B0008C0280008681E0008EC080008B3
:10142000864E554D4245D2FFA8130008D908000842
:10143000E80C0008BC0B0008402700084027000803
:10144000C41A0008681C0008B0260008201E000806
:101450002C0900082D000000102900085027000862
:10146000202B0008681C0008C01B0008C0280008CA
:101470002C090008FFFFFFFF68250008441E000834
:1014800044040008681C0008201E000840270008CB
:10149000E82800088C0A00086C000000681C00089E
:1014A000201E00082C0900082E000000E828000873
:1014B0008C0A000844000000681C0008201E000878
:1014C0002C0900082C000000102900088C0A0008D4
:1014D000140000002C090008FFFFFFFF740A000839
:1014E00098FFFFFF040D0008502700082C09000892
:1014F000274000089C12000840270008740A0008D2
:1015000078FFFFFF1C1C00087C1B00088C0A0008E9
:101510000800000038250008040D0008EC08000849
:10152000854552524FD2FFFF20140008D908000809
:10153000A40F000824170008E42F0008481700082B
:10154000E42F0008B82E0008500F0008FC1D00080A
:101550008C0A0008400000008C060008FC1D0008F2
:101560008C0A0008300000008C060008FC1D0008F2
:10157000F411000864110008FC1D00083C0F00086D
:10158000441E00088C060008FC1D0008140F00080B
:10159000441E00087806000864180008C1A7FFFF71
:1015A00020150008D9080008C8040008DC29000834
:1015B0002C090008194000089C1200081C1C000897
:1015C000581F0008EC080008864558504543D4FFD2
:1015D0009C150008D90800080C020008F801000852
:1015E000B0260008E81B0008C0280008E81B000817
:1015F000B0260008DC2E0008E40A0008803000084D
:10160000880B0008681C00082C090008090000006D
:10161000102900088C0A00080C0000001C1C00089F
:10162000E00E0008681C00089C0100081029000852
:10163000E81B00082C0900087F00000010290008A2
:10164000482B00088C0A0008500000001C1C0008F1
:10165000681C0008F81A00088C26000810290008E9
:10166000681C00087C1B000860270008E8280008A8
:10167000C0280008C01B00088C0A000810000000E9
:1016800088010008740A00086C000000A40100082A
:10169000740A000860000000681C00082C0900089B
:1016A0000D000000102900088C0A00081C00000032
:1016B0005C1B00081C1C0008E00E00084027000806
:1016C000740A000808000000681C0008F81A0008E6
:1016D000681E000850270008700F0008D41D00087D
:1016E00040270008F81A0008B0260008681E000805
:1016F00038300008AC0A000804FFFFFFB82E0008CD
:10170000B0260008481700083C1C00088C2600087A
:10171000681E0008EC08000885434F554ED4FFFFB3
:10172000C8150008D9080008681C0008B026000881
:101730003C1C0008201E0008EC08000884244C45CE
:10174000CEFFFFFF181700084D1700083A68404009
:10175000115C094301D0401CFAE747F8040D55F825
:10176000042B22F0030252F8043B184786464F52DE
:101770004745D4FF3C170008D9080008A415000805
:10178000681C00082C090008000002085429000801
:101790002C0900088A3F00089C120008681C0008F9
:1017A0002C09000800001008542900082C09000822
:1017B000A73F00089C120008681C0008641100087C
:1017C000C01B00084C110008F41100086411000847
:1017D000681C0008FC1D00083C0F0008441E00089F
:1017E000681C0008F8260008FC1D00082C090008E9
:1017F00005090008102900088C0A000814000000E0
:101800002C090008FCFFFFFFF00E0008D41D0008A3
:10181000A01B0008102900088C0A0008A8FFFFFF81
:101820007C1B0008FC1D00083C0F0008441E00083B
:10183000AC110008140F0008441E00084C3A0008C0
:101840001C3A0008EC080008834259C56C170008D0
:1018500055180008FFF764BA8541424F52D4FFFF84
:1018600048180008D9080008B00C0008CC0C000883
:101870000C0200082C0900083C3F00084C1100082D
:10188000E80900088C0A0008100000001C1C000871
:10189000881100088C0E00082C090008380100107F
:1018A000FC1D00088C0A00086C0000002C090008D0
:1018B0001819000848170008E42F0008B83000087D
:1018C0008C0A0008F8FFFFFF803000082C09000890
:1018D00043000000102900088C0A0008E0FFFFFF09
:1018E000803000082C0900084F0000001029000873
:1018F0008C0A0008C8FFFFFF803000082C09000890
:101900000D000000102900088C0A0008B0FFFFFF3E
:1019100014310008EC050008204572726F722048EF
:10192000616C74202845484F4E2F45484F46462944
:10193000202D20546F20434F6E74696E75652054BE
:1019400079706520434F207468656E20456E74651C
:10195000723A200084434F4CC4FFFFFF5818000820
:10196000D908000804070008C4060008EC050008B0
:10197000900D0A464953482053797374656D3A0DAA
:101980008AFFFFFF54190008832E53C870190008FE
:10199000D90800082C0900081000000020020008E7
:1019A000EC080008832E53C488190008D9080008E1
:1019B0002C0900080A00000020020008EC080008BA
:1019C000832E53C2A4190008D90800086027000814
:1019D00020020008EC080008822ED3FFC01900087E
:1019E000D908000818030008FC1D0008181B00088F
:1019F000F826000810290008DC2900088C0A0008D5
:101A000068000000F803000805544F533E20FFFF14
:101A100018030008FC1D0008181B0008F826000821
:101A2000E40A0008F81A0008FC1D0008280F000846
:101A3000FC1D00082C0900080A00000010290008FD
:101A40008C0A000810000000A4020008740A0008B4
:101A500008000000BC020008402F00088027000892
:101A6000D80A0008C0FFFFFFEC0800088432445584
:101A7000D0FFFFFFD81900087D1A000838687A687F
:101A800047F8042D47F8040D55F8042B22F0030203
:101A900052F8043B18470000842D4455D0FFFFFF47
:101AA0006C1A0008D9080008681C00088C0A000895
:101AB00008000000681C0008EC08000883524FD49E
:101AC000981A0008C91A000857F8042B57F8041B85
:101AD00057F8040B47F8041D47F8042D47F8040D88
:101AE00055F8042B22F0030252F8043B184700007B
:101AF00081C9FFFFBC1A0008FD1A0008306847F8CA
:101B0000040D55F8042B22F0030252F8043B184749
:101B1000835350C0F01A00081D1B0008384647F8D0
:101B2000040D55F8042B22F0030252F8043B184729
:101B3000835250C0101B00083D1B0008304647F878
:101B4000040D55F8042B22F0030252F8043B184709
:101B5000854C454156C5FFFF301B0008611B00083E
:101B60003268726055F8042B22F0030252F8043BED
:101B7000184700008252BEFF501B0008811B00085E
:101B800056F8040B47F8040D55F8042B22F0030215
:101B900052F8043B1847000081D2FFFF741B000875
:101BA000A51B0008306847F8040D55F8042B22F0F7
:101BB000030252F8043B1847823ED2FF981B0008EC
:101BC000C51B000857F8041B46F8041D55F8042BE4
:101BD00022F0030252F8043B18470000844F564598
:101BE000D2FFFFFFB81B0008ED1B000857F8042BBD
:101BF00057F8040B47F8040D47F8042D47F8040D77
:101C000055F8042B22F0030252F8043B1847000059
:101C10008444524FD0FFFFFFDC1B0008211C00084A
:101C20003F1D55F8042B22F0030252F8043B1847DD
:101C300084535741D0FFFFFF101C0008411C0008CF
:101C400057F8042B57F8040B47F8042D47F8040DF8
:101C500055F8042B22F0030252F8043B1847000009
:101C6000834455D0301C00086D1C0008386847F8C4
:101C7000040D55F8042B22F0030252F8043B1847D8
:101C8000900D0A537461636B2053747566663A0D48
:101C90008AFFFFFF601C000887414E44424954D32D
:101CA000801C0008A91C000857F8042B57F8041BD7
:101CB00008681040086055F8042B22F0030252F81F
:101CC000043B184787534554424954D3981C000895
:101CD000D51C000857F8042B57F8041B086810435C
:101CE000086055F8042B22F0030252F8043B184711
:101CF00087434C52424954D3C41C0008011D0008BC
:101D000057F8042B57F8041B08689043086055F8EF
:101D1000042B22F0030252F8043B184785434D4F31
:101D200056C5FFFFF01C00082D1D000857F8041BC6
:101D300057F8042B57F8043B002907D01878107087
:101D4000491E002902D0521C5B1CF7D155F8042B08
:101D500022F0030252F8043B184700008446494C25
:101D6000CCFFFFFF1C1D00086D1D000857F8040B79
:101D700057F8041B57F8042B002904D08B18107057
:101D8000521C9A42FBD155F8042B22F0030252F860
:101D9000043B18478545524153C5FFFF5C1D0008B1
:101DA000D908000840270008681D0008EC08000852
:101DB00086424C414E4BD3FF941D0008D9080008C1
:101DC000E00E0008681D0008EC080008822BA1FF47
:101DD000B01D0008D91D000857F8041B57F8040B64
:101DE0000A688018086055F8042B22F0030252F8A4
:101DF000043B184781C0FFFFCC1D0008011E0008EE
:101E000057F8041B086847F8040D55F8042B22F016
:101E1000030252F8043B18478243C0FFF41D000838
:101E2000251E000857F8041B087847F8040D55F8DC
:101E3000042B22F0030252F8043B184781A1FFFF54
:101E4000181E0008491E000857F8040B57F8041B19
:101E5000016055F8042B22F0030252F8043B1847A6
:101E60008243A1FF3C1E00086D1E000857F8040BBA
:101E700057F8041B017055F8042B22F0030252F8A6
:101E8000043B18479F0D0A5265616420616E64200F
:101E90005772697465204D656D6F7279205769744A
:101EA000683A0D8A601E000881DDFFFF841E00086D
:101EB000D90800084C070008C000000010010010FD
:101EC000EC080008C1DBFFFFA81E0008D9080008C5
:101ED0004C0700080000000010010010EC0800088A
:101EE000C95B434F4D50494C45DDFFFFC41E000800
:101EF000D9080008C8040008DC2900082C090008DB
:101F00003F4000089C1200081C1C000888110008B3
:101F100084100008EC080008C8444C49544552415C
:101F2000CCFFFFFFE01E0008D9080008500F000892
:101F3000FC1D00088C0A0008100000003C1C000872
:101F4000581F0008581F0008EC080008C74C4954E7
:101F5000455241CC181F0008D9080008500F00084E
:101F6000FC1D00088C0A000810000000E4040008B2
:101F70002C09000884100008EC0800088223BEFF2A
:101F80004C1F0008D90800081C1C00081C1C000875
:101F900030030008FC1D0008800F0008E81B000843
:101FA000E8280008EC08000884484F4CC4FFFFFFF5
:101FB0007C1F0008D90800082C090008FFFFFFFF5C
:101FC00030030008D41D000830030008FC1D000881
:101FD000681E0008EC08000884534947CEFFFFFF45
:101FE000A81F0008D9080008C41A0008082A000819
:101FF0008C0A0008100000002C0900082D000000C9
:10200000B41F0008EC0800088223D3FFD81F000883
:10201000D90800083C200008E81B0008E81B00085D
:10202000482B0008DC2900088C0A0008E8FFFFFFA5
:10203000EC08000881A3FFFF08200008D908000869
:10204000280F0008FC1D000804050008C41A000839
:102050002C09000809000000E81B000854290008AA
:102060008C0A0008100000002C090008070000007E
:10207000C02800082C09000830000000C028000813
:10208000B41F0008EC080008823CA3FF34200008BD
:10209000D90800084C07000810FA0020440100107D
:1020A000EC08000885444F4553BEFFFF8820000818
:1020B000D90800087C1B00084C110008F411000826
:1020C000681C0008881100082C0900087B0900081A
:1020D0003C1C0008441E0008441E0008EC080008D0
:1020E000873C4255494C44D3A4200008D908000835
:1020F0002C230008EC080008C52B4C4F4FD0FFFFE5
:10210000E0200008D908000870270008B80300087C
:10211000E4040008D80A000864060008EC08000877
:10212000C44C4F4FD0FFFFFFF8200008D90800082B
:1021300070270008B8030008E4040008AC0A00088F
:1021400064060008EC080008C244CFFF2021000804
:10215000D9080008E4040008E40A0008A40F0008F5
:1021600070270008EC080008C5454E4449C6FFFF2B
:1021700048210008D90800087C03000860270008EF
:10218000B8030008A40F0008E81B0008E8280008AE
:102190003C1C0008441E0008EC080008C4544845D4
:1021A000CEFFFFFF68210008D9080008742100084D
:1021B000EC080008C4454C53C5FFFFFF9C210008F4
:1021C000D908000860270008B8030008E4040008E4
:1021D000740A0008A40F00084027000884100008B3
:1021E0003C1C0008602700087421000860270008D4
:1021F000EC080008C249C6FFB4210008D90800084D
:10220000E40400088C0A0008A40F00084027000816
:102210008410000860270008EC080008C5554E54DB
:1022200049CCFFFFF4210008D90800085027000816
:10223000B8030008E40400088C0A000864060008DB
:10224000EC080008C541474149CEFFFF1C220008A9
:10225000D908000850270008B8030008E404000863
:10226000740A000864060008EC080008C6524550CD
:102270004541D4FF44220008D9080008C01B0008CB
:10228000C01B0008502200087C1B00087C1B0008B3
:1022900060270008E828000874210008EC080008FE
:1022A000C55748494CC5FFFF6C220008D9080008F3
:1022B000FC210008D4260008EC080008C542454768
:1022C00049CEFFFFA0220008D90800087C030008BF
:1022D000A40F000850270008EC080008970D0A49D1
:1022E0006E7369646520436F6C6F6E20574F524464
:1022F000533A0D8ABC22000889494D4D4544494155
:1023000054C5FFFFDC220008D90800084C11000862
:102310002C09000840000000680B0008EC080008C9
:10232000864352454154C5FFF8220008D9080008E9
:10233000980900082C0900080F000000E828000890
:10234000082A00088C0A000808000000380300086A
:10235000C80400088C0A0008240000001C1C0008A7
:10236000AC110008582F00082C0900080340000891
:1023700048170008E42F000864180008A40F00089C
:10238000681C00088C060008441E0008681C000831
:10239000201E00082C0900081F000000D02A000899
:1023A00050030008681C00082C0900088000000089
:1023B000680B0008A40F00082C090008800000002A
:1023C000680B000850270008140F0008D41D0008EF
:1023D0004C110008841000083C0F0008441E00083F
:1023E000E404000819090008A40F0008F8260008F2
:1023F00084100008EC08000888434F4E5354414EA7
:10240000D4FFFFFF20230008D90800081C2400087F
:10241000EC08000883434FCEF8230008D9080008D1
:102420002C2300082C090008FCFFFFFF140F0008F4
:10243000D41D00088410000878060008EC08000885
:10244000885641524941424CC5FFFFFF1424000801
:10245000D908000864240008EC080008835641D21B
:1024600040240008D90800082C2300082C09000883
:10247000F8FFFFFF140F0008D41D0008E404000853
:102480000509000850270008E8100008841000081B
:1024900078060008EC080008C1BBFFFF5C240008B8
:1024A000D908000844050008E4040008EC08000806
:1024B000CC1E000878060008EC080008C1BAFFFF2F
:1024C00098240008D90800089C030008300500087B
:1024D0002C230008B01E00082C090008F8FFFFFF9D
:1024E000140F0008D41D0008E4040008D9080008EF
:1024F000EC080008960D0A43524541544520574FB9
:1025000052445320576974683A0D8AFFBC2400086E
:1025100084444142D3FFFFFFF4240008D908000897
:10252000681C0008AC060008EC08000887444E450B
:10253000474154C5102500083D25000857F8040BF5
:1025400057F8042BC043D243521C47F8042D47F8D8
:10255000040D55F8042B22F0030252F8043B1847EF
:10256000834450CC2C2500081909000840010010B4
:1025700083442ED260250008D9080008C01B00083B
:102580003C1C0008E81B00081C25000890200008DF
:1025900010200008E41F0008841F00087C1B0008AE
:1025A000E81B0008E8280008042F0008E42F0008B2
:1025B000EC0800088244AEFF70250008D908000826
:1025C0004027000878250008402F0008EC08000884
:1025D0008244ABFFB4250008DD25000857F8040B42
:1025E00057F8041B57F8043B57F8042B521858416E
:1025F00047F8042D47F8040D55F8042B22F0030288
:1026000052F8043B1847000084532D3EC4FFFFFFDF
:10261000D02500081926000857F8042B4040124323
:1026200000D5401E47F8042D47F8040D55F8042B3B
:1026300022F0030252F8043B184700008232AAFF3E
:10264000082600084926000857F8040B400047F800
:10265000040D55F8042B22F0030252F8043B1847EE
:102660008232AFFF3C2600086D26000857F8040BA5
:10267000401047F8040D55F8042B22F0030252F8DD
:10268000043B18478231ADFF602600089126000800
:1026900057F8040B401E47F8040D55F8042B22F0A0
:1026A000030252F8043B18478231ABFF842600082E
:1026B000B526000857F8040B401C47F8040D55F8E0
:1026C000042B22F0030252F8043B18478232ABFF7E
:1026D000A8260008D926000857F8040B801C47F8E4
:1026E000040D55F8042B22F0030252F8043B18475E
:1026F0008234ABFFCC260008FD26000857F8040BF7
:10270000001D47F8040D55F8042B22F0030252F87F
:10271000043B18478234ADFFF0260008212700084B
:1027200057F8040B001F47F8040D55F8042B22F04E
:10273000030252F8043B184781B0FFFF142700083A
:10274000190900080000000081B1FFFF38270008C8
:10275000190900080100000081B2FFFF48270008A6
:10276000190900080200000081B3FFFF5827000884
:10277000190900080300000081B4FFFF6827000862
:102780001909000804000000824DAAFF78270008FC
:10279000D9080008781A0008942B0008C01B00080C
:1027A000B82A00083C1C0008B82A0008300C0008B1
:1027B0007C1B0008AC060008EC080008824DAFFF47
:1027C00088270008D9080008E81B0008C01B00087B
:1027D000C01B00081C250008A01B0008B82A000820
:1027E000580C00087C1B0008A01B0008942B000854
:1027F000940600083C1C00087C1B00089406000896
:102800003C1C0008EC08000881AAFFFFBC27000858
:10281000D9080008902700081C1C0008EC080008D4
:10282000842F4D4FC4FFFFFF08280008D908000877
:10283000C01B0008142600087C1B0008C4270008E1
:10284000EC08000881AFFFFF20280008D908000825
:102850002C2800083C1C00081C1C0008EC08000880
:10286000834D4FC444280008D90800082C280008CC
:102870001C1C0008EC080008852A2F4D4FC4FFFFE0
:1028800060280008D9080008C01B0008902700082D
:102890007C1B0008C4270008EC080008822AAFFF50
:1028A00078280008D9080008842800083C1C000883
:1028B0001C1C0008EC08000881ABFFFF9C280008E6
:1028C000C528000857F8040B57F8041B401847F8B0
:1028D000040D55F8042B22F0030252F8043B18476C
:1028E00081ADFFFFB8280008ED28000857F8040B59
:1028F00057F8041B081A47F8040D55F8042B22F06A
:10290000030252F8043B184781BDFFFFE02800088E
:1029100015290008404057F8040B57F8041B401ACB
:1029200009D0404047F8040D55F8042B22F003026B
:1029300052F8043B1847013847F8040D55F8042BAA
:1029400022F0030252F8043B1847000081BCFFFF4D
:1029500008290008592900084040013857F8041B8D
:1029600057F8042B914200DC404047F8040D55F81D
:10297000042B22F0030252F8043B18478255BCFF97
:102980004C290008D9080008781A0008942B000880
:10299000082A00088C0A0008180000001C1C000807
:1029A000082A0008DC290008740A00080C0000004E
:1029B000E8280008082A0008EC08000881BEFFFF8C
:1029C0007C290008D90800083C1C0008542900088C
:1029D000EC0800088230BDFFBC290008E12900088E
:1029E000404057F8041B002900D1401E47F8040D51
:1029F00055F8042B22F0030252F8043B184700005C
:102A00008230BCFFD42900080D2A000857F8041BA7
:102A100040400138094300D4404047F8040D55F8C0
:102A2000042B22F0030252F8043B1847834249CE9C
:102A3000002A0008D90800084C070008020000001E
:102A400004010010EC080008834845D82C2A00082F
:102A5000D90800084C07000810000000040100100D
:102A6000EC08000887444543494D41CC482A0008FA
:102A7000D90800084C0700080A00000004010010F3
:102A8000EC080008864E45474154C5FF642A0008FB
:102A9000952A000857F8040BC043401C47F8040D62
:102AA00055F8042B22F0030252F8043B18470000AB
:102AB000834142D3842A0008D9080008681C000812
:102AC00094060008EC080008834D49CEB02A00089F
:102AD000D9080008781A0008C42900088C0A0008E0
:102AE000080000003C1C00081C1C0008EC08000842
:102AF000834D41D8C82A0008D9080008781A000870
:102B0000542900088C0A0008080000003C1C00083A
:102B10001C1C0008EC08000883414EC4F02A000881
:102B2000252B000857F8040B57F8041B084047F8FA
:102B3000040D55F8042B22F0030252F8043B184709
:102B4000824FD2FF182B00084D2B000857F8040BBA
:102B500057F8041B084347F8040D55F8042B22F0DE
:102B6000030252F8043B1847834E4FD4402B000811
:102B7000752B000857F8040BC04347F8040D55F8AF
:102B8000042B22F0030252F8043B184783584FD21B
:102B9000682B0008992B000857F8040B57F8041B02
:102BA000484047F8040D55F8042B22F0030252F870
:102BB000043B184784535854C8FFFFFF8C2B000870
:102BC000C52B000857F8040B00B247F8040D55F860
:102BD000042B22F0030252F8043B18478453585444
:102BE000C2FFFFFFB42B0008ED2B000857F8040BC1
:102BF00040B247F8040D55F8042B22F0030252F8B6
:102C0000043B184784524556D7FFFFFFDC2B0008D2
:102C1000152C000857F8040B00BA47F8040D55F8B6
:102C2000042B22F0030252F8043B1847834153D28D
:102C3000042C0008392C000857F8042B57F8040B13
:102C4000104147F8040D55F8042B22F0030252F806
:102C5000043B1847834C53D22C2C0008612C0008ED
:102C600057F8042B57F8040BD04047F8040D55F8DB
:102C7000042B22F0030252F8043B1847834C53CC38
:102C8000542C0008892C000857F8042B57F8040B23
:102C9000904047F8040D55F8042B22F0030252F837
:102CA000043B1847822ED2FF7C2C0008D90800086C
:102CB000C01B0008142600087C1B000878250008AB
:102CC000EC080008832E52D5A42C0008D90800086F
:102CD000C01B0008402700089020000810200008B2
:102CE000841F0008681C00087C1B00083C1C0008AE
:102CF000E8280008042F0008E42F0008EC0800086A
:102D00008255AEFFC42C0008D908000840270008EF
:102D1000BC250008EC08000881BFFFFF002D00085B
:102D2000D9080008FC1D0008382D0008EC08000830
:102D300081AEFFFF182D0008D908000814260008EE
:102D4000BC250008EC080008822EC2FF302D0008C8
:102D5000D908000860270008D4020008EC08000821
:102D6000822EC8FF482D0008D90800082C09000849
:102D700010000000D4020008EC080008822EC4FFF6
:102D8000602D0008D90800082C0900080A0000007E
:102D9000D4020008EC080008910D0A4E554D42453A
:102DA000522053747566663A0D8AFFFF7C2D000829
:102DB0008A55415254335F494E49D4FF982D00083B
:102DC000D90800082C09000800020120FC1D000899
:102DD000DC2900088C0A00081C0000002C090008EF
:102DE00004020120FC1D0008C01B0008740A000832
:102DF000100000002C09000880250000C01B0008FE
:102E00002C09000880DE80027C1B00084C2800088A
:102E10002C09000808480040441E0008EC0800087F
:102E2000864D59424155C4FFB02D0008D90800080D
:102E30004C07000800000000000201202C090008D7
:102E400004020120441E0008EC0800088955415284
:102E500054335F4C53D2FFFF202E0008612E000830
:102E60000549087847F8040D55F8042B22F00302B1
:102E700052F8043B18470000004800408855415272
:102E800054335F52D8FFFFFF4C2E00081909000889
:102E9000044800408855415254335F54D8FFFFFF27
:102EA0007C2E0008190900080448004084584F4649
:102EB000C6FFFFFF942E0008BD2E0008FDF7F4FFAB
:102EC000FDF7FAFF55F8042B22F0030252F8043BF9
:102ED0001847000083584FCEAC2E0008E12E0008A2
:102EE000FDF7E2FFFDF7F0FF55F8042B22F0030297
:102EF00052F8043B18470000865350414345D3FF26
:102F0000D42E0008D908000840270008F82A000835
:102F1000A41A00088C0A00081800000040270008C6
:102F2000E40A0008402F0008AC0A0008F8FFFFFF81
:102F3000EC0800088553504143C5FFFFF82E0008F8
:102F4000D9080008E00E000838300008EC08000836
:102F5000834944AE342F0008D9080008241700081C
:102F60002C0900081F000000202B0008E42F000897
:102F7000402F0008EC080008C22EA2FF502F0008C6
:102F8000D90800082C09000822000000500F000892
:102F9000FC1D00088C0A00082C000000E404000856
:102FA000F8030008B4130008A40F0008201E00084E
:102FB000B0260008F80F000850030008740A000843
:102FC00014000000B4130008A40F00082417000820
:102FD000E42F0008EC08000884545950C5FFFFFF97
:102FE000782F0008D9080008A41A00088C0A0008E5
:102FF00034000000B82E0008E81B0008C0280008B4
:103000003C1C0008E40A0008F81A0008080B000835
:1030100038300008AC0A0008F0FFFFFF740A00080F
:10302000080000001C1C0008EC08000884454D49FD
:10303000D4FFFFFFD82F00083D30000857F8040BDD
:10304000FDF732FF0649087006490868401C086011
:1030500055F8042B22F0030252F8043B18470000F5
:10306000044800400C010010834B45D92C30000867
:10307000D9080008DC2E000880300008EC080008A1
:1030800085300008074A084B19688909FCD3106885
:1030900047F8040D55F8042B22F0030252F8043BC4
:1030A000184700000448004000480040843F4B455A
:1030B000D9FFFFFF68300008BD300008FDF7F4FEBF
:1030C000FDF702FF4040074B1968890900D301381A
:1030D00047F8040D55F8042B22F0030252F8043B84
:1030E0001847000000480040834352D3AC3000082A
:1030F000D908000840270008E40A00081431000835
:10310000AC0A0008F8FFFFFFEC0800088243D2FF7A
:10311000E8300008D90800080C020008F80300088D
:10312000020D0AFFEC0800088C0D0A46495348209E
:10313000494F3A0D8AFFFFFF0C3100088B4952516D
:10314000535F524553554DC5283100085131000891
:1031500001F018F955F8042B22F0030252F8043B51
:10316000184700008C495251535F53555350454EF8
:10317000C4FFFFFF3C3100087D31000801F000F979
:1031800055F8042B22F0030252F8043B18470000C4
:103190008F5359535449434B5F4952515F4F46C671
:1031A00064310008A931000804490520086055F879
:1031B000042B22F0030252F8043B184710E000E011
:1031C0008E5359535449434B5F4952515F4FCEFF81
:1031D00090310008D931000804490720086055F8EB
:1031E000042B22F0030252F8043B184710E000E0E1
:1031F0008F0D0A494E54455252555054533A0D8A38
:10320000C03100088A464C4153485F534156C5FFC0
:10321000F0310008D90800084C1100082C3B0008C8
:10322000542900088C0A000820000000143100080E
:10323000F80300080F4E4F5448494E4720544F2082
:1032400053415645EC08000814330008FC1D0008E3
:103250002C09000800001008102900088C0A00083A
:103260002800000014310008F8030008144C4153F2
:103270005420464C41534820415641494C20555317
:103280004544FFFFEC08000828100008F00E000875
:10329000FC1D000824330008441E00084C110008DF
:1032A0002C3300081C330008441E00084C11000891
:1032B0002C3B0008102900088C0A00084800000078
:1032C000C83700082C3B0008140F0008441E0008F3
:1032D00024330008FC1D0008F00E0008441E0008FE
:1032E0001C330008FC1D00083C0F0008441E0008A9
:1032F000D8340008143100084C3A00081C3A000881
:10330000EC0800084C11000858330008740A000843
:103310009CFFFFFF1909000804000020190900089C
:1033200008000020190900080C00002031330008B3
:1033300057F8040B064A1040064A1268801847F8EE
:10334000040D55F8042B22F0030252F8043B1847F1
:10335000FFFF0F0004000020D9080008F411000846
:10336000681C0008C01B000888110008681C0008C1
:10337000FC1D00082C0900087B0900081029000822
:103380008C0A000828000000F8260008681C0008C5
:10339000681C0008FC1D00082C3300083C1C0008B9
:1033A000441E0008740A000800010000681C0008A0
:1033B000FC1D00082C090008190900081029000844
:1033C000E81B0008FC1D00082C090008050900087E
:1033D00010290008482B00088C0A00081000000083
:1033E0001C1C0008740A0008C4000000F82600082D
:1033F000681C0008FC1D00082C0900082C090008A6
:10340000102900088C0A000810000000F8260008A7
:10341000740A0008D8FFFFFF681C0008FC1D0008A4
:103420002C090008F8030008102900088C0A00087D
:1034300020000000681C0008F8260008201E000874
:10344000C0280008F80F0008740A0008A0FFFFFF5A
:10345000681C0008FC1D00082C090008EC08000886
:1034600010290008DC2900088C0A00083C00000034
:10347000681C0008FC1D00082C3B0008C42900083B
:103480008C0A000868FFFFFF681C0008681C000821
:10349000FC1D00082C3300083C1C0008441E0008DA
:1034A000740A000848FFFFFF1C1C00087C1B000872
:1034B00064110008681C0008FC1D0008681C000856
:1034C0003C0F0008441E00082C3300083C1C000878
:1034D000441E0008EC080008D90800082C09000860
:1034E00000000208681C00082C09000804000020E5
:1034F000441E0008681C0008C01B0008FC1D0008D2
:10350000143C0008E82800088C0A0008100000009D
:103510007C1B00081C1C0008EC080008A01B00080D
:1035200014330008441E0008A01B00082C090008E2
:1035300008000000C0280008681C0008FC1D0008E6
:103540003C0F0008441E0008F8260008FC1D000877
:10355000F00E0008441E000814310008F8030008AB
:1035600017414444454420574F5244532046524F3C
:103570004D204144445220FFA01B0008682D000844
:103580007C1B0008F8260008FC1D0008740A0008CF
:1035900054FFFFFFD9080008681C0008C028000875
:1035A000C01B0008681C0008FC1D0008B0260008AD
:1035B0008C0A00083800000014310008F8030008E5
:1035C000174552415345442042414420464C415303
:1035D0004820504147452020682D00081C1C000849
:1035E0007C1B00081C1C0008EC080008F8260008DA
:1035F000681C0008681C0008A01B00083C1C000890
:10360000E82800088C0A00080C000000740A000872
:1036100098FFFFFF14310008F80300080E464C41E4
:1036200053482050414745204F4B20FFE8280008D1
:10363000682D00087C1B00081C1C0008EC08000812
:103640008C464C4153485F464F524745D4FFFFFFDD
:1036500004320008D9080008F80300081754414B49
:1036600045532041424F55542036205345434F4E39
:1036700044532120783100084C3900082C390008C7
:103680004C0700082A020100103C02402C390008B7
:103690004C07000832020100103C02402C3900089F
:1036A0004C0700083A020100103C02402C39000887
:1036B0004C07000842020100103C02402C3900086F
:1036C0004C0700084A020100103C02402C39000857
:1036D0004C07000852020100103C02402C3900083F
:1036E0004C0700085A020100103C02402C39000827
:1036F0006C3900084C310008403B00084C110008B0
:10370000C42900088C0A000810000000B43E00081C
:10371000740A00081C0000002C0900081C3F000867
:103720002C3B0008F411000864110008441E000836
:103730004C07000800000208040000202C090008C3
:1037400011111111681C00081C330008441E0008E8
:1037500024330008441E0008D8340008143100083F
:103760004C3A00081C3A0008EC08000871370008C1
:1037700057F8040B57F8041B064A50F8044B42F85C
:10378000044B8842F9D155F8042B22F0030252F879
:10379000043B1847D0FE00202C090008D0FE002072
:1037A0008C0E0008EC080008D90800082C09000855
:1037B000803900082C090008D43800086C3700084C
:1037C00098370008EC080008D9080008783100088C
:1037D0004C3900082C3900084C0700080102000091
:1037E000103C024014330008FC1D0008C01B0008F8
:1037F0002C0900081000000014330008D41D000834
:10380000A40F0008C01B00082C3B0008681C00081F
:10381000FC1D000814330008FC1D0008441E0008AD
:103820002C3900088027000814330008D41D000834
:10383000F8260008681C0008A01B0008E8280008FB
:103840008C0A00080C000000740A0008C0FFFFFF8B
:103850007C1B00081C1C00081C1C00082C0900080C
:1038600000000020FC1D0008A01B0008441E0008EA
:103870002C39000814330008FC1D0008A01B0008A8
:10388000F8260008441E00082C3900081C330008E4
:10389000FC1D0008A01B00089C010008C0280008AF
:1038A000441E00082C39000824330008FC1D0008C1
:1038B0007C1B00082C0900080C000000C028000830
:1038C000441E00082C3900086C3900084C310008EF
:1038D000EC080008D90800085436000878310008C0
:1038E0004C3900082C3900084C0700080102000080
:1038F000103C02404C0700080000020804000020B1
:103900002C09000810000000140F0008D41D000846
:103910006C0E0008C83700086C0E0008543600080A
:103920006C3900084C310008EC08000831390008F7
:10393000054908680004FCD255F8042B22F0030264
:1039400052F8043B184700000C3C0240D90800081C
:103950004C07000823016745043C02404C0700085F
:10396000AB89EFCD043C0240EC080008D908000800
:103970004C07000800000080103C0240EC080008E2
:1039800084504F46C6FFFFFF40360008D9080008A4
:103990004C0700080000000034010010EC0800088B
:1039A00083504FCE80390008D90800084C07000822
:1039B000310E000834010010EC08000881D0FFFF30
:1039C000A039000819090008340100108545484F46
:1039D00046C6FFFFBC390008D90800084027000888
:1039E0002C09000838010010441E0008EC080008EB
:1039F0008445484FCEFFFFFFCC390008D9080008A6
:103A0000502700082C09000838010010441E000847
:103A1000EC080008832E44D3F0390008D9080008C8
:103A200098090008E80C0008842D0008040D00081F
:103A30002C090008583F000848170008E42F000828
:103A4000EC080008832E56D3143A0008D908000861
:103A5000C0090008E80C0008802700084C2800086E
:103A6000842D0008040D00082C0900084D3F0008B3
:103A700048170008E42F0008EC0800088444554D5E
:103A8000D0FFFFFF443A0008D9080008E81B0008EF
:103A90003C120008E80C0008502A000840270008E3
:103AA000E40A000814310008681C00082C0900080A
:103AB0000A000000CC2C00088027000840270008DE
:103AC000E40A0008681C0008FC1D00082C09000816
:103AD0000E000000CC2C0008F8260008AC0A0008F4
:103AE000E4FFFFFFB83000088C0A0008080000005F
:103AF0005C1B0008AC0A0008ACFFFFFF1C1C0008A0
:103B000014310008040D0008EC08000885564241F5
:103B100053C5FFFF7C3A0008190900080400001093
:103B20008544424153C5FFFF0C3B000819090008BA
:103B3000100000208552424153C5FFFF203B000882
:103B4000190900080000002083434CD3343B0008CF
:103B5000D9080008F8030008041B5B324AFFFFFF86
:103B6000F8030008041B5B3B48FFFFFF143100080B
:103B7000EC080008C1A8FFFF483B0008D90800086E
:103B80002C09000829000000280B0008DC29000887
:103B90008C0A000834000000143100082C090008C9
:103BA0001000000038300008200400082C0900082C
:103BB00071FA0020201E00088C0A00081000000086
:103BC000740A0008BCFFFFFFEC0800082C0900087D
:103BD0006A3F000848170008E42F0008EC080008B6
:103BE000C1DCFFFF743B0008D9080008402700082B
:103BF000900F0008700F0008FC1D0008C028000886
:103C0000681E0008EC08000886535953434CCBFF4C
:103C1000E03B0008193C00080549086847F8040D16
:103C200055F8042B22F0030252F8043B1847000019
:103C3000000000208553544354D2FFFF083C000885
:103C400019090008000000108544454C41D9FFFFC8
:103C5000343C0008593C000857F8041B57F8040B83
:103C60000C4CC043401C20600B4A11600B4A116091
:103C7000002806D00A4A106807211160216800292F
:103C8000FCD1106055F8042B22F0030252F8043BDB
:103C9000184700000000001014E000E018E000E009
:103CA00010E000E0824DD3FF483C0008D90800082E
:103CB0002C0900083F900200543C0008EC08000862
:103CC00087574F52444341D4A43C0008D908000808
:103CD000A40F0008C01B000840270008AC10000813
:103CE0002C0900080D000000AC100008A40F00080B
:103CF0002C0900080D000000B4130008681C00081F
:103D0000201E00082C0900080A000000C41A000840
:103D1000681E0008681C0008B0260008C00F0008D4
:103D20002C09000884000000C0280008A01B00081F
:103D3000681E00082C0900080D000000AC100008E7
:103D40002C0900088A000000AC10000828100008A8
:103D50004C110008841000087C1B00082C09000886
:103D600030010010441E0008EC08000885574F522F
:103D700044D3FFFFC03C0008D908000870270008A2
:103D8000042F00084C110008B82E00084027000836
:103D9000E81B0008B0260008201E00082C090008B7
:103DA0000D00000010290008DC2900088C0A00081A
:103DB0001C0000001C1C0008681C0008F41100080E
:103DC00064110008E81B0008E8280008600F0008DC
:103DD000FC1D0008C02800082C0900084A0000004B
:103DE000C42900088C0A00081000000014310008E3
:103DF00070270008042F0008681C0008040F000842
:103E0000FC1D0008542900088C0A00080C00000062
:103E1000740A000854000000681C0008582F0008AD
:103E200060270008042F0008681C0008B02600085E
:103E3000201E00082C0900080D00000010290008B1
:103E40008C0A0008080000000C020008F4110008A9
:103E500064110008FC1D0008681C0008DC2900082B
:103E60008C0A000828FFFFFF1C1C00081431000802
:103E7000EC080008874D59574F5244D36C3D000859
:103E8000D90800084C070008000002082C010010A7
:103E9000783D00084C070008000000002C010010CD
:103EA000EC08000889464953485F4F4E4CD9FFFF44
:103EB000743E0008B93E000809490A4C21600A4CCA
:103EC00021600A490A4C21600A4C21600A490B4CC6
:103ED000216055F8042B22F0030252F8043B1847E6
:103EE0001C3F0008300100100800002004000010F2
:103EF000200100100C000020100000202401001000
:103F000084464953C8FFFFFFA43E0008D9080008B3
:103F1000D8340008C4060008EC080008990D0A46C9
:103F2000495348205265666572656E6365204D6F22
:103F300064656C3A0D8AFFFF003F00080352554E3E
:103F40002000203F2000203C43523E20005641529A
:103F50002043454C4C53200044494354494F4E4163
:103F60005259204259544553200020434F4D4D454E
:103F70004E54204C494E452043414E4E4F54204212
:103F80004520454D5054592015002043414E5420A2
:103F9000464F52474554204649534820494E2046F3
:103FA0004C41534820150020494E20464C4153486F
:103FB000202D2053454520464C4153485F464F52E3
:103FC0004745542015002044494354494F4E41521F
:103FD000592046554C4C202D20534545202E445306
:103FE0002015002052414D2056415220535041434C
:103FF000452046554C4C202D20534545202E5653E8
:1040000020150020495320414C5245414459204439
:104010004546494E4544201500203F204E4F542030
:10402000574F5244201500203F204E4F5420574FE9
:104030005244204F52204E554D42455220150020EB
:10404000434155534544204120535441434B20455F
:1040500052524F5220150020535441434B20455299
:10406000524F52205748494C4520455845435554D6
:10407000494E47204F5220434F4D50494C494E47DF
:10408000201500204552524F52202D204E4F5420D3
:10409000434F4D50494C494E472015002045525240
:1040A0004F52202D204558454355544544205748EC
:1040B000494C4520434F4D50494C494E472015002F
:1040C000D90800084C07000805070000003C024022
:1040D000EC080008D940000840F20004C2F20104D4
:1040E0004FF000034FF0800C53F8042B44F8042BDE
:1040F000BCF1010CF8D155F8042B22F0030252F860
:10410000043B1847D9080008D44000084C070008B1
:104110000000012008ED00E06407000800380240BC
:104120008007000801000000C007000800380240B6
:104130004C0700080000000008380240640700082F
:1041400000380240A0070008FFFFF6FEC007000885
:10415000003802404C0700081030002404380240A8
:104160006407000800380240A0070008FFFFFBFFBB
:10417000C0070008003802404C070008000000009B
:104180000C3802406407000800380240800700082D
:1041900000000100C0070008003802403C08000889
:1041A0006407000800380240A00700080000020071
:1041B00054080008640700084038024080070008DF
:1041C00000000010C00700084038024064070008E3
:1041D000007000408007000800400000C007000891
:1041E000007000402C090008083802402C09000823
:1041F00000000000D01C00082C090008083802400C
:104200002C09000800800000D01C00082C090008C0
:10421000083802402C09000800140000D01C0008D7
:104220004C0700080854400704380240640700089F
:10423000003802408007000800000001C0070008A5
:10424000003802403C0800086407000800380240BB
:10425000A00700080000000254080008C040000841
:104260006407000808380240A0070008FCFFFFFFB1
:10427000C0070008083802406407000808380240F8
:104280008007000802000000C0070008083802404C
:104290003C0800086407000808380240A00700082E
:1042A0000C0000002C09000808000000102900087C
:1042B000540800084C0700080030005084380240C1
:1042C000640700080038024080070008000000046E
:1042D000C0070008003802403C08000864070008D6
:1042E00000380240A0070008000000085408000839
:1042F0004C070008007A030A000000202C0900087F
:10430000303802402C09000887000000D01C00084B
:104310002C090008403802402C0900080000040065
:10432000D01C00084C070008007700002408024059
:104330000C080008000802400300F0000100A00083
:104340004C0700080C2000000C4800404C070008F7
:104350000700000010E000E0EC080008BFF34F8FFA
:104360000548016811F4E061044801430248016016
:10437000BFF34F8FFEE700000CED00E00400FA05EC
:1043800072B6704762B6704780B5FFF7E7FF01BDB0
:104390004EF68851CEF20001086840F470000860C3
:1043A000BFF34F8FBFF36F8F4FF00070E1EE100A35
:1043B00070470000FCF7B4BCFFF7FEBFFFF7FEBF7D
:1043C000FFF7FEBFFFF7FEBFFFF7FEBFFFF7FEBF21
:1043D000FFF7FEBFFCF7DCBCFFF7FEBFFFF7FEBF39
:1043E000FFF7FEBFFFF7FEBFFFF7FEBFFFF7FEBF01
:1043F000FFF7FEBFFFF7FEBFFFF7FEBFFFF7FEBFF1
:10440000FFF7FEBFFFF7FEBFFFF7FEBFFFF7FEBFE0
:10441000FFF7FEBFFFF7FEBFFFF7FEBFFFF7FEBFD0
:10442000FFF7FEBFFFF7FEBFFFF7FEBFFFF7FEBFC0
:10443000FFF7FEBFFFF7FEBFFFF7FEBFFFF7FEBFB0
:10444000FFF7FEBFFFF7FEBFFFF7FEBFFFF7FEBFA0
:10445000FFF7FEBFFFF7FEBFFFF7FEBFFFF7FEBF90
:10446000FFF7FEBFFFF7FEBFFFF7FEBFFFF7FEBF80
:10447000FFF7FEBFFFF7FEBFFFF7FEBFFFF7FEBF70
:10448000FFF7FEBFFFF7FEBFFFF7FEBFFFF7FEBF60
:10449000FFF7FEBFFFF7FEBFFFF7FEBFFFF7FEBF50
:1044A000FFF7FEBFFFF7FEBFFFF7FEBFFFF7FEBF40
:1044B000FFF7FEBFFFF7FEBFFFF7FEBFFFF7FEBF30
:1044C000FFF7FEBFFFF7FEBFFFF7FEBFFFF7FEBF20
:1044D000FFF7FEBFFFF7FEBFFFF7FEBFFFF7FEBF10
:1044E000FFF7FEBFFFF7FEBFFFF7FEBFFFF7FEBF00
:1044F000FFF7FEBFFFF7FEBFFFF7FEBFFFF7FEBFF0
:10450000FFF7FEBFFFF7FEBFFFF7FEBFFFF7FEBFDF
:10451000FFF7FEBFFFF7FEBFFFF7FEBFFFF7FEBFCF
:0400000500000000F7
:00000001FF
