:020000040800F2
:1000000000000220654300086943000839430008E6
:100010006D430008714300087543000800000000AC
:10002000000000000000000000000000794300080C
:100030007D4300080000000081430008854300085C
:10004000894300088D430008914300089543000848
:10005000994300089D430008A1430008A5430008F8
:10006000A9430008AD430008B1430008B5430008A8
:10007000B9430008BD430008C1430008C543000858
:10008000C9430008CD430008D1430008D543000808
:10009000D9430008DD430008E1430008E5430008B8
:1000A000E9430008ED430008F1430008F543000868
:1000B000F9430008FD430008014400080544000816
:1000C000094400080D4400081144000815440008C4
:1000D000194400081D440008214400082544000874
:1000E000294400082D440008314400083544000824
:1000F000394400083D4400084144000845440008D4
:10010000494400084D440008514400085544000883
:10011000594400085D440008614400086544000833
:10012000694400086D4400087144000875440008E3
:10013000794400087D440008814400088544000893
:10014000894400088D440008914400089544000843
:10015000994400089D440008A1440008A5440008F3
:10016000A9440008AD440008B1440008B5440008A3
:10017000B9440008BD440008C1440008C544000853
:10018000C9440008CD4400089D080008F008000894
:1001900007000000E82F0008B0080008DD0800088C
:1001A000080000009D0800089C010008E82F0008D6
:1001B000F02E00089C010008E82F0008F008000855
:1001C000FDFFFFFF240F0008841D0008B008000891
:1001D0009D08000810070008000000000C01001036
:1001E000B00800089D080008AC0C0008EC0E0008E0
:1001F000F41D000890190008C80C0008B008000899
:100200009D080008EC0E0008AC1D0008181C000832
:1002100010270008C0280008500A00081800000035
:10022000F008000862000000E82F0008CC1B00085E
:10023000B0080008F00800080A000000C028000804
:10024000500A000814000000F008000864000000D4
:10025000E82F0008B0080008F00800086800000057
:10026000E82F0008B00800089D080008C425000811
:10027000F02600082825000800020008B008000841
:100280009D080008F0260008F02600082825000830
:1002900000020008B00800089D080008AC0C000827
:1002A000181C0008EC0E0008F41D0008F0080008F7
:1002B0000A000000C0280008500A000810000000D2
:1002C00068020008380A00080800000080020008E0
:1002D000F02E0008C80C0008B0080008DD0800086F
:1002E00014010010DD08000818010010DD080008E6
:1002F0003C010010DD080008440100109D080008C2
:10030000F0080008763F0008F8160008942F00084F
:10031000141800089D080008D80E0008841D000865
:10032000B00800089D080008EC0F0008680F0008DE
:10033000F41D00083027000814030008B008000866
:100340009D080008140F0008AC1D00088C29000847
:10035000F00800083340000860120008B0080008E8
:100360009D080008140F0008AC1D0008F0080008E4
:100370004C40000860120008B00800089D08000802
:1003800098280008F00800080740000860120008DC
:10039000B00800089D080008C81A0008DC02000820
:1003A000AC1D0008EC1B000834290008F008000808
:1003B000EF3F000860120008B00800089D08000820
:1003C0002C1B0008181C0008D4160008942F0008E5
:1003D000D416000870280008BC0F0008701B000825
:1003E000B00800089D080008540F0008F008000835
:1003F0005E000000981500081007000801000000CA
:1004000008010010B00800089D08000860260008D8
:10041000181C0008701B0008D01D0008EC0E000816
:10042000AC1D000890120008500A00085800000097
:10043000EC1B0008EC0E0008AC1D0008F40B0008D3
:10044000CC1B0008741A0008EC0E0008AC1D000854
:10045000F40B00088825000818250008AC1D0008CA
:1004600060260008500A000810000000002700085D
:1004700018250008841D00082C1B0008380A0008F5
:100480008CFFFFFF2C1B0008B00800089D08000827
:10049000A40E000878130008680F00081011000867
:1004A000AC090008B00800089D0800082C1B0008D3
:1004B000181C0008A8260008701B0008AC1D0008C6
:1004C00024030008B00800089D080008701B0008FD
:1004D000F0260008501B00081C0C00082C1B00080C
:1004E000EC1B0008701B00081C0C00082C1B0008EB
:1004F000B00800089D080008C81A0008EC020008AF
:10050000F41D0008B00800089D080008C81A00087B
:10051000EC020008AC1D000898280008F00800084C
:10052000EF3F000860120008B00800089D080008AE
:100530008C040008500A00083C000000140F00085A
:10054000AC1D000804290008500A0008140000002F
:100550004C11000824030008380A00080C000000B1
:100560004C110008500E000894030008380A0008D7
:10057000C0FFFFFF680F0008F013000818250008EF
:10058000AC1D000860260008500A0008100000009A
:10059000D81E0008380A00080C000000CC1B000818
:1005A000081F000894030008380A000884FFFFFFB2
:1005B0009D0800087C1E0008740C0008900C0008C0
:1005C000E40300082C050008140F0008AC1D000807
:1005D0008C290008500A000838000000F0080008C4
:1005E00034010010AC1D0008500A0008240000006F
:1005F000F008000834010010AC1D0008F8160008CF
:10060000942F0008EC0E0008AC1D0008342D0008E3
:10061000F008000810000000E82F0008C4300008AF
:10062000380A000898FFFFFF9D080008680F0008BF
:100630009828000848100008B00800089D08000825
:10064000100700080000000028010010B008000892
:10065000DD080008280100109D080008B8290008DE
:10066000500A000808000000402A0008B0080008EE
:100670009D080008B8290008500A0008080000007A
:10068000E8240008B00800089D080008C4300008ED
:10069000F0080008700D0008F8160008942F0008F4
:1006A000F0080008E60D0008F8160008942F00086E
:1006B000F0080008F30D0008F8160008942F000851
:1006C000C4300008B00800089D0800087008000841
:1006D00088340008B00800089D080008EC1B0008DA
:1006E000981B000870280008F00800087F00000030
:1006F000981B0008D01D000804290008500A0008B3
:10070000E0FFFFFFEC1B0008CC1B0008B00800084E
:100710001507000802CD04CD116055F8042B22F016
:10072000030252F8043B18472D07000855F8040B44
:10073000006847F8040D55F8042B22F0030252F824
:10074000043B18474907000855F8042B57F8040BD9
:10075000104347F8040D55F8042B22F0030252F819
:10076000043B18476907000855F8042B57F8040B99
:10077000104047F8040D55F8042B22F0030252F8FC
:10078000043B18478907000855F8043B57F8040B49
:10079000186055F8042B22F0030252F8043B184766
:1007A000A507000857F8043B57F8041B57F8040B3B
:1007B0001A6822EA010200EA010042EA00021A6015
:1007C00055F8042B22F0030252F8043B18470000AE
:1007D000D507000855F8043B55F8044B55F804CBF1
:1007E0001A6822EA04020CEA040C42EA0C021A60BB
:1007F00055F8042B22F0030252F8043B184700007E
:100800000508000846F8045D55F8042B22F00302A1
:1008100052F8043B184700001D08000857F8040B65
:1008200000280CBF3568361D55F8042B22F0030252
:1008300052F8043B184700000A00000001000000C5
:1008400000000000000000006805001058030010C0
:1008500070FA0020040000101000002000000000CA
:1008600000000000CC3E0008F50D0008000000006C
:1008700075080008074808490E2203680B60001D30
:10088000091D521EF9D155F8042B22F0030252F82B
:10089000043B1847380800080401001046F8045DBE
:1008A000154655F8042B22F0030252F8043B184772
:1008B000B508000856F8045B55F8042B22F0030233
:1008C00052F8043B1847000001CA47F8040D55F8D8
:1008D000042B22F0030252F8043B184701CA47F8E0
:1008E000040D55F8042B22F0030252F8043B18477C
:1008F000F508000855F8040B47F8040D55F8042BCB
:1009000022F0030252F8043B1847000011090008C6
:1009100055F8040B47F8040D55F8042B22F0030298
:1009200052F8043B184700002D09000857F8045BF3
:1009300055F8042B22F0030252F8043B184700003C
:1009400046F8045D4568083047F8040D55F8042B57
:1009500022F0030252F8043B184700006109000826
:10096000064807490968401A47F8040D55F8042B52
:1009700022F0030252F8043B1847000010FA00204E
:100980002401001089090008064807490968401A2F
:1009900047F8040D55F8042B22F0030252F8043BEB
:1009A000184700000401001020010010B1090008E0
:1009B00057F8043B57F8042B93465A461878844658
:1009C000117848403F2420401DD1521C5B1C1878F0
:1009D00011788842F9D08024001B884214D15B1C16
:1009E0001878FF28FBD0083347F8043D0120624601
:1009F00047F8042D47F8040D55F8042B22F00302A4
:100A000052F8043B18475B1C187880242042FAD027
:100A10001B1D084803401B68002B00D0CDE70020B9
:100A200047F8040D55F8042B22F0030252F8043B5A
:100A300018470000FCFFFFFF3D0A00082B68ED1877
:100A400055F8042B22F0030252F8043B184700002B
:100A5000550A000857F8040B00283FF4EFAF2D1D8E
:100A600055F8042B22F0030252F8043B184700000B
:100A7000750A0008012374683268944204D0D218C1
:100A80003260A41A7FF4DAAF08362D1D55F8042B16
:100A900022F0030252F8043B18470000A10A0008A4
:100AA00057F8043BFFF7E7BFAD0A000857F8040BFF
:100AB00057F8042B46F8042D46F8040D55F8042B7E
:100AC00022F0030252F8043B18470000D10A000844
:100AD00057F8040B00787F21084047F8040D55F8BB
:100AE000042B22F0030252F8043B1847F10A0008D5
:100AF00057F8041B0B4A92460B4B1C6812191078CE
:100B0000521C884201D00028F9D15446121B1A7099
:100B100047F8040D55F8042B22F0030252F8043B69
:100B20001847000070FA002008010010310B00087F
:100B300057F8041B57F8042B10784840107055F8EC
:100B4000042B22F0030252F8043B1847510B000813
:100B50000A21884205D157F8040B0D2047F8040DEF
:100B600002E00D21884203D100F080F900F086F9FF
:100B700055F8042B22F0030252F8043B18470000FA
:100B8000850B00083868017801290FD0022914D09C
:100B900001440A78622A1AD0252A18D0642A18D06B
:100BA000232A16D0682A16D0242A14D055F8042BEC
:100BB00022F0030252F8043B184782782E2AE7D12C
:100BC00055F8042B22F0030252F8043B1847022484
:100BD00002E00A2400E0102400220A70044A146093
:100BE00055F8042B22F0030252F8043B184700008A
:100BF00004010010F90B000857F8040B57F8041B08
:100C0000A0FB012047F8042D47F8040D55F8042BEC
:100C100022F0030252F8043B18470000210C0008A0
:100C200057F8040B57F8043B57F8042B002812D050
:100C300093F0000F0FD10146B2FBF0F000FB112240
:100C400047F8042D47F8040D55F8042B22F0030251
:100C500052F8043B18474040401E024647F8042D16
:100C600047F8040D55F8042B22F0030252F8043B18
:100C700018470000790C0008044A176855F8042B3F
:100C800022F0030252F8043B184700001401001040
:100C9000950C0008044A166855F8042B22F003024C
:100CA00052F8043B1847000018010010B10C00086E
:100CB000044A11688C4655F8042B22F0030252F8BE
:100CC000043B184704010010CD0C0008044A61469B
:100CD000116055F8042B22F0030252F8043B184728
:100CE0000401001009490A480A4C0160001DA04295
:100CF000FBD3094F094E0FF2280546F8045D55F85D
:100D0000042B22F0030252F8043B18471111111171
:100D100000000020000201206805001058030010A8
:100D200070080008B4400008702D0008C4300008A6
:100D3000F0080008FB000000E82F0008F008000899
:100D4000F7000000E82F0008C43000081019000860
:100D500008CA9F4603B502490868401C086003BDE5
:100D600000000010690D000856F8045BBDE83F9CC8
:100D7000464953482041524D2020313031302C31EA
:100D8000313030202D2045484F4E2F45484F4646A4
:100D90002044656275675372632053544D33324665
:100DA000343037564720444953434F20403136387A
:100DB0004D687A20524D2056312E372E322028434E
:100DC00029323031342D3230313820412D544541D3
:100DD0004D20464F525448203A2041707220323202
:100DE0002032303138002061742031323A31333AC8
:100DF0003234001500206F6B2C20676F20666973FA
:100E00006820696E2042415345200000910D0A4739
:100E100050494F205265676973746572733A0D8A41
:100E200000000000844E4F4FD0FFFFFF0C0E000863
:100E3000350E000855F8042B22F0030252F8043B4B
:100E40001847000087455845435554C5240E0008EF
:100E5000550E000800F00AF800F010F857F8042BBF
:100E600022F0030252F8043B184700007246024C7D
:100E70002168090AFCD31047004800407246024925
:100E800013240C70104700000448004072460249C9
:100E900011240C7010470000044800408242CCFF2F
:100EA000440E0008DD080008200000008255D0FF35
:100EB0009C0E0008DD080008200100108546454E04
:100EC00043C5FFFFAC0E0008DD0800082C01001030
:100ED0008244D0FFBC0E0008DD0800082401001089
:100EE00084424153C5FFFFFFD00E0008DD08000813
:100EF000040100108743555252454ED4E00E0008BD
:100F0000DD080008300100108553544154C5FFFF2F
:100F1000F40E0008DD08000810010010834F55D4BE
:100F2000080F0008DD0800080C0100108249CEFF00
:100F30001C0F0008DD08000808010010835041C4A0
:100F40002C0F0008DD08000810FA0020835449C265
:100F50003C0F0008DD08000870FA00208448455264
:100F6000C5FFFFFF4C0F00089D080008D80E0008C1
:100F7000AC1D0008B008000885414C4C4FD4FFFF61
:100F80005C0F00089D0800085C090008981B000819
:100F900098280008B8290008500A00080800000036
:100FA000FC020008D80E0008841D0008B0080008E4
:100FB00087414C49474E45C4780F0008C10F0008CF
:100FC00057F8040BC01C0549084047F8040D55F8B4
:100FD000042B22F0030252F8043B1847FCFFFFFFEA
:100FE00085414C4947CEFFFFB00F00089D0800081F
:100FF000680F00082027000870280008181C000847
:10100000701B0008680F0008A80A0008F008000814
:10101000FF000000A81A0008181E0008700A000847
:10102000ECFFFFFF2C1B0008F0080008FCFFFFFF8F
:10103000D02A0008D80E0008F41D0008B0080008E7
:1010400081ACFFFFE00F00089D0800085C09000864
:10105000B8290008500A000808000000FC02000837
:1010600024030008B00800088243ACFF40100008C9
:101070009D0800085C090008B8290008500A00080B
:1010800008000000FC020008680F0008181E000895
:101090000027000814030008B008000888564152D1
:1010A000414C4C4FD4FFFFFF681000089D0800081A
:1010B0008409000830270008FC270008981B000856
:1010C00098280008B8290008500A000818000000F5
:1010D000F0080008933F0008F8160008942F000855
:1010E00014180008B40E0008AC1D0008EC1B000822
:1010F00030270008C0270008B40E0008841D00082F
:10110000B0080008864C41544553D4FF9C10000899
:101110009D080008000F0008AC1D0008B00800087A
:10112000834C46C1041100082D11000857F8040B28
:10113000083847F8040D55F8042B22F0030252F842
:10114000043B1847834346C1201100085111000891
:1011500057F8040B001F47F8040D55F8042B22F034
:10116000030252F8043B1847834E46C1441100085D
:101170009D0800089C010008982800080027000826
:1011800098280008181C0008D01D0008F008000866
:10119000FF00000098280008500A0008E0FFFFFF49
:1011A000F0080008FFFFFFFFD8060008B00800089D
:1011B000835046C1681100089D08000800270008F8
:1011C000D806000860260008181C0008D01D00087A
:1011D000F0080008FF00000098280008500A0008E6
:1011E000E4FFFFFF9C01000870280008B008000819
:1011F000883F414C49474E45C4FFFFFFB0110008EE
:101200009D080008F008000803000000D02A00082C
:10121000500A00083C000000BC0300082E56414C58
:101220005545204D555354204245204556454E20A6
:101230004E4F54204F444420414E44204D554C5471
:1012400049504C45204F4620342120FF14180008F7
:10125000B0080008863F4552524FD2FFF0110008F7
:101260009D080008EC1B0008500A00081000000050
:10127000F0140008380A000808000000CC1B000821
:10128000B00800088544494749D4FFFF54120008BC
:101290009512000857F8042B57F8040B303813D474
:1012A000092802DDC01F0A280EDB90420CDA024634
:1012B000012047F8042D47F8040D55F8042B22F0BF
:1012C000030252F8043B1847002047F8040D55F874
:1012D000042B22F0030252F8043B184787454E4383
:1012E0004C4F53C584120008ED12000857F8040B48
:1012F00039680022521E491E491C521C0B78984224
:10130000FAD047F8042D002B0CD11846521C47F890
:10131000042D47F8040D55F8042B22F0030252F86F
:10132000043B1847491C521C0B78984201D0002BF3
:10133000F8D11046401C47F8042D47F8040D55F825
:10134000042B22F0030252F8043B1847C180FFFF30
:10135000DC1200085913000856F8045B55F8042BFA
:1013600022F0030252F8043B1847000084574F5202
:10137000C4FFFFFF4C1300089D080008540F00082D
:10138000340F0008AC1D000870280008EC1B000892
:10139000E8120008340F0008841D0008981B00089C
:1013A00098280008701B0008501B0008680F0008F0
:1013B000181E000870280008680F00086026000842
:1013C000501B0008D81C0008F0260008680F000811
:1013D000602600082C1B000870280008181E000852
:1013E000B0080008864E554D4245D2FF6C130008E8
:1013F0009D080008AC0C0008800B0008F0260008CF
:10140000F0260008741A0008181C0008602600085E
:10141000D01D0008F00800082D000000C0280008BA
:1014200000270008D02A0008181C0008701B0008BC
:1014300070280008F0080008FFFFFFFF18250008CB
:10144000F41D000808040008181C0008D01D00083E
:10145000F026000898280008500A00086C000000D8
:10146000181C0008D01D0008F00800082E0000001D
:1014700098280008500A000844000000181C0008C2
:10148000D01D0008F00800082C000000C02800084B
:10149000500A000814000000F0080008FFFFFFFFDA
:1014A000380A000898FFFFFFC80C00080027000852
:1014B000F0080008D73F000860120008F026000876
:1014C000380A000878FFFFFFCC1B00082C1B00081F
:1014D000500A000808000000E8240008C80C0008B2
:1014E000B0080008854552524FD2FFFFE4130008B0
:1014F0009D080008680F0008D4160008942F000803
:10150000F8160008942F0008682E0008140F000831
:10151000AC1D0008500A00084000000050060008FA
:10152000AC1D0008500A00083000000050060008FA
:10153000AC1D0008B811000828110008AC1D0008F7
:10154000000F0008F41D000850060008AC1D00083C
:10155000D80E0008F41D00083C0600081418000806
:10156000C1A7FFFFE41400089D0800088C040008D0
:101570008C290008F0080008C93F00086012000824
:10158000CC1B0008081F0008B0080008864558500A
:101590004543D4FF601500089D0800086026000838
:1015A000981B000870280008981B00086026000897
:1015B0008C2E0008A80A0008303000084C0B0008E8
:1015C000181C0008F008000809000000C0280008E6
:1015D000500A00080C000000CC1B0008A40E0008F4
:1015E000181C00089C010008C0280008981B00086F
:1015F000F00800087F000000C0280008F82A000852
:10160000500A000850000000CC1B0008181C0008FD
:10161000A81A00083C260008C0280008181C00086A
:101620002C1B0008102700089828000870280008C4
:10163000701B0008500A0008100000008801000814
:10164000380A000860000000A4010008380A0008F9
:1016500054000000181C0008F00800080D000000ED
:10166000C0280008500A00081C0000000C1B0008DD
:10167000CC1B0008A40E0008F0260008380A000859
:1016800008000000181C0008A81A0008181E00080E
:10169000F0260008A81A000860260008181E000896
:1016A000E82F0008700A000810FFFFFF682E0008EE
:1016B00060260008F8160008EC1B00083C2600080D
:1016C000181E0008B008000885434F554ED4FFFF90
:1016D0008C1500089D080008181C000860260008EA
:1016E000EC1B0008D01D0008B008000884244C45FD
:1016F000CEFFFFFFC8160008FD1600083A684040FC
:10170000115C094301D0401CFAE747F8040D55F875
:10171000042B22F0030252F8043B184786464F522E
:101720004745D4FFEC1600089D080008681500081E
:10173000181C0008F008000800000208042900082E
:10174000F00800083A3F000860120008181C000862
:10175000F00800080000100804290008F00800083C
:10176000573F000860120008181C000828110008E4
:10177000701B000810110008B8110008281100089B
:10178000181C0008AC1D0008000F0008F41D00081C
:10179000181C0008A8260008AC1D0008F008000866
:1017A000C9080008C0280008500A000814000000FA
:1017B000F0080008FCFFFFFFB40E0008841D0008BD
:1017C000501B0008C0280008500A0008A8FFFFFFAF
:1017D0002C1B0008AC1D0008000F0008F41D0008B9
:1017E00070110008D80E0008F41D0008FC3900082C
:1017F000CC390008B0080008834259C51C170008FE
:1018000005180008FFF76EBA8541424F52D4FFFF1A
:10181000F81700089D080008740C0008900C0008D8
:10182000D0010008F0080008EC3E00081011000884
:10183000AC090008500A000810000000CC1B00088A
:101840004C110008500E0008F00800083801001084
:10185000AC1D0008500A00086C000000F0080008E9
:10186000C8180008F8160008942F0008683000080F
:10187000500A0008F8FFFFFF30300008F0080008A9
:1018800043000000C0280008500A0008E0FFFFFFE6
:1018900030300008F00800084F000000C0280008A1
:1018A000500A0008C8FFFFFF30300008F0080008A9
:1018B0000D000000C0280008500A0008B0FFFFFF1C
:1018C000C4300008B0050008204572726F722048CD
:1018D000616C74202845484F4E2F45484F46462995
:1018E000202D20546F20434F6E74696E756520540F
:1018F00079706520434F207468656E20456E74656D
:10190000723A200084434F4CC4FFFFFF08180008C0
:101910009D080008C806000888060008B0050008F1
:10192000900D0A464953482053797374656D3A0DFA
:101930008AFFFFFF04190008832E53C820190008EE
:101940009D080008F008000810000000E4010008ED
:10195000B0080008832E53C4381900089D080008F9
:10196000F00800080A000000E4010008B0080008C0
:10197000832E53C2541900089D0800081027000840
:10198000E4010008B0080008822ED3FF7019000897
:101990009D080008DC020008AC1D0008C81A0008F9
:1019A000A8260008C02800088C290008500A000852
:1019B00068000000BC03000805544F533E20FFFFA1
:1019C000DC020008AC1D0008C81A0008A8260008A0
:1019D000A80A0008A81A0008AC1D0008EC0E0008B0
:1019E000AC1D0008F00800080A000000C02800082C
:1019F000500A00081000000068020008380A0008B9
:101A00000800000080020008F02E000830270008BF
:101A10009C0A0008C0FFFFFFB0080008843244554C
:101A2000D0FFFFFF881900082D1A000838687A686F
:101A300047F8042D47F8040D55F8042B22F0030253
:101A400052F8043B18470000842D4455D0FFFFFF97
:101A50001C1A00089D080008181C0008500A0008FD
:101A600008000000181C0008B008000883524FD47A
:101A7000481A0008791A000857F8042B57F8041B75
:101A800057F8040B47F8041D47F8042D47F8040DD8
:101A900055F8042B22F0030252F8043B18470000CB
:101AA00081C9FFFF6C1A0008AD1A0008306847F8BA
:101AB000040D55F8042B22F0030252F8043B18479A
:101AC000835350C0A01A0008CD1A0008384647F8C2
:101AD000040D55F8042B22F0030252F8043B18477A
:101AE000835250C0C01A0008ED1A0008304647F86B
:101AF000040D55F8042B22F0030252F8043B18475A
:101B0000854C454156C5FFFFE01A0008111B00082F
:101B10003268726055F8042B22F0030252F8043B3D
:101B2000184700008252BEFF001B0008311B00084E
:101B300056F8040B47F8040D55F8042B22F0030265
:101B400052F8043B1847000081D2FFFF241B000815
:101B5000551B0008306847F8040D55F8042B22F097
:101B6000030252F8043B1847823ED2FF481B00088C
:101B7000751B000857F8041B46F8041D55F8042B84
:101B800022F0030252F8043B18470000844F5645E8
:101B9000D2FFFFFF681B00089D1B000857F8042BAD
:101BA00057F8040B47F8040D47F8042D47F8040DC7
:101BB00055F8042B22F0030252F8043B18470000AA
:101BC0008444524FD0FFFFFF8C1B0008D11B00083C
:101BD0003F1D55F8042B22F0030252F8043B18472E
:101BE00084535741D0FFFFFFC01B0008F11B0008C2
:101BF00057F8042B57F8040B47F8042D47F8040D49
:101C000055F8042B22F0030252F8043B1847000059
:101C1000834455D0E01B00081D1C0008386847F8B5
:101C2000040D55F8042B22F0030252F8043B184728
:101C3000900D0A537461636B2053747566663A0D98
:101C40008AFFFFFF101C000887414E44424954D3CD
:101C5000301C0008591C000857F8042B57F8041BC7
:101C600008681040086055F8042B22F0030252F86F
:101C7000043B184787534554424954D3481C000835
:101C8000851C000857F8042B57F8041B08681043FC
:101C9000086055F8042B22F0030252F8043B184761
:101CA00087434C52424954D3741C0008B11C0008AD
:101CB00057F8042B57F8041B08689043086055F840
:101CC000042B22F0030252F8043B184785434D4F82
:101CD00056C5FFFFA01C0008DD1C000857F8041BB8
:101CE00057F8042B57F8043B002907D018781070D8
:101CF000491E002902D0521C5B1CF7D155F8042B59
:101D000022F0030252F8043B184700008446494C75
:101D1000CCFFFFFFCC1C00081D1D000857F8040B6A
:101D200057F8041B57F8042B002904D08B181070A7
:101D3000521C9A42FBD155F8042B22F0030252F8B0
:101D4000043B18478545524153C5FFFF0C1D000851
:101D50009D080008F0260008181D0008B0080008BB
:101D600086424C414E4BD3FF441D00089D0800089D
:101D7000A40E0008181D0008B0080008822BA1FF5F
:101D8000601D0008891D000857F8041B57F8040B54
:101D90000A688018086055F8042B22F0030252F8F4
:101DA000043B184781C0FFFF7C1D0008B11D0008DF
:101DB00057F8041B086847F8040D55F8042B22F067
:101DC000030252F8043B18478243C0FFA41D0008D9
:101DD000D51D000857F8041B087847F8040D55F87E
:101DE000042B22F0030252F8043B184781A1FFFFA5
:101DF000C81D0008F91D000857F8040B57F8041B0C
:101E0000016055F8042B22F0030252F8043B1847F6
:101E10008243A1FFEC1D00081D1E000857F8040BAB
:101E200057F8041B017055F8042B22F0030252F8F6
:101E3000043B18479F0D0A5265616420616E64205F
:101E40005772697465204D656D6F7279205769749A
:101E5000683A0D8A101E000881DDFFFF341E00085D
:101E60009D08000810070008C000000010010010C5
:101E7000B0080008C1DBFFFF581E00089D080008DD
:101E8000100700080000000010010010B008000852
:101E9000C95B434F4D50494C45DDFFFF741E0008A0
:101EA0009D0800088C0400088C290008F008000830
:101EB000EF3F000860120008CC1B00084C1100081E
:101EC00048100008B0080008C8444C495445524125
:101ED000CCFFFFFF901E00089D080008140F0008AB
:101EE000AC1D0008500A000810000000EC1B0008A0
:101EF000081F0008081F0008B0080008C74C495414
:101F0000455241CCC81E00089D080008140F000867
:101F1000AC1D0008500A000810000000A8040008CA
:101F2000F008000848100008B00800088223BEFF2F
:101F3000FC1E00089D080008CC1B0008CC1B0008F4
:101F4000F4020008AC1D0008440F0008981B0008AC
:101F500098280008B008000884484F4CC4FFFFFFD1
:101F60002C1F00089D080008F0080008FFFFFFFF75
:101F7000F4020008841D0008F4020008AC1D0008EB
:101F8000181E0008B008000884534947CEFFFFFF21
:101F9000581F00089D080008741A0008B829000896
:101FA000500A000810000000F00800082D00000092
:101FB000641F0008B00800088223D3FF881F0008B0
:101FC0009D080008EC1F0008981B0008981B0008DB
:101FD000F82A00088C290008500A0008E8FFFFFFD3
:101FE000B008000881A3FFFFB81F00089D08000883
:101FF000EC0E0008AC1D0008C8040008741A0008A4
:10200000F008000809000000981B000804290008D7
:10201000500A000810000000F00800080700000047
:1020200070280008F0080008300000007028000840
:10203000641F0008B0080008823CA3FFE41F0008EA
:102040009D0800081007000810FA00204401001045
:10205000B008000885444F4553BEFFFF38200008F4
:102060009D0800082C1B000810110008B81100087A
:10207000181C00084C110008F00800083F0900086F
:10208000EC1B0008F41D0008F41D0008B00800084F
:10209000873C4255494C44D3542000089D08000811
:1020A000DC220008B0080008C52B4C4F4FD0FFFFC2
:1020B000902000089D080008202700087C030008E5
:1020C000A80400089C0A000828060008B0080008B8
:1020D000C44C4F4FD0FFFFFFA82000089D08000808
:1020E000202700087C030008A8040008700A0008E4
:1020F00028060008B0080008C244CFFFD02000081E
:102100009D080008A8040008A80A0008680F000835
:1021100020270008B0080008C5454E4449C6FFFF07
:10212000F82000089D080008400300081027000858
:102130007C030008680F0008981B00089828000816
:10214000EC1B0008F41D0008B0080008C454484502
:10215000CEFFFFFF182100089D0800082421000879
:10216000B0080008C4454C53C5FFFFFF4C210008D0
:102170009D080008102700087C030008A804000838
:10218000380A0008680F0008F02600084810000808
:10219000EC1B000810270008242100081027000865
:1021A000B0080008C249C6FF642100089D08000865
:1021B000A8040008500A0008680F0008F02600086C
:1021C0004810000810270008B0080008C5554E54F4
:1021D00049CCFFFFA42100089D0800080027000843
:1021E0007C030008A8040008500A0008280600081C
:1021F000B0080008C541474149CEFFFFCC21000887
:102200009D080008002700087C030008A8040008B7
:10221000380A000828060008B0080008C6524550D1
:102220004541D4FFF42100089D080008701B0008F8
:10223000701B0008002200082C1B00082C1B000843
:10224000102700089828000824210008B00800087A
:10225000C55748494CC5FFFF1C2200089D080008CF
:10226000AC21000884260008B0080008C542454794
:1022700049CEFFFF502200089D08000840030008D7
:10228000680F000800270008B0080008970D0A49E9
:102290006E7369646520436F6C6F6E20574F5244B4
:1022A000533A0D8A6C22000889494D4D45444941F5
:1022B00054C5FFFF8C2200089D080008101100087B
:1022C000F0080008400000002C0B0008B0080008CF
:1022D000864352454154C5FFA82200089D080008C6
:1022E0005C090008F00800080F00000098280008AA
:1022F000B8290008500A000808000000FC02000885
:102300008C040008500A000824000000CC1B0008C0
:1023100070110008082F0008F0080008B33F0008FB
:10232000F8160008942F000814180008680F000819
:10233000181C000850060008F41D0008181C0008AE
:10234000D01D0008F00800081F000000802A0008C7
:1023500014030008181C0008F008000880000000A2
:102360002C0B0008680F0008F0080008800000002F
:102370002C0B000800270008D80E0008841D000858
:102380001011000848100008000F0008F41D000894
:10239000A8040008DD080008680F0008A826000847
:1023A00048100008B008000888434F4E5354414E6F
:1023B000D4FFFFFFD02200089D080008CC230008AE
:1023C000B008000883434FCEA82300089D080008EA
:1023D000DC220008F0080008FCFFFFFFD80E000810
:1023E000841D0008481000083C060008B0080008DA
:1023F000885641524941424CC5FFFFFFC4230008A3
:102400009D08000814240008B0080008835641D233
:10241000F02300089D080008DC220008F0080008EE
:10242000F8FFFFFFD80E0008841D0008A80400086C
:10243000C908000800270008AC1000084810000870
:102440003C060008B0080008C1BBFFFF0C240008D0
:102450009D08000808050008A8040008B008000846
:102460007C1E00083C060008B0080008C1BAFFFF47
:10247000482400089D08000860030008F4040008D0
:10248000DC220008601E0008F0080008F8FFFFFFCB
:10249000D80E0008841D0008A80400089D08000844
:1024A000B0080008960D0A43524541544520574F45
:1024B00052445320576974683A0D8AFF6C2400080F
:1024C00084444142D3FFFFFFA42400089D08000874
:1024D000181C000870060008B008000887444E4524
:1024E000474154C5C0240008ED24000857F8040BE8
:1024F00057F8042BC043D243521C47F8042D47F829
:10250000040D55F8042B22F0030252F8043B18473F
:10251000834450CCDC240008DD0800084001001092
:1025200083442ED2102500089D080008701B000867
:10253000EC1B0008981B0008CC2400084020000871
:10254000C01F0008941F0008341F00082C1B00083F
:10255000981B000898280008B42E0008942F000843
:10256000B00800088244AEFF202500089D0800083E
:10257000F026000828250008F02E0008B008000802
:102580008244ABFF642500088D25000857F8040B32
:1025900057F8041B57F8043B57F8042B52185841BE
:1025A00047F8042D47F8040D55F8042B22F00302D8
:1025B00052F8043B1847000084532D3EC4FFFFFF30
:1025C00080250008C925000857F8042B4040124315
:1025D00000D5401E47F8042D47F8040D55F8042B8C
:1025E00022F0030252F8043B184700008232AAFF8F
:1025F000B8250008F925000857F8040B400047F8F3
:10260000040D55F8042B22F0030252F8043B18473E
:102610008232AFFFEC2500081D26000857F8040B96
:10262000401047F8040D55F8042B22F0030252F82D
:10263000043B18478231ADFF1026000841260008F0
:1026400057F8040B401E47F8040D55F8042B22F0F0
:10265000030252F8043B18478231ABFF34260008CE
:102660006526000857F8040B401C47F8040D55F880
:10267000042B22F0030252F8043B18478232ABFFCE
:10268000582600088926000857F8040B801C47F8D4
:10269000040D55F8042B22F0030252F8043B1847AE
:1026A0008234ABFF7C260008AD26000857F8040BE7
:1026B000001D47F8040D55F8042B22F0030252F8D0
:1026C000043B18478234ADFFA0260008D12600083D
:1026D00057F8040B001F47F8040D55F8042B22F09F
:1026E000030252F8043B184781B0FFFFC4260008DC
:1026F000DD0800080000000081B1FFFFE8260008A7
:10270000DD0800080100000081B2FFFFF826000884
:10271000DD0800080200000081B3FFFF0827000861
:10272000DD0800080300000081B4FFFF182700083F
:10273000DD08000804000000824DAAFF28270008D9
:102740009D080008281A0008442B0008701B000888
:10275000682A0008EC1B0008682A0008F40B00082F
:102760002C1B000870060008B0080008824DAFFF5F
:10277000382700089D080008981B0008701B0008F7
:10278000701B0008CC240008501B0008682A0008B1
:102790001C0C00082C1B0008501B0008442B0008D0
:1027A00058060008EC1B00082C1B000858060008FF
:1027B000EC1B0008B008000881AAFFFF6C27000886
:1027C0009D08000840270008CC1B0008B00800083E
:1027D000842F4D4FC4FFFFFFB82700089D08000855
:1027E000701B0008C42500082C1B00087427000873
:1027F000B008000881AFFFFFD02700089D0800083F
:10280000DC270008EC1B0008CC1B0008B0080008FF
:10281000834D4FC4F42700089D080008DC270008FA
:10282000CC1B0008B0080008852A2F4D4FC4FFFFBD
:10283000102800089D080008701B000840270008A9
:102840002C1B000874270008B0080008822AAFFF7C
:10285000282800089D08000834280008EC1B000800
:10286000CC1B0008B008000881ABFFFF4C28000813
:102870007528000857F8040B57F8041B401847F850
:10288000040D55F8042B22F0030252F8043B1847BC
:1028900081ADFFFF682800089D28000857F8040B49
:1028A00057F8041B081A47F8040D55F8042B22F0BA
:1028B000030252F8043B184781BDFFFF902800082F
:1028C000C5280008404057F8040B57F8041B401A6D
:1028D00009D0404047F8040D55F8042B22F00302BC
:1028E00052F8043B1847013847F8040D55F8042BFB
:1028F00022F0030252F8043B1847000081BCFFFF9E
:10290000B8280008092900084040013857F8041B7E
:1029100057F8042B914200DC404047F8040D55F86D
:10292000042B22F0030252F8043B18478255BCFFE7
:10293000FC2800089D080008281A0008442B0008FD
:10294000B8290008500A000818000000CC1B000835
:10295000B82900088C290008380A00080C0000007B
:1029600098280008B8290008B008000881BEFFFFB9
:102970002C2900089D080008EC1B00080429000809
:10298000B00800088230BDFF6C29000891290008BA
:10299000404057F8041B002900D1401E47F8040DA1
:1029A00055F8042B22F0030252F8043B18470000AC
:1029B0008230BCFF84290008BD29000857F8041B99
:1029C00040400138094300D4404047F8040D55F811
:1029D000042B22F0030252F8043B1847834249CEED
:1029E000B02900089D080008100700080200000038
:1029F00004010010B0080008834845D8DC2900080D
:102A00009D080008100700081000000004010010D5
:102A1000B008000887444543494D41CCF8290008D7
:102A20009D080008100700080A00000004010010BB
:102A3000B0080008864E45474154C5FF142A0008D7
:102A4000452A000857F8040BC043401C47F8040D02
:102A500055F8042B22F0030252F8043B18470000FB
:102A6000834142D3342A00089D080008181C00083E
:102A700058060008B0080008834D49CE602A0008B7
:102A80009D080008281A000874290008500A000848
:102A900008000000EC1B0008CC1B0008B008000870
:102AA000834D41D8782A00089D080008281A00089C
:102AB00004290008500A000808000000EC1B000868
:102AC000CC1B0008B008000883414EC4A02A0008AF
:102AD000D52A000857F8040B57F8041B084047F89C
:102AE000040D55F8042B22F0030252F8043B18475A
:102AF000824FD2FFC82A0008FD2A000857F8040BAD
:102B000057F8041B084347F8040D55F8042B22F02E
:102B1000030252F8043B1847834E4FD4F02A0008B2
:102B2000252B000857F8040BC04347F8040D55F84F
:102B3000042B22F0030252F8043B184783584FD26B
:102B4000182B0008492B000857F8040B57F8041BF2
:102B5000484047F8040D55F8042B22F0030252F8C0
:102B6000043B184784535854C8FFFFFF3C2B000810
:102B7000752B000857F8040B00B247F8040D55F800
:102B8000042B22F0030252F8043B18478453585494
:102B9000C2FFFFFF642B00089D2B000857F8040BB1
:102BA00040B247F8040D55F8042B22F0030252F806
:102BB000043B184784524556D7FFFFFF8C2B000873
:102BC000C52B000857F8040B00BA47F8040D55F858
:102BD000042B22F0030252F8043B1847834153D2DE
:102BE000B42B0008E92B000857F8042B57F8040B06
:102BF000104147F8040D55F8042B22F0030252F857
:102C0000043B1847834C53D2DC2B0008112C0008DE
:102C100057F8042B57F8040BD04047F8040D55F82B
:102C2000042B22F0030252F8043B1847834C53CC88
:102C3000042C0008392C000857F8042B57F8040B13
:102C4000904047F8040D55F8042B22F0030252F887
:102C5000043B1847822ED2FF2C2C00089D08000848
:102C6000701B0008C42500082C1B0008282500083C
:102C7000B0080008832E52D5542C00089D08000887
:102C8000701B0008F026000840200008C01F000844
:102C9000341F0008181C00082C1B0008EC1B00083F
:102CA00098280008B42E0008942F0008B0080008E7
:102CB0008255AEFF742C00089D080008F02600081D
:102CC0006C250008B008000881BFFFFFB02C000889
:102CD0009D080008AC1D0008E82C0008B00800089A
:102CE00081AEFFFFC82C00089D080008C42500081D
:102CF0006C250008B0080008822EC2FFE02C0008F6
:102D00009D0800081027000898020008B008000875
:102D1000822EC8FFF82C00089D080008F008000863
:102D20001000000098020008B0080008822EC4FFBE
:102D3000102D00089D080008F00800080A00000097
:102D400098020008B0080008910D0A4E554D424502
:102D5000522053747566663A0D8AFFFF2C2D0008C9
:102D60008A55415254335F494E49D4FF482D0008DB
:102D70009D080008F008000800020120AC1D0008B2
:102D80008C290008500A00081C000000F008000808
:102D900004020120AC1D0008701B0008380A00085E
:102DA00010000000F008000880250000701B0008DB
:102DB000F008000880DE80022C1B0008FC270008B9
:102DC000F008000808480040F41D0008B00800089A
:102DD000864D59424155C4FF602D00089D080008EA
:102DE000100700080000000000020120F0080008A1
:102DF00004020120F41D0008B00800088955415262
:102E000054335F4C53D2FFFFD02D0008112E000821
:102E10000549087847F8040D55F8042B22F0030201
:102E200052F8043B184700000048004088554152C2
:102E300054335F52D8FFFFFFFC2D0008DD08000867
:102E4000044800408855415254335F54D8FFFFFF77
:102E50002C2E0008DD0800080448004084584F4626
:102E6000C6FFFFFF442E00086D2E0008FDF7FEFF91
:102E7000FEF704F855F8042B22F0030252F8043B45
:102E80001847000083584FCE5C2E0008912E000892
:102E9000FDF7ECFFFDF7FAFF55F8042B22F00302D3
:102EA00052F8043B18470000865350414345D3FF76
:102EB000842E00089D080008F0260008A82A0008B3
:102EC000541A0008500A000818000000F0260008F4
:102ED000A80A0008F02E0008700A0008F8FFFFFF9B
:102EE000B00800088553504143C5FFFFA82E0008D5
:102EF0009D080008A40E0008E82F0008B00800088C
:102F0000834944AEE42E00089D080008D41600084A
:102F1000F00800081F000000D02A0008942F0008C5
:102F2000F02E0008B0080008C22EA2FF002F0008F3
:102F30009D080008F008000822000000140F000897
:102F4000AC1D0008500A00082C000000A80400086E
:102F5000BC03000878130008680F0008D01D0008A3
:102F600060260008BC0F000814030008380A000897
:102F70001400000078130008680F0008D416000839
:102F8000942F0008B008000884545950C5FFFFFF73
:102F9000282F00089D080008541A0008500A00084D
:102FA00034000000682E0008981B000870280008F4
:102FB000EC1B0008A80A0008A81A0008CC0A0008A0
:102FC000E82F0008700A0008F0FFFFFF380A000829
:102FD00008000000CC1B0008B008000884454D49DB
:102FE000D4FFFFFF882F0008ED2F000857F8040BCF
:102FF000FDF73CFF0649087006490868401C086058
:1030000055F8042B22F0030252F8043B1847000045
:10301000044800400C010010834B45D9DC2F000808
:103020009D0800088C2E000830300008B008000809
:1030300035300008074A084B19688909FCD3106825
:1030400047F8040D55F8042B22F0030252F8043B14
:10305000184700000448004000480040843F4B45AA
:10306000D9FFFFFF183000086D300008FDF7FEFEA5
:10307000FDF70CFF4040074B1968890900D3013860
:1030800047F8040D55F8042B22F0030252F8043BD4
:103090001847000000480040834352D35C300008CA
:1030A0009D080008F0260008A80A0008C43000089F
:1030B000700A0008F8FFFFFFB00800088243D2FF43
:1030C000983000089D080008D0010008BC030008E3
:1030D000020D0AFFB00800088C0D0A46495348202B
:1030E000494F3A0D8AFFFFFFBC3000088B4952510F
:1030F000535F524553554DC5D83000080131000883
:1031000001F018F955F8042B22F0030252F8043BA1
:10311000184700008C495251535F53555350454E48
:10312000C4FFFFFFEC3000082D31000801F000F96A
:1031300055F8042B22F0030252F8043B1847000014
:103140008F5359535449434B5F4952515F4F46C6C1
:10315000143100085931000804490520086055F869
:10316000042B22F0030252F8043B184710E000E061
:103170008E5359535449434B5F4952515F4FCEFFD1
:10318000403100088931000804490720086055F8DB
:10319000042B22F0030252F8043B184710E000E031
:1031A0008F0D0A494E54455252555054533A0D8A88
:1031B000703100088A464C4153485F534156C5FF61
:1031C000A03100089D08000810110008DC3A000832
:1031D00004290008500A000820000000C43000083C
:1031E000BC0300080F4E4F5448494E4720544F200F
:1031F00053415645B0080008C4320008AC1D000811
:10320000F008000800001008C0280008500A000854
:1032100028000000C4300008BC030008144C4153CF
:103220005420464C41534820415641494C20555367
:103230004544FFFFB0080008EC0F0008B40E00087A
:10324000AC1D0008D4320008F41D0008101100085D
:10325000DC320008CC320008F41D00081011000810
:10326000DC3A0008C0280008500A000848000000A6
:1032700078370008DC3A0008D80E0008F41D000872
:10328000D4320008AC1D0008B40E0008F41D00087C
:10329000CC320008AC1D0008000F0008F41D000827
:1032A00088340008C4300008FC390008CC39000814
:1032B000B00800081011000808330008380A000898
:1032C0009CFFFFFFDD08000804000020DD08000867
:1032D00008000020DD0800080C000020E132000892
:1032E00057F8040B064A1040064A1268801847F83F
:1032F000040D55F8042B22F0030252F8043B184742
:10330000FFFF0F00040000209D080008B81100080E
:10331000181C0008701B00084C110008181C00083D
:10332000AC1D0008F00800083F090008C02800088C
:10333000500A000828000000A8260008181C0008F1
:10334000181C0008AC1D0008DC320008EC1B00084B
:10335000F41D0008380A000800010000181C0008CD
:10336000AC1D0008F0080008DD080008C0280008AF
:10337000981B0008AC1D0008F0080008C9080008E8
:10338000C0280008F82A0008500A000810000000B1
:10339000CC1B0008380A0008C4000000A82600085A
:1033A000181C0008AC1D0008F0080008F008000810
:1033B000C0280008500A000810000000A8260008D5
:1033C000380A0008D8FFFFFF181C0008AC1D0008D1
:1033D000F0080008BC030008C0280008500A0008D4
:1033E00020000000181C0008A8260008D01D0008B6
:1033F00070280008BC0F0008380A0008A0FFFFFF73
:10340000181C0008AC1D0008F0080008B0080008EF
:10341000C02800088C290008500A00083C00000061
:10342000181C0008AC1D0008DC3A000874290008CC
:10343000500A000868FFFFFF181C0008181C00084D
:10344000AC1D0008DC320008EC1B0008F41D00086D
:10345000380A000848FFFFFFCC1B00082C1B00089F
:1034600028110008181C0008AC1D0008181C0008D2
:10347000000F0008F41D0008DC320008EC1B0008F7
:10348000F41D0008B00800089D080008F0080008B6
:1034900000000208181C0008F008000804000020C2
:1034A000F41D0008181C0008701B0008AC1D000863
:1034B000C43B000898280008500A000810000000CB
:1034C0002C1B0008CC1B0008B0080008501B00088B
:1034D000C4320008F41D0008501B0008F008000862
:1034E0000800000070280008181C0008AC1D000827
:1034F000000F0008F41D0008A8260008AC1D0008F5
:10350000B40E0008F41D0008C4300008BC03000815
:1035100017414444454420574F5244532046524F8C
:103520004D204144445220FF501B0008182D000834
:103530002C1B0008A8260008AC1D0008380A00084B
:1035400054FFFFFF9D080008181C000870280008A1
:10355000701B0008181C0008AC1D0008602600083D
:10356000500A000838000000C4300008BC030008FE
:10357000174552415345442042414420464C415353
:103580004820504147452020182D0008CC1B00083A
:103590002C1B0008CC1B0008B0080008A826000857
:1035A000181C0008181C0008501B0008EC1B000821
:1035B00098280008500A00080C000000380A00088B
:1035C00098FFFFFFC4300008BC0300080E464C41C2
:1035D00053482050414745204F4B20FF9828000872
:1035E000182D00082C1B0008CC1B0008B008000890
:1035F0008C464C4153485F464F524745D4FFFFFF2E
:10360000B43100089D080008BC0300081754414B62
:1036100045532041424F55542036205345434F4E89
:103620004453212028310008FC380008DC38000809
:10363000100700082A020100103C0240DC38000894
:103640001007000832020100103C0240DC3800087C
:10365000100700083A020100103C0240DC38000864
:103660001007000842020100103C0240DC3800084C
:10367000100700084A020100103C0240DC38000834
:103680001007000852020100103C0240DC3800081C
:10369000100700085A020100103C0240DC38000804
:1036A0001C390008FC300008F03A0008101100082E
:1036B00074290008500A000810000000643E000849
:1036C000380A00081C000000F0080008CC3E000882
:1036D000DC3A0008B811000828110008F41D0008A1
:1036E000100700080000020804000020F00800088D
:1036F00011111111181C0008CC320008F41D00082B
:10370000D4320008F41D000888340008C4300008D2
:10371000FC390008CC390008B0080008213700083F
:1037200057F8040B57F8041B064A50F8044B42F8AC
:10373000044B8842F9D155F8042B22F0030252F8C9
:10374000043B1847D0FE0020F0080008D0FE0020FF
:10375000500E0008B00800089D080008F008000896
:1037600030390008F0080008843800081C370008C9
:1037700048370008B00800089D08000828310008F4
:10378000FC380008DC3800081007000801020000BF
:10379000103C0240C4320008AC1D0008701B000839
:1037A000F008000810000000C4320008841D000862
:1037B000680F0008701B0008DC3A0008181C00089D
:1037C000AC1D0008C4320008AC1D0008F41D000840
:1037D000DC38000830270008C4320008841D0008C7
:1037E000A8260008181C0008501B0008982800088C
:1037F000500A00080C000000380A0008C0FFFFFF54
:103800002C1B0008CC1B0008CC1B0008F00800088B
:1038100000000020AC1D0008501B0008F41D00082B
:10382000DC380008C4320008AC1D0008501B00083A
:10383000A8260008F41D0008DC380008CC32000877
:10384000AC1D0008501B00089C01000870280008EF
:10385000F41D0008DC380008D4320008AC1D000854
:103860002C1B0008F00800080C000000702800085D
:10387000F41D0008DC3800081C390008FC30000882
:10388000B00800089D080008043600082831000828
:10389000FC380008DC3800081007000801020000AE
:1038A000103C02401007000800000208040000203D
:1038B000F008000810000000D80E0008841D000861
:1038C000300E000878370008300E00080436000873
:1038D0001C390008FC300008B0080008E138000876
:1038E000054908680004FCD255F8042B22F00302B5
:1038F00052F8043B184700000C3C02409D080008A9
:103900001007000823016745043C02401007000827
:10391000AB89EFCD043C0240B00800089D080008C8
:103920001007000800000080103C0240B0080008AA
:1039300084504F46C6FFFFFFF03500089D08000881
:10394000100700080000000034010010B008000853
:1039500083504FCE303900089D080008100700083A
:10396000F50D000834010010B008000881D0FFFFF9
:1039700050390008DD080008340100108545484F23
:1039800046C6FFFF6C3900089D080008F0260008B5
:10399000F008000838010010F41D0008B008000805
:1039A0008445484FCEFFFFFF7C3900089D08000882
:1039B00000270008F008000838010010F41D000876
:1039C000B0080008832E44D3A03900089D080008E1
:1039D0005C090008AC0C0008342D0008C80C000875
:1039E000F0080008083F0008F8160008942F0008A7
:1039F000B0080008832E56D3C43900089D0800087B
:103A000084090008AC0C000830270008FC270008D7
:103A1000342D0008C80C0008F0080008FD3E00081E
:103A2000F8160008942F0008B00800088444554D8B
:103A3000D0FFFFFFF43900089D080008981B00081C
:103A400000120008AC0C0008002A0008F02600084C
:103A5000A80A0008C4300008181C0008F008000874
:103A60000A0000007C2C000830270008F02600081F
:103A7000A80A0008181C0008AC1D0008F00800087F
:103A80000E0000007C2C0008A8260008700A000820
:103A9000E4FFFFFF68300008500A0008080000003B
:103AA0000C1B0008700A0008ACFFFFFFCC1B0008CD
:103AB000C4300008C80C0008B00800088556424110
:103AC00053C5FFFF2C3A0008DD0800080400001071
:103AD0008544424153C5FFFFBC3A0008DD08000899
:103AE000100000208552424153C5FFFFD03A000824
:103AF000DD0800080000002083434CD3E43A0008AE
:103B00009D080008BC030008041B5B324AFFFFFF4E
:103B1000BC030008041B5B3B48FFFFFFC4300008E8
:103B2000B0080008C1A8FFFFF83A00089D08000887
:103B3000F008000829000000EC0A00088C290008A1
:103B4000500A000834000000C4300008F0080008E3
:103B500010000000E82F0008E4030008F008000847
:103B600071FA0020D01D0008500A00081000000063
:103B7000380A0008BCFFFFFFB0080008F008000882
:103B80001A3F0008F8160008942F0008B008000833
:103B9000C1DCFFFF243B00089D080008F026000858
:103BA000540F0008340F0008AC1D000870280008EE
:103BB000181E0008B008000886535953434CCBFF29
:103BC000903B0008C93B00080549086847F8040D08
:103BD00055F8042B22F0030252F8043B184700006A
:103BE000000000208553544354D2FFFFB83B000827
:103BF000DD080008000000108544454C41D9FFFF56
:103C0000E43B0008093C000857F8041B57F8040B74
:103C10000C4CC043401C20600B4A11600B4A1160E1
:103C2000002806D00A4A106807211160216800297F
:103C3000FCD1106055F8042B22F0030252F8043B2B
:103C4000184700000000001014E000E018E000E059
:103C500010E000E0824DD3FFF83B00089D0800080B
:103C6000F00800083F900200043C0008B00800087B
:103C700087574F52444341D4543C00089D080008E4
:103C8000680F0008701B0008F0260008701000087C
:103C9000F00800080D00000070100008680F000810
:103CA000F00800080D00000078130008181C000838
:103CB000D01D0008F00800080A000000741A00086F
:103CC000181E0008181C000860260008840F000851
:103CD000F00800088400000070280008501B00084D
:103CE000181E0008F00800080D0000007010000801
:103CF000F00800088A00000070100008EC0F0008AF
:103D000010110008481000082C1B0008F0080008DB
:103D100030010010F41D0008B008000885574F520C
:103D200044D3FFFF703C00089D08000820270008CE
:103D3000B42E000810110008682E0008F0260008B4
:103D4000981B000860260008D01D0008F008000835
:103D50000D000000C02800088C290008500A000847
:103D60001C000000CC1B0008181C0008B81100083B
:103D700028110008981B000898280008240F000844
:103D8000AC1D000870280008F00800084A00000078
:103D900074290008500A000810000000C430000810
:103DA00020270008B42E0008181C0008C80E0008C0
:103DB000AC1D000804290008500A00080C0000008F
:103DC000380A000854000000181C0008082F0008DA
:103DD00010270008B42E0008181C000860260008F0
:103DE000D01D0008F00800080D000000C0280008E1
:103DF000500A000808000000D0010008B8110008AF
:103E000028110008AC1D0008181C00088C290008A7
:103E1000500A000828FFFFFFCC1B0008C430000830
:103E2000B0080008874D59574F5244D31C3D000835
:103E30009D08000810070008000002082C0100106F
:103E4000283D000810070008000000002C010010A9
:103E5000B008000889464953485F4F4E4CD9FFFFD0
:103E6000243E0008693E000809490A4C21600A4CBA
:103E700021600A490A4C21600A4C21600A490B4C16
:103E8000216055F8042B22F0030252F8043B184736
:103E9000CC3E000830010010080000200400001093
:103EA000200100100C000020100000202401001050
:103EB00084464953C8FFFFFF543E00089D08000890
:103EC0008834000888060008B0080008990D0A46E2
:103ED000495348205265666572656E6365204D6F73
:103EE00064656C3A0D8AFFFFB03E00080352554EE0
:103EF0002000203F2000203C43523E2000564152EB
:103F00002043454C4C53200044494354494F4E41B3
:103F10005259204259544553200020434F4D4D459E
:103F20004E54204C494E452043414E4E4F54204262
:103F30004520454D5054592015002043414E5420F2
:103F4000464F52474554204649534820494E204643
:103F50004C41534820150020494E20464C415348BF
:103F6000202D2053454520464C4153485F464F5233
:103F70004745542015002044494354494F4E41526F
:103F8000592046554C4C202D20534545202E445356
:103F90002015002052414D2056415220535041439C
:103FA000452046554C4C202D20534545202E565338
:103FB00020150020495320414C524541445920448A
:103FC0004546494E4544201500203F204E4F542081
:103FD000574F5244201500203F204E4F5420574F3A
:103FE0005244204F52204E554D424552201500203C
:103FF000434155534544204120535441434B2045B0
:1040000052524F5220150020535441434B204552E9
:10401000524F52205748494C452045584543555426
:10402000494E47204F5220434F4D50494C494E472F
:10403000201500204552524F52202D204E4F542023
:10404000434F4D50494C494E472015002045525290
:104050004F52202D2045584543555445442057483C
:10406000494C4520434F4D50494C494E472015007F
:104070009D0800081007000805070000003C0240EA
:10408000B00800088940000840F20004C2F20104B0
:104090004FF000034FF0800C53F8042B44F8042B2E
:1040A000BCF1010CF8D155F8042B22F0030252F8B0
:1040B000043B18479D0800088440000810070008CA
:1040C0000000012008ED00E0280700080038024049
:1040D000440700080100000084070008003802407F
:1040E00010070008000000000838024028070008F8
:1040F0000038024064070008FFFFF6FE840700084E
:104100000038024010070008103000240438024034
:10411000280700080038024064070008FFFFFBFF83
:104120008407000800380240100700080000000063
:104130000C380240280700080038024044070008F5
:104140000000010084070008003802400008000851
:104150002807000800380240640700080000020039
:1041600018080008280700084038024044070008E3
:1041700000000010840700084038024028070008AB
:104180000070004044070008004000008407000859
:1041900000700040F008000808380240F0080008ED
:1041A00000000000801C0008F008000808380240E9
:1041B000F008000800800000801C0008F0080008DB
:1041C00008380240F008000800140000801C0008B5
:1041D0001007000808544007043802402807000868
:1041E000003802404407000800000001840700086E
:1041F0000038024000080008280700080038024084
:104200006407000800000002180800087040000859
:10421000280700080838024064070008FCFFFFFF79
:1042200084070008083802402807000808380240C0
:104230004407000802000000840700080838024014
:104240000008000828070008083802406407000832
:104250000C000000F008000808000000C02800085A
:104260001808000810070008003000508438024089
:104270002807000800380240440700080000000436
:1042800084070008003802400008000828070008DA
:104290000038024064070008000000081808000801
:1042A00010070008007A030A00000020F008000848
:1042B00030380240F008000887000000801C000829
:1042C000F008000840380240F00800080000040030
:1042D000801C000810070008007700002408024036
:1042E000D0070008000802400300F0000100A00011
:1042F000100700080C2000000C48004010070008C0
:104300000700000010E000E0B0080008BFF34F8F86
:104310000548016811F4E061044801430248016066
:10432000BFF34F8FFEE700000CED00E00400FA053C
:1043300072B6704762B6704780B5FFF7E7FF01BD00
:104340004EF68851CEF20001086840F47000086013
:10435000BFF34F8FBFF36F8F4FF00070E1EE100A85
:1043600070470000FCF7BEBCFFF7FEBFFFF7FEBFC3
:10437000FFF7FEBFFFF7FEBFFFF7FEBFFFF7FEBF71
:10438000FFF7FEBFFCF7E6BCFFF7FEBFFFF7FEBF7F
:10439000FFF7FEBFFFF7FEBFFFF7FEBFFFF7FEBF51
:1043A000FFF7FEBFFFF7FEBFFFF7FEBFFFF7FEBF41
:1043B000FFF7FEBFFFF7FEBFFFF7FEBFFFF7FEBF31
:1043C000FFF7FEBFFFF7FEBFFFF7FEBFFFF7FEBF21
:1043D000FFF7FEBFFFF7FEBFFFF7FEBFFFF7FEBF11
:1043E000FFF7FEBFFFF7FEBFFFF7FEBFFFF7FEBF01
:1043F000FFF7FEBFFFF7FEBFFFF7FEBFFFF7FEBFF1
:10440000FFF7FEBFFFF7FEBFFFF7FEBFFFF7FEBFE0
:10441000FFF7FEBFFFF7FEBFFFF7FEBFFFF7FEBFD0
:10442000FFF7FEBFFFF7FEBFFFF7FEBFFFF7FEBFC0
:10443000FFF7FEBFFFF7FEBFFFF7FEBFFFF7FEBFB0
:10444000FFF7FEBFFFF7FEBFFFF7FEBFFFF7FEBFA0
:10445000FFF7FEBFFFF7FEBFFFF7FEBFFFF7FEBF90
:10446000FFF7FEBFFFF7FEBFFFF7FEBFFFF7FEBF80
:10447000FFF7FEBFFFF7FEBFFFF7FEBFFFF7FEBF70
:10448000FFF7FEBFFFF7FEBFFFF7FEBFFFF7FEBF60
:10449000FFF7FEBFFFF7FEBFFFF7FEBFFFF7FEBF50
:1044A000FFF7FEBFFFF7FEBFFFF7FEBFFFF7FEBF40
:1044B000FFF7FEBFFFF7FEBFFFF7FEBFFFF7FEBF30
:1044C000FFF7FEBFFFF7FEBFFFF7FEBFFFF7FEBF20
:0400000500000000F7
:00000001FF
